:100000000C944A010C947B010C947B010C947B01B1
:100010000C947B010C947B010C947B010C947B0170
:100020000C947B010C947B010C947B010C947B0160
:100030000C947B010C947B010C947B010C947B0150
:100040000C947B010C947B010C947B010C947B0140
:100050000C947B010C947B010C947B010C94480A5A
:100060000C947B010C94640B0C943A0B0C947B0164
:100070000C947B010C947B010C947B010C947B0110
:100080000C947B010C947B010C947B010C947B0100
:100090000C94100B0C94E60A0C947B010C947B01DD
:1000A0000C947B010C947B010C947B010C947B01E0
:1000B0000C947B010C947B010C947B010C947B01D0
:1000C0000C947B010C947B010C947B010C947B01C0
:1000D0000C947B010C947B010C94BC0A0C94920A46
:1000E0000C947B010C94D5020C94F8010C94B10291
:1000F0000C94B9020C941F020C940C030C94DF02B4
:100100000C9434040C94F8020C94CB020C943F022F
:100110000C948E0B0C9416020C9445020C94200344
:100120000C9402030C9449020C9423020C943102A7
:100130000C9480040C94EE020C9493020C94E00353
:100140000C94C1020C943B020C940E020C942604F5
:100150000C942D020C9419020C948E020C94F30151
:100160000C9429020C94D1030C948B030C94160369
:100170000C94CD040C940A020C94A7020C948602F1
:100180000C9412020C9437020C949D0200000A0B8E
:1001900002090C0D0E080703040100000000000016
:1001A000000000000000000000000000000000004F
:1001B000000000000000000012111000000000000C
:1001C000000000000000000000000000000000002F
:1001D000000000002200250028002B002E00310026
:1001E000340002010000050108010B01000021009C
:1001F000240027002A002D003000330001010000F8
:10020000040107010A010505050507050808080896
:10021000020202020A0A080804040404010101019E
:100220000101010103030303030303030407070799
:100230000C0C0C0C0C0C0C0C02020202060606063E
:10024000060606060B0B0B0B0B0B0B0B010210200B
:1002500020080810204010204080020102010804FC
:100260000201010204081020408080402010080490
:1002700002018004020180402010080402010804E9
:10028000020101020408102040800102040810202D
:1002900040808E0B11241FBECFEFD1E2DEBFCDBF59
:1002A00000E00CBF24E0A0E3B2E001C01D92AE3834
:1002B000B207E1F712E0A0E0B2E0E2E0F8E200E02D
:1002C0000BBF02C007900D92A033B107D9F711E020
:1002D000CAE4D1E000E006C021970109802FFE01A9
:1002E0000E94C710C934D10780E00807A9F70E940F
:1002F000A80C0C94FF130C940000FC01A089B18998
:1003000082E08C93A485B5851C92A685B78580E193
:100310008C93108EA489B58986E08C93A289B389C9
:100320008C9180618C93A289B3898C9188608C9325
:10033000A289B3898C9180688C930288F389E02D1F
:1003400080818F7D8083089590E0FC01E45BFD4F08
:1003500024918A5F9D4FFC018491882399F090E05D
:10036000880F991FFC01E451FE4FA591B491FC0147
:10037000EE52FE4F859194918FB7F894EC91E22B59
:10038000EC938FBF0895282F30E0F901E457FE4F1A
:100390009491F901E45BFD4F44912A5F3D4FF901CF
:1003A0002491222309F435C0992311F191509231FF
:1003B000F8F4E92FF0E08827EF51FE4F8F4F0C94AF
:1003C000C71012021602F3010A020E02F801190206
:1003D0001F02230229022D02310237023B02F801DB
:1003E0003F0245024902809180008F778093800010
:1003F000E22FF0E0EE0FFF1FEE52FE4FA591B491F9
:100400008FB7F894EC91611148C040954E234C93FE
:100410008FBF0895809180008F7DE8CF809180000C
:10042000877FE4CF84B58F7784BDE2CF84B58F7D9D
:10043000FBCF8091B0008F778093B000D9CF8091AF
:10044000B0008F7DF9CF809190008F7780939000DE
:10045000CFCF809190008F7DF9CF80919000877FE2
:10046000F5CF8091A0008F778093A000C1CF8091BD
:10047000A0008F7DF9CF8091A000877FF5CF80917C
:1004800020018F7780932001B3CF809120018F7D51
:10049000F9CF80912001877FF5CF4E2BB8CF1F93E6
:1004A000CF93DF93182FEB010E94A401209739F41A
:1004B00060E0812FDF91CF911F910C94C301CF3F5A
:1004C000D10511F461E0F5CFE12FF0E0E457FE4FE4
:1004D000E491E150E23108F0B3C0F0E08827EC5835
:1004E000FD4F8F4F0C94C71086028E0293029D021F
:1004F000A7022003B102B902C102CB02D502DF027A
:10050000EE02F802200302030C03160384B5806890
:1005100084BDC7BDDF91CF911F91089584B58062DE
:1005200084BDC8BDF7CF8091800080688093800033
:10053000D0938900C0938800EDCF809180008062C5
:1005400080938000D0938B00C0938A00E3CF80918A
:100550008000886080938000D0938D00C0938C00D1
:10056000D9CF8091B00080688093B000C093B30071
:10057000D1CF8091B00080628093B000C093B4006E
:10058000C9CF80919000806880939000D0939900AB
:10059000C0939800BFCF80919000806280939000BC
:1005A000D0939B00C0939A00B5CF80919000886053
:1005B00080939000D0939D00C0939C00ABCF80911E
:1005C000A00080688093A0008091A0008F7B809322
:1005D000A000D093A900C093A8009CCF8091A00058
:1005E00080628093A000D093AB00C093AA0092CF0A
:1005F0008091A00088608093A000D093AD00C0934C
:10060000AC0088CF80912001806880932001D09336
:100610002901C09328017ECF8091200180628093C0
:100620002001D0932B01C0932A0174CF8091200127
:10063000886080932001D0932D01C0932C016ACF54
:10064000C038D1050CF03ECF33CF3FB7F89480913E
:100650004B0290914C02A0914D02B0914E0226B5F2
:10066000A89B05C02F3F19F00196A11DB11D3FBFEA
:10067000BA2FA92F982F8827BC01CD01620F711DB9
:10068000811D911D42E0660F771F881F991F4A95B3
:10069000D1F708958F929F92AF92BF92CF92DF923F
:1006A000EF92FF920E9425036B017C0192E0892E5C
:1006B000912CA12CB12C0E9425036C197D098E0967
:1006C0009F09683E734081059105A8F328EEC20E8C
:1006D00023E0D21EE11CF11C8A9489288A288B28E9
:1006E00029F0812C912C54018394E5CFFF90EF9059
:1006F000DF90CF90BF90AF909F908F9008952FB7CD
:10070000F89460914702709148028091490290915B
:100710004A022FBF0895AF92BF92CF92DF92EF921D
:10072000FF920F931F93CF93DF936C017B018B019B
:10073000040F151FEB015E01AE18BF08C017D107EB
:1007400059F06991D601ED91FC910190F081E02D75
:10075000C6011995892B79F7C501DF91CF911F91BA
:100760000F91FF90EF90DF90CF90BF90AF900895E2
:10077000FC01A089B1898C91A689B78982FD0FC03F
:100780009C91818D8F5F8F73228D821749F0A18D8F
:10079000AE0FBF2FB11D5D969C93818F08958C91F4
:1007A0000895FC01538D448D252F30E0842F90E077
:1007B000821B930B541710F0CF960895019708955C
:1007C000FC01918D828D981761F0A28DAE0FBF2F25
:1007D000B11D5D968C91928D9F5F9F73928F90E07B
:1007E00008958FEF9FEF08950F931F930E947F034B
:1007F0006093590270935A0280935B0290935C025B
:1008000081E592E00E94E00397FF1DC00E947F03F4
:100810000091590210915A0220915B0230915C02C2
:10082000601B710B820B930B0091550210915602C5
:100830002091570230915802601771078207930781
:10084000F8F28FEF9FEF1F910F910895FC01918DAA
:10085000828D981731F0828DE80FF11D858D90E023
:1008600008958FEF9FEF0895FC01918D228D892FC0
:1008700090E0805C9F4F821B91098F7399270895A8
:1008800081E592E00E94340421E0892B09F420E004
:10089000822F08958EEE92E00E94340421E0892B8D
:1008A00009F420E0822F08958BE893E00E9434043D
:1008B00021E0892B09F420E0822F0895FC01A48D0A
:1008C000A80FB92FB11DA35ABF4F2C91848D90E072
:1008D00001968F739927848FA689B7892C93A08955
:1008E000B1898C91837080648C93938D848D9813DF
:1008F00006C00288F389E02D80818F7D8083089572
:10090000EF92FF920F931F93CF93DF93EC0181E05F
:10091000888F9B8D8C8D98131AC0E889F989808106
:1009200085FF15C09FB7F894EE89FF896083E88939
:10093000F98980818370806480839FBF81E090E02B
:10094000DF91CF911F910F91FF90EF900895F62EB8
:100950000B8D10E00F5F1F4F0F731127E02E8C8D52
:100960008E110CC00FB607FCFACFE889F989808197
:1009700085FFF5CFCE010E945E04F1CFEB8DEC0F29
:10098000FD2FF11DE35AFF4FF0829FB7F8940B8FB4
:10099000EA89FB8980818062CFCFCF93DF93EC011E
:1009A000888D8823B9F0AA89BB89E889F9898C9157
:1009B00085FD03C0808186FD0DC00FB607FCF7CF13
:1009C0008C9185FFF2CF808185FFEDCFCE010E9413
:1009D0005E04E9CFDF91CF91089580E090E0892B0C
:1009E00029F00E94540481110E94000080E090E0F0
:1009F000892B29F00E944A0481110E94000080E0A6
:100A000090E0892B49F080E090E0892B29F00E944A
:100A1000000081110E94000080E090E0892B29F005
:100A20000E94400481110C9400000895CF93DF933D
:100A3000EC0188810E94A4018A810E94A4018C811A
:100A4000DF91CF910C94A401CF93DF93EC018C81C3
:100A50000E944F0260E088810E94C30161E08A81A8
:100A6000DF91CF910C94C301CF93DF93EC018C8184
:100A70000E944F0261E088810E94C30160E08A8188
:100A8000DF91CF910C94C3010F931F93CF93DF930A
:100A9000C62F082F10E0B8018AE394E00E943405C5
:100AA000B80184E394E00E943405D0E0BE0180E404
:100AB00094E00E943405BE0186E494E0DF91CF917A
:100AC0001F910F910C943405FC0101900020E9F76F
:100AD0003197AF01481B590BBC018BE893E00C9494
:100AE0008B038F929F92AF92BF920F931F93CF93DE
:100AF000DF93CDB7DEB7A1970FB6F894DEBF0FBE78
:100B0000CDBF19A2423008F44AE08E010F5D1F4F9D
:100B1000842E912CB12CA12CA50194010E94A5102A
:100B2000E62FB901CA01EA30F4F4E05DD801EE9392
:100B30008D01232B242B252B79F790E080E0109753
:100B400019F0CD010E946405A1960FB6F894DEBF9E
:100B50000FBECDBFDF91CF911F910F91BF90AF908E
:100B60009F908F900895E95CE1CFCF92DF92EF9252
:100B7000FF92CF93DF936B017C016DE28BE893E0F2
:100B80000E948004EC0166277727CB016C197D0950
:100B90008E099F094AE00E9471058C0F9D1FDF910D
:100BA000CF91FF90EF90DF90CF9008950F931F9318
:100BB000CF93DF93EC0188819981009759F02A81C6
:100BC0003B812617370730F081E0DF91CF911F91ED
:100BD0000F9108958B016F5F7F4F0E940E13009756
:100BE00059F0998388831B830A832C813D81232BB1
:100BF00059F7FC011082E8CF80E0E7CFEF92FF9237
:100C00000F931F93CF93DF9300D000D01F921F92BA
:100C1000CDB7DEB781E592E00E943404E090300267
:100C2000F0903102892B09F45CC01A8219821C826F
:100C30001B821E821D8270E060E0CE0101960E9440
:100C4000D60529813A8181112EC02115310519F06F
:100C5000C9010E9485121A8219821E821D821C827D
:100C60001B820E94F40397FD26C08D37910519F170
:100C70008F8318860D811E810F5F1F4FB801CE0133
:100C800001960E94D605882361F329813A818D81DE
:100C90009E81BE01695F7F4F820F931F0E94F813F0
:100CA0001E830D83DECF1E821D826CE272E0C901BD
:100CB0000E94F813D6CF09811A8160E070E0CB0161
:100CC0000115110519F0C8010E94450F7B017093B1
:100CD0003102609330020115110519F0C8010E941C
:100CE0008512C70128960FB6F894DEBF0FBECDBFA0
:100CF000DF91CF911F910F91FF90EF9008952F9268
:100D00003F924F925F926F927F928F929F92AF929B
:100D1000BF92CF92DF92EF92FF920F931F93CF93E8
:100D2000DF93CDB7DEB769970FB6F894DEBF0FBE7D
:100D3000CDBF898780910002882349F10E94FE057A
:100D40009093500280934F02BC01990F880B990B2E
:100D50000E94880F609370047093710480937204F2
:100D6000909373041092000281E0809378041092B3
:100D7000640410926504109266041092670489E17D
:100D800092E00E9464058AE292E00E94640560910C
:100D90004F0270915002072E000C880B990B0E9495
:100DA000880F8B018D8399830E94FE05BC01990FEA
:100DB000880B990B0E94880F6B017C01C801AD81E3
:100DC000B9818093700490937104A0937204B093DE
:100DD00073048090860490908704A0908804B0905B
:100DE000890420E030E0A901C501B4010E94810F0F
:100DF000882331F1A5019401C701B6010E94D010EA
:100E00002B013C019B01AC01B8018D8199810E94AD
:100E1000E41118160CF438C1A5019401C701B601FC
:100E20000E94CF104B015C019B01AC01B8018D8188
:100E300099810E94810F87FF03C08401AD82B9822E
:100E4000A7019601B8018D8199810E94CF106E870C
:100E50007F87888B998B2091580430915904409159
:100E60005A0450915B04B8018D8199810E94E70F6B
:100E70004B015C0120914C0430914D0440914E0493
:100E800050914F046E857F85888999890E94E70F6C
:100E90009B01AC01C501B4010E94D0104B015C0163
:100EA00080917804882391F0C0927404D0927504E4
:100EB000E0927604F092770480927E0490927F0410
:100EC000A0928004B092810410927804409054045F
:100ED00050905504609056047090570477FA7094BF
:100EE00077F87094209174043091750440917604E1
:100EF00050917704C701B6010E94CF109B01AC014D
:100F0000C301B2010E94E70F6D837E838F839887B0
:100F1000C0927404D0927504E0927604F092770443
:100F20008091640490916504A0916604B091670477
:100F30008A8B9B8BAC8BBD8B2091500430915104DC
:100F40004091520450915304BC01CD010E94E70F1F
:100F50006B017C0140905C0450905D0460905E04E5
:100F600070905F0420E030E0A901C301B2010E944B
:100F7000810F8823E1F0A3019201B601C7010E940D
:100F8000E41118160CF484C0D301C201B05889834F
:100F90009A83AB83BC839C01AD01B601C7010E945B
:100FA000810F87FF04C0C980DA80EB80FC80A50137
:100FB0009401B601C7010E94D0102D813E814F815E
:100FC00058850E94D0106B017C0120906C04909198
:100FD0006D049983A0916E04AD83B0916F04BA87BC
:100FE000209168042B87309169043C8780916A04C2
:100FF0008D8730906B04482F532D622D792FCD01B2
:101000000E94810F80907A0490907B04A0907C04D1
:10101000B0907D048823A9F0222D39814D815A8515
:10102000B601C7010E94E41118160CF05EC02B85B2
:101030003C854D85532DB601C7010E94810F87FF66
:1010400054C020E030E0A901C501B4010E94810F25
:10105000811121C02A893B894C895D896E857F85F4
:10106000888999890E94D0108B018A8B9E8720E005
:1010700030E0A901C301B2010E94810F811142C079
:10108000C801AA89BE8535C082016D827982D8CE19
:10109000620173018CCF80917E0490917F04A091B6
:1010A0008004B09181048E8B9F8BA88FB98FA5018E
:1010B0009401BC01CD010E94CF109B01AC01B6018F
:1010C000C7010E94E411181684F42E893F89488DC7
:1010D000598DC501B4010E94D0109B01AC01B6012D
:1010E000C7010E94810F87FDB5CF8E859F85A88996
:1010F000B9898093640490936504A0936604B093C7
:10110000670429C0409060045090610460906204BC
:101110007090630498014A895E85C301B2010E9400
:10112000810F87FD10C077FA709477F8709498015A
:101130004A895E85C301B2010E94E41118161CF0B1
:1011400028016A887E84409264045092650460920B
:1011500066047092670420E030E0A901C501B40183
:101160000E94810F882369F140907E0450907F0493
:101170006090800470908104A3019201C501B401C4
:101180000E94D0108B018A8B9E879B01AC01B60117
:10119000C7010E94E41118168CF0A5019401C30147
:1011A000B2010E94CF108B018A8B9E879B01AC01FC
:1011B000B601C7010E94810F87FF03C06801EA885A
:1011C000FE842B853C854D85532D622D79818D8143
:1011D0009A850E94810F8823C1F09601A7016B8533
:1011E0007C858D85932D0E94810F87FDB0C096016F
:1011F000A701622D79818D819A850E94E4111816CC
:1012000024F4C22CD980ED80FA84809082049090DE
:101210008304A0908404B090850420E030E0A9010C
:10122000C501B4010E94810F882301F1A501940139
:1012300060E070E080E89FE30E94CF109601A70174
:101240000E94E70F6B017C0120917E0430917F04A6
:101250004091800450918104C501B4010E94E70FC0
:10126000A70196010E94D0106B017C01C601D70135
:1012700080937E0490937F04A0938004B0938104B4
:10128000B601C7010E94AE118B0106501F4F0F3FE0
:10129000110519F014F00FEF10E0AAEFB0E0A61B53
:1012A000B70BBA83A983AF3FB10529F024F02FEF24
:1012B00030E03A83298339853C3619F0323709F01A
:1012C0004BC00C3D110514F40CED10E089819A819E
:1012D0008C3D910524F4ACEDB0E0BA83A9834AE0DB
:1012E000B801012E000C880B990B0E9471058DE24C
:1012F00092E00E9464054AE0A981BA81BD01BB0F5A
:10130000880B990B0E9471058AE292E00E946405A5
:10131000B985B53761F56981802F69960FB6F89464
:10132000DEBF0FBECDBFDF91CF911F910F91FF9018
:10133000EF90DF90CF90BF90AF909F908F907F9075
:101340006F905F904F903F902F900C944405CB840A
:10135000DC84ED84F32C59CF17FF02C010E000E0CD
:1013600029813A8137FFBBCF1A821982B8CF2985EC
:10137000243671F569817A818AE394E00E9424051C
:1013800069817A8184E394E00E942405B80180E4B5
:1013900094E00E942405B80186E494E069960FB6B3
:1013A000F894DEBF0FBECDBFDF91CF911F910F919B
:1013B000FF90EF90DF90CF90BF90AF909F908F9075
:1013C0007F906F905F904F903F902F900C942405EA
:1013D00039853C3699F469817A818AE394E00E94E8
:1013E0002405B80184E394E00E943405B80180E448
:1013F00094E00E94340569817A81CECF8985823755
:1014000071F5B8018AE394E00E94340569817A811C
:1014100084E394E00E94240569817A8180E494E069
:101420000E942405B80186E494E069960FB6F8940A
:10143000DEBF0FBECDBFDF91CF911F910F91FF9007
:10144000EF90DF90CF90BF90AF909F908F907F9064
:101450006F905F904F903F902F900C943405699659
:101460000FB6F894DEBF0FBECDBFDF91CF911F91B5
:101470000F91FF90EF90DF90CF90BF90AF909F9033
:101480008F907F906F905F904F903F902F90089536
:101490001F920F920FB60F9211242F933F938F93A9
:1014A0009F93AF93BF938091470290914802A09180
:1014B0004902B0914A023091460223E0230F2D37B2
:1014C00058F50196A11DB11D209346028093470255
:1014D00090934802A0934902B0934A0280914B0234
:1014E00090914C02A0914D02B0914E020196A11D27
:1014F000B11D80934B0290934C02A0934D02B09388
:101500004E02BF91AF919F918F913F912F910F907C
:101510000FBE0F901F90189526E8230F0296A11D6D
:10152000B11DD2CF1F920F920FB60F9211240BB69E
:101530000F922F933F934F935F936F937F938F936C
:101540009F93AF93BF93EF93FF9381E592E00E9447
:101550005E04FF91EF91BF91AF919F918F917F9129
:101560006F915F914F913F912F910F900BBE0F9014
:101570000FBE0F901F9018951F920F920FB60F92EB
:1015800011240BB60F922F933F934F935F936F935A
:101590007F938F939F93AF93BF93EF93FF9381E5D7
:1015A00092E00E94B803FF91EF91BF91AF919F919C
:1015B0008F917F916F915F914F913F912F910F90FC
:1015C0000BBE0F900FBE0F901F9018951F920F9299
:1015D0000FB60F9211240BB60F922F933F934F9398
:1015E0005F936F937F938F939F93AF93BF93EF938B
:1015F000FF938EEE92E00E945E04FF91EF91BF9107
:10160000AF919F918F917F916F915F914F913F919A
:101610002F910F900BBE0F900FBE0F901F9018953B
:101620001F920F920FB60F9211240BB60F922F93A9
:101630003F934F935F936F937F938F939F93AF935A
:10164000BF93EF93FF938EEE92E00E94B803FF9159
:10165000EF91BF91AF919F918F917F916F915F912A
:101660004F913F912F910F900BBE0F900FBE0F9097
:101670001F9018951F920F920FB60F9211240BB660
:101680000F922F933F934F935F936F937F938F931B
:101690009F93AF93BF93EF93FF938BE893E00E94E8
:1016A0005E04FF91EF91BF91AF919F918F917F91D8
:1016B0006F915F914F913F912F910F900BBE0F90C3
:1016C0000FBE0F901F9018951F920F920FB60F929A
:1016D00011240BB60F922F933F934F935F936F9309
:1016E0007F938F939F93AF93BF93EF93FF938BE879
:1016F00093E00E94B803FF91EF91BF91AF919F914A
:101700008F917F916F915F914F913F912F910F90AA
:101710000BBE0F900FBE0F901F901895E1E5F2E001
:101720001382128248EE53E060E070E044835583F8
:10173000668377838BE092E09183808325E331E0B9
:101740003587248724E331E03787268720E331E09B
:10175000318B208B21E331E0338B228B22E331E08C
:10176000358B248B26E331E0378B268B118E128E3E
:10177000138E148EEEEEF2E01382128244835583B0
:1017800066837783918380832DEC30E035872487CF
:101790002CEC30E03787268728EC30E0318B208B2B
:1017A00029EC30E0338B228B2AEC30E0358B248B14
:1017B0002EEC30E0378B268B118E128E138E148E0A
:1017C000EBE8F3E0138212824483558366837783C8
:1017D0009183808385EC90E09587848784EC90E00A
:1017E0009787868780EC90E0918B808B81EC90E0EE
:1017F000938B828B82EC90E0958B848B86EC90E0CF
:10180000978B868B118E128E138E148EECE4F4E07F
:101810001486158616861786108A118A128A138AEC
:10182000148A158A168A178A108E118E128E138EBC
:10183000148E158E168E178E10A211A212A213A24C
:1018400014A215A216A217A210A611A612A613A6DC
:1018500081E084A715A616A617A610AA11AA12AA97
:1018600013AA14AA15AA16AA17AA10AE11AE12AE80
:1018700013AE14AE15AE8DEC9CECACECBFE38083E4
:101880009183A283B3838FE892ECA5EFBCE38483BA
:101890009583A683B7838AE097EDA3E2BCE38087B4
:1018A0009187A287B387E6E4F4E089E290E0918330
:1018B000808381E390E09383828386E090E0958348
:1018C0008483E0E4F4E08DE290E09183808385E31B
:1018D00090E09383828384E090E095838483EAE3BD
:1018E000F4E085E290E0918380838DE190E0938342
:1018F000828388E090E095838483E4E3F4E087E2E8
:1019000090E0918380838FE190E09383828387E0EE
:1019100090E095838483EEE2F4E081E290E09183AD
:10192000808389E190E0938382838AE090E09583CD
:101930008483E8E2F4E083E290E0918380838BE1AA
:1019400090E09383828389E090E095838483089577
:10195000789484B5826084BD84B5816084BD85B58A
:10196000826085BD85B5816085BD80916E00816096
:1019700080936E001092810080918100826080933C
:10198000810080918100816080938100809180003E
:101990008160809380008091B10084608093B10069
:1019A0008091B00081608093B0008091910082604E
:1019B000809391008091910081608093910080914B
:1019C00090008160809390008091A100826080935C
:1019D000A1008091A10081608093A1008091A0006E
:1019E00081608093A0008091210182608093210119
:1019F000809121018160809321018091200181608B
:101A00008093200180917A00846080937A00809195
:101A10007A00826080937A0080917A00816080935E
:101A20007A0080917A00806880937A001092C100D9
:101A30008BE893E00E947D018EEE92E00E947D0192
:101A400081E592E00E947D018AE394E00E94160500
:101A500080E494E00E94160584E394E00E94160559
:101A600086E494E00E9416058EE294E00E9416053A
:101A700088E294E00E94160580E090E0A0EFB1E4D7
:101A80008093680490936904A0936A04B0936B04F4
:101A900080E090E0A0EFB1EC80936C0490936D0433
:101AA000A0936E04B0936F0480905C0490905D04EA
:101AB000A0905E04B0905F0420E030E0A901C50171
:101AC000B4010E94810FC0905004D0905104E09066
:101AD0005204F0905304882351F020E030E040E7B6
:101AE00052E4C501B4010E94E4111816CCF420E0C0
:101AF00030E0A901C701B6010E94810F882381F05F
:101B0000A701960160E070E080E792E40E943C113A
:101B10006093600470936104809362049093630403
:101B200080E090E0A0E2B1E480937A0490937B049B
:101B3000A0937C04B0937D044DEC5CEC6CEC7DE3F5
:101B400040938204509383046093840470938504CB
:101B500040E050E064EB72E44093860450938704C5
:101B6000609388047093890480935C0490935D046F
:101B7000A0935E04B0935F0420E030E0A901C701A8
:101B8000B6010E94810F882381F0A701960160E0D1
:101B900070E080E291E40E943C11609360047093D5
:101BA000610480936204909363041092580410922D
:101BB000590410925A0410925B0440904C045090C7
:101BC0004D0460904E0470904F0480917904809091
:101BD000540490905504A0905604B090570420E00F
:101BE00030E0A901882309F43DC0C301B2010E947D
:101BF000E411181664F477FA709477F870944092B0
:101C00004C0450924D0460924E0470924F0420E0B8
:101C100030E0A901C701B6010E94E411181664F46E
:101C2000F7FAF094F7F8F094C0925004D09251046F
:101C3000E0925204F092530420E030E0A901C50183
:101C4000B4010E94E4111816ECF5B7FAB094B7F895
:101C5000B0948092540490925504A0925604B0928D
:101C6000570430C0C301B2010E94810F87FF0CC02E
:101C700077FA709477F8709440924C0450924D0427
:101C800060924E0470924F0420E030E0A901C70139
:101C9000B6010E94810F87FF0CC0F7FAF094F7F8A5
:101CA000F094C0925004D0925104E0925204F09209
:101CB000530420E030E0A901C501B4010E94810F66
:101CC00087FDC3CFC1E00E94FE0580913A028111D9
:101CD0000CC00E947F03609336027093370280939A
:101CE000380290933902C0933A020E947F03C09059
:101CF0003602D0903702E0903802F09039026C1929
:101D00007D098E099F096B3071058105910508F4E5
:101D100052C060E78EEE92E00E9480040E944A0367
:101D20008EEE92E00E943404892B59F18EEE92E0FF
:101D30000E94E0038D3729F58EEE92E00E94E003C9
:101D4000D82E8EEE92E00E94E003E82E8EEE92E016
:101D50000E94E003F82E8EEE92E00E94E0034E2DEA
:101D600050E070E060E0BA01552744277D29482BF8
:101D70005F29409332025093330260933402709390
:101D800035028091320290913302A0913402B091D9
:101D900035028093420290934302A0934402B09391
:101DA00045020E947F03609336027093370280934E
:101DB0003802909339020E944A0380914202909126
:101DC0004302A0914402B0914502B7FF2AC068ECDB
:101DD00070E08AE394E00E94240568EC70E084E3FC
:101DE00094E00E94240568EC70E080E494E00E9496
:101DF000340568EC70E086E494E00E94340580913C
:101E0000420290914302A0914402B0914502A6FF84
:101E100005C062E781E592E00E9480040E94ED0423
:101E200052CFA2FF19C068EC70E08AE394E00E94F0
:101E3000340568EC70E084E394E00E94340568ECBB
:101E400070E080E494E00E94240568EC70E086E491
:101E500094E00E942405D3CFB5FF04C085E70E941B
:101E60007F06CDCFB3FF02C084E6F9CFB4FF02C036
:101E70008CE6F5CFB2FF02C082E7F1CF60E080E0F0
:101E80000E944405C0930002BACF1F93FC0199271A
:101E90008827BC01E89411911032E9F3193010F051
:101EA0001E30C8F31B3251F01D3249F4689406C04D
:101EB0000E946C0F610F711D811D911D11911053B6
:101EC0001A30B0F33EF490958095709561957F4FF0
:101ED0008F4F9F4F1F910895592F482F372F262F2F
:101EE000660F771F881F991F660F771F881F991F1E
:101EF000620F731F841F951F660F771F881F991F1E
:101F000008950E94C30F08F481E00895E89409C081
:101F100097FB3EF490958095709561957F4F8F4F1C
:101F20009F4F9923A9F0F92F96E9BB279395F69532
:101F3000879577956795B795F111F8CFFAF4BB0FB0
:101F400011F460FF1BC06F5F7F4F8F4F9F4F16C014
:101F5000882311F096E911C0772321F09EE8872F9E
:101F6000762F05C0662371F096E8862F70E060E05A
:101F70002AF09A95660F771F881FDAF7880F9695D3
:101F8000879597F90895990F0008550FAA0BE0E877
:101F9000FEEF16161706E807F907C0F0121613062B
:101FA000E407F50798F0621B730B840B950B39F46B
:101FB0000A2661F0232B242B252B21F408950A26D1
:101FC00009F4A140A6958FEF811D811D08950E94FF
:101FD000FA0F0C946B100E945D1038F00E94641090
:101FE00020F0952311F00C9454100C945A101124E5
:101FF0000C949F100E947C1070F3959FC1F3950F75
:1020000050E0551F629FF001729FBB27F00DB11D7C
:10201000639FAA27F00DB11DAA1F649F6627B00D0C
:10202000A11D661F829F2227B00DA11D621F739FF5
:10203000B00DA11D621F839FA00D611D221F749F03
:102040003327A00D611D231F849F600D211D822F4A
:10205000762F6A2F11249F5750409AF0F1F0882371
:102060004AF0EE0FFF1FBB1F661F771F881F91509E
:102070005040A9F79E3F510580F00C9454100C94E9
:102080009F105F3FE4F3983ED4F38695779567956C
:10209000B795F795E7959F5FC1F7FE2B880F911DC8
:1020A0009695879597F9089597F99F6780E870E06E
:1020B00060E008959FEF80EC089500240A941616BE
:1020C000170618060906089500240A941216130626
:1020D000140605060895092E0394000C11F48823B4
:1020E00052F0BB0F40F4BF2B11F460FF04C06F5FD0
:1020F0007F4F8F4F9F4F089557FD9058440F551FA6
:1021000059F05F3F71F04795880F97FB991F61F079
:102110009F3F79F087950895121613061406551FF0
:10212000F2CF4695F1DF08C0161617061806991F5C
:10213000F1CF86957105610508940895E894BB2751
:1021400066277727CB0197F90895A1E21A2EAA1BDB
:10215000BB1BFD010DC0AA1FBB1FEE1FFF1FA21757
:10216000B307E407F50720F0A21BB30BE40BF50B54
:10217000661F771F881F991F1A9469F760957095DD
:10218000809590959B01AC01BD01CF010895EE0FA4
:10219000FF1F881F8BBF0790F691E02D19945058B0
:1021A000BB27AA270E94E7100C946B100E945D10B9
:1021B00038F00E94641020F039F49F3F19F426F49F
:1021C0000C945A100EF4E095E7FB0C945410E92F90
:1021D0000E947C1058F3BA176207730784079507AB
:1021E00020F079F4A6F50C949E100EF4E0950B2ED9
:1021F000BA2FA02D0B01B90190010C01CA01A00159
:102200001124FF27591B99F0593F50F4503E68F1B3
:102210001A16F040A22F232F342F4427585FF3CFF4
:10222000469537952795A795F0405395C9F77EF4C5
:102230001F16BA0B620B730B840BBAF09150A1F00E
:10224000FF0FBB1F661F771F881FC2F70EC0BA0F94
:10225000621F731F841F48F4879577956795B7951C
:10226000F7959E3F08F0B0CF9395880F08F0992717
:10227000EE0F9795879508950E9450110C946B105E
:102280000E94641058F00E945D1040F029F45F3FF6
:1022900029F00C94541051110C949F100C945A1066
:1022A0000E947C1068F39923B1F3552391F3951B99
:1022B000550BBB27AA2762177307840738F09F5F67
:1022C0005F4F220F331F441FAA1FA9F335D00E2ED4
:1022D0003AF0E0E832D091505040E695001CCAF741
:1022E0002BD0FE2F29D0660F771F881FBB1F261704
:1022F00037074807AB07B0E809F0BB0B802DBF01DB
:10230000FF2793585F4F3AF09E3F510578F00C94A9
:1023100054100C949F105F3FE4F3983ED4F38695DD
:1023200077956795B795F7959F5FC9F7880F911DCA
:102330009695879597F90895E1E0660F771F881FB6
:10234000BB1F621773078407BA0720F0621B730B69
:10235000840BBA0BEE1F88F7E09508950E94B51123
:102360006894B1110C949F1008950E94841088F015
:102370009F5798F0B92F9927B751B0F0E1F0660F49
:10238000771F881F991F1AF0BA95C9F714C0B1308A
:1023900091F00E949E10B1E008950C949E10672F5A
:1023A000782F8827B85F39F0B93FCCF386957795B9
:1023B0006795B395D9F73EF49095809570956195A2
:1023C0007F4F8F4F9F4F08950E94C30F08F48FEFE8
:1023D00008950F931F93CF93DF938230910510F4EC
:1023E00082E090E0E0918C04F0918D0430E020E0F8
:1023F000B0E0A0E0309799F42115310509F44AC006
:10240000281B390B24303105D8F58A819B81611551
:10241000710589F1FB0193838283FE0111C0408124
:1024200051810281138148175907E0F04817590775
:1024300099F4109761F012960C93129713961C93CF
:102440003296CF01DF91CF911F910F9108950093A4
:102450008C0410938D04F4CF2115310551F04217EF
:10246000530738F0A901DB019A01BD01DF01F80132
:10247000C1CFEF01F9CF90938D0480938C04CDCF21
:10248000FE01E20FF31F81939193225031093983AA
:102490002883D7CF20918A0430918B04232B41F4D9
:1024A000209103023091040230938B0420938A041C
:1024B00020910102309102022115310541F42DB71E
:1024C0003EB74091050250910602241B350BE09166
:1024D0008A04F0918B04E217F307A0F42E1B3F0B44
:1024E0002817390778F0AC014E5F5F4F2417350786
:1024F00048F04E0F5F1F50938B0440938A048193E2
:1025000091939FCFF0E0E0E09CCFCF93DF930097D3
:10251000E9F0FC01329713821282A0918C04B091F1
:102520008D04ED0130E020E01097A1F4208131818D
:10253000820F931F20918A0430918B04281739074A
:1025400009F061C0F0938B04E0938A04DF91CF918E
:102550000895EA01CE17DF07E8F54A815B819E0105
:1025600041155105B1F7E901FB83EA83499159917E
:10257000C40FD51FEC17FD0761F48081918102968D
:10258000840F951FE90199838883828193819B83BE
:102590008A83F0E0E0E012968D919C91139700976A
:1025A000B9F52D913C911197CD010296820F931FA1
:1025B00020918A0430918B042817390739F6309717
:1025C00051F510928D0410928C04B0938B04A0935B
:1025D0008A04BCCFD383C28340815181840F951F6D
:1025E000C817D90761F44E5F5F4F88819981480F02
:1025F000591F518340838A819B8193838283211554
:10260000310509F0B0CFF0938D04E0938C049ECF98
:10261000FD01DC01C0CF13821282D7CF4F925F92AF
:102620006F927F928F929F92AF92BF92CF92DF92E2
:10263000EF92FF920F931F93CF93DF938C0100973C
:1026400099F4CB01DF91CF911F910F91FF90EF9003
:10265000DF90CF90BF90AF909F908F907F906F90C2
:102660005F904F900C94E911FC01E60FF71F9C015D
:1026700022503109E217F30708F4AEC0D901CD9119
:10268000DC911197C617D70720F1C530D10578F036
:10269000CE0104978617970750F0C61BD70B2297D9
:1026A000C193D1936D937C93CF010E948512C80191
:1026B000DF91CF911F910F91FF90EF90DF90CF901E
:1026C000BF90AF909F908F907F906F905F904F9052
:1026D00008955B01AC1ABD0A4C018C0E9D1EA091A1
:1026E0008C04B0918D04512C412CF12CE12C1097CD
:1026F00031F580918A0490918B048815990509F031
:102700005CC04616570608F058C0809101029091AF
:102710000202009741F48DB79EB740910502509197
:102720000602841B950BE817F90708F055C0F093D3
:102730008B04E0938A04F90171836083B8CF8D9193
:102740009C91119712966C90129713967C90139708
:10275000A815B90559F56C0142E0C40ED11CCA1484
:10276000DB0420F1AC014A195B09DA0112961597D6
:1027700080F06282738251834083D9016D937C9390
:10278000E114F10471F0D7011396FC93EE931297C4
:102790008ECF22968C0F9D1FF90191838083F301C8
:1027A000EFCFF0938D04E0938C0481CF4816590647
:1027B00008F42C017D01D3019ACFCB010E94E911CD
:1027C0007C01009749F0AE01B8010E94EF13C801E7
:1027D0000E94851287016BCF10E000E068CFFB01FB
:1027E000DC0102C001900D9241505040D8F708958D
:1027F000FB01DC0101900D920020E1F70895F894AF
:02280000FFCF08
:102802000100008E0480000000000080048B03D1D0
:1028120003CD043404E0032604676574206E6577F3
:1028220020736574706F696E74000D0A00200000D9
:00000001FF
