:100000000C945B010C945E100C9433100C9408104B
:100010000C94DD0F0C94B20F0C94870F0C945C0FB2
:100020000C94310F0C948C010C948C010C948C0169
:100030000C948C010C948C010C948C010C948C010C
:100040000C948C010C9463120C948C010C948C0114
:100050000C948C010C948C010C948C010C94E70E84
:100060000C948C010C94AF110C9485110C948C01A0
:100070000C948C010C948C010C948C010C948C01CC
:100080000C9435120C948C010C948C010C948C0102
:100090000C945B110C9431110C948C010C948C0118
:1000A0000C948C010C948C010C9407120C948C0110
:1000B0000C948C010C948C010C948C010C94D9112F
:1000C0000C948C010C948C010C948C010C940711F1
:1000D0000C94DD100C948C010C94B3100C948910CA
:1000E0000C948C010C94F2010C9413020C94F40205
:1000F0000C9445050C9449040C9440030C94E702BD
:100100000C9406020C942C030C941A030C94E50135
:100110000C9463030C94E1010C94E9030C949D048A
:100120000C9481030C9418020C94EE010C941402AC
:100130000C94F8010C9408030C946D030C948F0438
:100140000C94DD010C9459030C94D3010C94F4032A
:100150000C94E8010C94EF020C9436030C94770392
:100160000C943A040C9400020C944F030C94F30387
:100170000C9491120C940E020C94D9010C94FE0272
:100180000C94F3040C94FC010C9412030C940A02DA
:100190000C94220300002100240027002A002D00D7
:1001A0003000330001010000040107010A010000D2
:1001B0002200250028002B002E003100340002010F
:1001C0000000050108010B010000200023002600AB
:1001D00029002C002F00320000010000030106015D
:1001E00009010505050507050808080802020202BD
:1001F0000A0A0808040404040101010101010101C3
:100200000303030303030303040707070C0C0C0C8D
:100210000C0C0C0C02020202060606060606060676
:100220000B0B0B0B0B0B0B0B010210202008081003
:100230002040102040800201020108040201010256
:10024000040810204080804020100804020180042F
:10025000020180402010080402010804020101028A
:100260000408102040800102040810204080000093
:100270000A0B02090C0D0E08070304010000000020
:10028000000000000000000000000000000000006E
:10029000000000000000000000001211100000002B
:1002A000000000000000000000000000000000004E
:1002B00000000000911211241FBECFEFD1E2DEBF7B
:1002C000CDBF00E00CBF12E0A0E0B2E0EAE2F0E453
:1002D00000E00BBF02C007900D92A03CB107D9F718
:1002E00026E0A0ECB2E001C01D92AB38B207E1F706
:1002F00011E0CBE5D1E000E006C021970109802F95
:10030000FE010E94DB1CCA35D10780E00807A9F76F
:100310000E94AE140C9413200C940000FC01A089E0
:10032000B18982E08C93A485B5851C92A685B7859A
:1003300080E18C93108EA489B58986E08C93A28984
:10034000B3898C9180618C93A289B3898C918860E8
:100350008C93A289B3898C9180688C930288F389ED
:10036000E02D80818F7D808308958150823108F057
:100370005AC0E82FF0E08827EF53FE4F8F4F0C94C0
:10038000DB1CE101E501D301D901DD011302E80124
:10039000EE01F201F801FC01000206020A0213025A
:1003A0000E0214021802809180008F7780938000E3
:1003B0000895809180008F7DF9CF80918000877FA4
:1003C000F5CF84B58F7784BD089584B58F7DFBCF3D
:1003D0008091B0008F778093B00008958091B00035
:1003E0008F7DF9CF809190008F7780939000089552
:1003F000809190008F7DF9CF80919000877FF5CF1D
:100400008091A0008F778093A00008958091A00034
:100410008F7DF9CF8091A000877FF5CF809120015B
:100420008F77809320010895809120018F7DF9CFEF
:1004300080912001877FF5CFCF93DF93282F30E085
:10044000F901E259FD4F8491F901E85DFD4FD49126
:10045000F901EE51FE4FC491CC23A1F081110E940D
:10046000B501EC2FF0E0EE0FFF1FE853FE4FA59112
:10047000B491EC91ED2381E090E009F480E0DF910C
:10048000CF91089580E090E0FACF1F93CF93DF9350
:10049000282F30E0F901E259FD4F8491F901E85D20
:1004A000FD4FD491F901EE51FE4FC491CC23A9F038
:1004B000162F81110E94B501EC2FF0E0EE0FFF1F07
:1004C000E255FE4FA591B4918FB7F894EC911111BC
:1004D00008C0D095DE23DC938FBFDF91CF911F91B1
:1004E0000895DE2BF8CFCF93DF9390E0FC01E85D19
:1004F000FD4F24918E519E4FFC0184918823C9F0B9
:1005000090E0880F991FFC01EC56FE4FA591B49125
:10051000FC01E255FE4FC591D49161110DC09FB70A
:10052000F8948C91209582238C93888128232883AA
:100530009FBFDF91CF910895623051F49FB7F89437
:100540003C91822F809583238C93E8812E2BEFCFD3
:100550008FB7F894EC912E2B2C938FBFEACF1F937B
:10056000CF93DF93182FEB0161E00E947302209775
:1005700039F460E0812FDF91CF911F910C944502F7
:10058000CF3FD10511F461E0F5CFE12FF0E0E25962
:10059000FD4FE491E150E23108F0B3C0F0E088276C
:1005A000EB52FD4F8F4F0C94DB1CE702EF02F4027D
:1005B000FE020803810312031A0322032C033603ED
:1005C00040034F035903810363036D03770384B52D
:1005D000806884BDC7BDDF91CF911F91089584B518
:1005E000806284BDC8BDF7CF809180008068809311
:1005F0008000D0938900C0938800EDCF8091800067
:10060000806280938000D0938B00C0938A00E3CFF8
:1006100080918000886080938000D0938D00C0938B
:100620008C00D9CF8091B00080688093B000C093D7
:10063000B300D1CF8091B00080628093B000C093AE
:10064000B400C9CF80919000806880939000D093CF
:100650009900C0939800BFCF8091900080628093F2
:100660009000D0939B00C0939A00B5CF80919000EA
:10067000886080939000D0939D00C0939C00ABCF86
:100680008091A00080688093A0008091A0008F7B63
:100690008093A000D093A900C093A8009CCF809124
:1006A000A00080628093A000D093AB00C093AA000A
:1006B00092CF8091A00088608093A000D093AD007D
:1006C000C093AC0088CF8091200180688093200186
:1006D000D0932901C09328017ECF809120018062B0
:1006E00080932001D0932B01C0932A0174CF809175
:1006F0002001886080932001D0932D01C0932C01AC
:100700006ACFC038D1050CF03ECF33CF3FB7F89455
:100710008091FF0290910003A0910103B091020328
:1007200026B5A89B05C02F3F19F00196A11DB11D4C
:100730003FBFBA2FA92F982F8827BC01CD01620F88
:10074000711D811D911D42E0660F771F881F991F43
:100750004A95D1F708958F929F92AF92BF92CF9210
:10076000DF92EF92FF924B015C010E9486036B01C6
:100770007C010E9486036C197D098E099F09683EE1
:10078000734081059105A8F321E0821A9108A10820
:10079000B10888EEC80E83E0D81EE11CF11C81145C
:1007A0009104A104B10429F7FF90EF90DF90CF905E
:1007B000BF90AF909F908F9008952FB7F89460915D
:1007C000FB027091FC028091FD029091FE022FBF0E
:1007D00008958091F8029091F90201969093F902A0
:1007E0008093F80208950895AF92BF92CF92DF925E
:1007F000EF92FF920F931F93CF93DF936C017B01D6
:100800008B01040F151FEB015E01AE18BF08C01766
:10081000D10759F06991D601ED91FC910190F081D9
:10082000E02DC6011995892B79F7C501DF91CF918C
:100830001F910F91FF90EF90DF90CF90BF90AF90FE
:100840000895FC01A089B1898C91A689B78982FDA0
:100850000FC09C91818D8F5F8F73228D821749F01D
:10086000A18DAE0FBF2FB11D5D969C93818F089512
:100870008C910895FC01538D448D252F30E0842FF9
:1008800090E0821B930B541710F0CF9608950197B8
:100890000895FC01918D828D981761F0A28DAE0FA5
:1008A000BF2FB11D5D968C91928D9F5F9F73928F2C
:1008B00090E008958FEF9FEF08950F931F930E948C
:1008C000DD036093220370932303809324039093AA
:1008D00025038AE193E00E94490497FF1DC00E940E
:1008E000DD03009122031091230320912403309112
:1008F0002503601B710B820B930B00911E0310915B
:100900001F03209120033091210360177107820794
:100910009307F8F28FEF9FEF1F910F910895FC015D
:10092000918D828D981731F0828DE80FF11D858DA4
:1009300090E008958FEF9FEF0895FC01918D228D37
:10094000892F90E0805C9F4F821B91098F739927BC
:1009500008958AE193E00E949D0421E0892B09F427
:1009600020E0822F089587EB93E00E949D0421E010
:10097000892B09F420E0822F089584E594E00E94F9
:100980009D0421E0892B09F420E0822F089581EF56
:1009900094E00E949D0421E0892B09F420E0822F3D
:1009A0000895FC01A48DA80FB92FB11DA35ABF4F04
:1009B0002C91848D90E001968F739927848FA6895E
:1009C000B7892C93A089B1898C91837080648C93B2
:1009D000938D848D981306C00288F389E02D808161
:1009E0008F7D80830895EF92FF920F931F93CF9393
:1009F000DF93EC0181E0888F9B8D8C8D98131AC05A
:100A0000E889F989808185FF15C09FB7F894EE8940
:100A1000FF896083E889F98980818370806480839D
:100A20009FBF81E090E0DF91CF911F910F91FF90E8
:100A3000EF900895F62E0B8D10E00F5F1F4F0F7390
:100A40001127E02E8C8D8E110CC00FB607FCFACF4B
:100A5000E889F989808185FFF5CFCE010E94D10414
:100A6000F1CFEB8DEC0FFD2FF11DE35AFF4FF0821C
:100A70009FB7F8940B8FEA89FB8980818062CFCF82
:100A8000682F87EB93E00C94F304CF93DF93EC0192
:100A9000888D8823B9F0AA89BB89E889F9898C9166
:100AA00085FD03C0808186FD0DC00FB607FCF7CF22
:100AB0008C9185FFF2CF808185FFEDCFCE010E9422
:100AC000D104E9CFDF91CF91089580E090E0892BA8
:100AD00029F00E94C70481110E94000080E090E08C
:100AE000892B29F00E94BD0481110E94000080E042
:100AF00090E0892B29F00E94B30481110E9400002C
:100B000080E090E0892B29F00E94A90481110C94C7
:100B1000000008958F929F92AF92BF92FF920F9321
:100B20001F93CF93DF93FC01F0808FE28F1508F4C1
:100B30004FC0828108E512E0081B110987FD13955B
:100B4000000F111F000F111F8181C8E8D0E0C81BE2
:100B5000D10987FDD395CC0FDD1FCC0FDD1F4E01D2
:100B60000D2E000CAA08BB08DB01653B710514F0D3
:100B7000A4EBB0E09801012E000C440B550B281992
:100B800039094A095B090E94961C24EB30E040E0D9
:100B900050E00E946C1C820E931EA41EB51E8C1683
:100BA0009D062CF0E801801691060CF4E4012297D2
:100BB000CC0FDD1F2FB7F8948F2D90E0FC01EE0FC6
:100BC000FF1FE80FF91FEC51FA4FD283C1832FBFEB
:100BD000DF91CF911F910F91FF90BF90AF909F90A9
:100BE0008F9008958130910581F41092800082E009
:100BF000809381001092850010928400B19A8091B8
:100C00006F00826080936F0008958230910569F4CF
:100C10001092900082E080939100109295001092C3
:100C2000940088BB8093710008958330910569F426
:100C30001092A00082E08093A1001092A500109273
:100C4000A40089BB809372000895892B61F41092EF
:100C5000200182E08093210110922501109224014D
:100C60008ABB809373000895AF92BF92CF92DF92B8
:100C7000EF92FF920F931F93CF93DF936B017A0153
:100C8000EC01C252DD4F28813CE0389F8001399F42
:100C9000100D1124A0907406B12C27FF1FC0FB017A
:100CA0001182108288818F5F888388819801280F44
:100CB000311D87FD3A95F6012A153B051CF4888104
:100CC0008C30C4F180819181049680349C4908F471
:100CD00073C0F60180819181049670C0888198016B
:100CE000280F311D87FD3A952A153B05DCF68881D2
:100CF000A801480F511D87FD5A95FA01EE0FFF1FFD
:100D0000E40FF51FEC51FA4F808186FFCBCF88812D
:100D1000F801E80FF11D87FDFA95CF01EE0FFF1FD7
:100D2000E80FF91FEC51FA4F808160E08F730E9449
:100D30004502B8CF808191812881A801420F511DC1
:100D400027FD5A959A01FA01EE0FFF1FE20FF31FDC
:100D5000EC51FA4F21813281820F931FF701918369
:100D6000808388819801280F311D87FD3A95F9010C
:100D7000EE0FFF1FE20FF31FEC51FA4F808186FF49
:100D800022C08881080F111D87FD1A95F801EE0F0A
:100D9000FF1FE00FF11FEC51FA4F808161E08F736C
:100DA000DF91CF911F910F91FF90EF90DF90CF9047
:100DB000BF90AF900C94450280E49CE9F7019183C9
:100DC00080838FEF8883DF91CF911F910F91FF90E8
:100DD000EF90DF90CF90BF90AF900895CF92DF92C9
:100DE000EF92FF928091D60281110DC00E94DD0327
:100DF0006093D2027093D3028093D4029093D50271
:100E000081E08093D602C090D202D090D302E090CD
:100E1000D402F090D5028091EC0281112BC00E9487
:100E2000DD036C197D098E099F09693C71058105F7
:100E3000910580F08091000291E089278093000263
:100E40000E94DD036093D2027093D3028093D40298
:100E50009093D502809100026EE170E0811102C092
:100E600062E370E08EE796E0FF90EF90DF90CF9026
:100E70000C948A050E94DD036C197D098E099F0977
:100E8000693C71058105910580F08091000291E037
:100E90008927809300020E94DD036093D202709341
:100EA000D3028093D4029093D5028091000262E82D
:100EB00070E08111D7CF66E970E0D4CF0F931F9314
:100EC000CF93DF938091CA0281110DC00E94DD0390
:100ED0006093C6027093C7028093C8029093C902C0
:100EE00081E08093CA020E94DD030091C602109146
:100EF000C7022091C8023091C902601B710B820B9E
:100F0000930B6B3071058105910508F456C060E7BD
:100F100084E594E00E94F30462E070E080E090E0F9
:100F20000E94AB0384E594E00E949D04892B59F153
:100F300084E594E00E9449048D3729F584E594E026
:100F40000E944904182F84E594E00E944904C82FA8
:100F500084E594E00E944904D82F84E594E00E943F
:100F600049044C2F50E070E060E0BA015527442757
:100F7000712B482B5D2B4093C2025093C3026093A8
:100F8000C4027093C5028091C2029091C302A091E5
:100F9000C402B091C5028093F4029093F502A0932D
:100FA000F602B093F7020E94DD036093C6027093CD
:100FB000C7028093C8029093C902DF91CF911F911D
:100FC0000F910895CF93DF93EC0161E088810E9437
:100FD000730261E08A810E94730261E08C81DF917B
:100FE000CF910C947302CF93DF93EC018C810E941C
:100FF000AF0260E088810E94450261E08A81DF9152
:10100000CF910C944502CF93DF93EC018C810E9429
:10101000AF0261E088810E94450260E08A81DF9131
:10102000CF910C9445021F93CF93DF93182FC82FB5
:10103000D0E0BE0184E995E00E940308BE018EE87D
:1010400095E00E940308BE018AE995E00E94F3073B
:10105000BE016C5E7F4F1C3E10F06FEF70E080EAC7
:1010600095E0DF91CF911F910C94F307CF93DF931D
:10107000EC01698181E0682788810E9445021A821B
:10108000DF91CF910895FC0101900020E9F731979D
:10109000AF01481B590BBC0181EF94E00C94F403A1
:1010A000CF93DF930E944308EC0181E392E00E941A
:1010B00043088C0F9D1FDF91CF910895FF920F93EE
:1010C0001F93CF93DF93F82E062FC82FD0E0BE01D9
:1010D00084E995E00E94030810E0B8018EE895E0ED
:1010E0000E94F307B8018AE995E00E94F3078BEEAE
:1010F000BE016C5E7F4F8F1510F46FEF70E080EAD9
:1011000095E00E94030884E392E0DF91CF911F9164
:101110000F91FF900C945008FF920F931F93CF9361
:10112000DF93F82E062FC82FD0E0BE0184E995E0AA
:101130000E94F30710E0B8018EE895E00E940308D2
:10114000B8018AE995E00E9403088BEEBE016C5E4F
:101150007F4F8F1510F46FEF70E080EA95E00E94EA
:10116000F3078DE392E0DF91CF911F910F91FF90F4
:101170000C9450081F93CF93DF93162FC82FD0E005
:10118000BE0184E995E00E94F307BE018EE895E078
:101190000E94F307C12FD0E0BE018AE995E00E94CA
:1011A000F307BE016C5E7F4F1C3E10F06FEF70E0E6
:1011B00080EA95E00E94F30785E492E0DF91CF9109
:1011C0001F910C9450081F93CF93DF93162FC82FB5
:1011D000D0E0BE0184E995E00E940308BE018EE8DC
:1011E00095E00E940308C12FD0E0BE018AE995E096
:1011F0000E940308BE016C5E7F4F1C3E10F06FEF33
:1012000070E080EA95E00E9403088DE492E0DF91AF
:10121000CF911F910C9450080F931F93CF93C82F19
:1012200080910303882381F0109203030E94DD0361
:101230006093040370930503809306039093070360
:1012400083E592E00E9450080E94DD0300910403B0
:10125000109105032091060330910703601B710B69
:10126000820B930B683C710581059105F8F4C53735
:1012700039F462E882E8CF911F910F910C94BA087B
:1012800062E882E8C436A1F0CC3639F462E882E83C
:10129000CF911F910F910C945E08C23771F462E8F0
:1012A00082E8CF911F910F910C948C0860E080E050
:1012B000CF911F910F910C94E308CF911F910F9143
:1012C00008950F931F93CF93DF93EC018881998149
:1012D000009759F02A813B812617370730F081E0CB
:1012E000DF91CF911F910F9108958B016F5F7F4F19
:1012F0000E94221F009759F0998388831B830A83D9
:101300002C813D81232B59F7FC011082E8CF80E02E
:10131000E7CFCF93DF93CDB7DEB7A1970FB6F894A1
:10132000DEBF0FBECDBF8091860619A2805D88A367
:10133000CE0180960E94430881E392E00E94430818
:1013400080918606882369F084E896E00E9436083A
:10135000A1960FB6F894DEBF0FBECDBFDF91CF913F
:10136000089560918506809184060E94450281E07F
:1013700080938606EDCFEF92FF920F931F93CF934A
:10138000DF9300D000D01F921F92CDB7DEB78AE165
:1013900093E00E949D04E090C002F090C102892B6E
:1013A00009F45CC01A8219821C821B821E821D8273
:1013B00070E060E0CE0101960E94610929813A81C6
:1013C00081112EC02115310519F0C9010E94991E05
:1013D0001A8219821E821D821C821B820E945D0459
:1013E00097FD26C08D37910519F18F8318860D81E1
:1013F0001E810F5F1F4FB801CE0101960E94610947
:10140000882361F329813A818D819E81BE01695FC4
:101410007F4F820F931F0E940C201E830D83DECF0F
:101420001E821D8263E372E0C9010E940C20D6CFA8
:1014300009811A8160E070E0CB010115110519F0F6
:10144000C8010E940C1B7B017093C1026093C00213
:101450000115110519F0C8010E94991EC7012896AF
:101460000FB6F894DEBF0FBECDBFDF91CF911F91B5
:101470000F91FF90EF9008952F923F924F925F92BD
:101480006F927F928F929F92AF92BF92CF92DF9294
:10149000EF92FF920F931F93CF93DF93CDB7DEB7F9
:1014A0006F970FB6F894DEBF0FBECDBF282E6F8B9F
:1014B0008A013A8329838091120381110DC00E9411
:1014C000DD0360930E0370930F03809310039093DA
:1014D000110381E080931203D8018C918823B9F124
:1014E0000E94BB0990930D0380930C03BC01990FDC
:1014F000880B990B0E944F1B6093CA057093CB0514
:101500008093CC059093CD05F801108281E0809303
:10151000D2051092BE051092BF051092C005109220
:10152000C10589E592E00E9450080E94DD036093A6
:101530000E0370930F038093100390931103809117
:1015400008039091090390930B0380930A03C090C2
:101550000E03D0900F03E0901003F0901103CB8A9C
:10156000DC8AED8AFE8AA981BA818C91882339F1BF
:1015700000910A0310910B030E94DD039B01AC0153
:101580002C193D094E095F09D8010E948B1C20E9E6
:1015900031E040E050E00E946C1C021B130B17FD71
:1015A00008C0312C021513050CF418012114310464
:1015B00019F5E981FA811082312C212C1DC00E947D
:1015C000DD039B01AC01CB88DC88ED88FE882C19FB
:1015D0003D094E095F09A22DB0E00E948B1C22E359
:1015E00030E040E050E00E946C1C37FDE5CF312C2C
:1015F000221533050CF419013092090320920803D7
:1016000060910C0370910D03072E000C880B990B51
:101610000E944F1B8B018D8399830E94BB09BC01E3
:10162000990F880B990B0E944F1B6B017C01C8011D
:10163000AD81B9818093CA059093CB05A093CC0569
:10164000B093CD058090E0059090E105A090E20573
:10165000B090E30520E030E0A901C501B4010E948B
:10166000481B882331F1A5019401C701B6010E94EE
:10167000E41C2B013C019B01AC01B8018D819981D7
:101680000E94F81D18160CF43DC1A5019401C70174
:10169000B6010E94E31C4B015C019B01AC01B80147
:1016A0008D8199810E94481B87FF03C08401AD8210
:1016B000B982A7019601B8018D8199810E94E31C2E
:1016C0006F87788B898B9A8B2091B2053091B30507
:1016D0004091B4055091B505B8018D8199810E9462
:1016E000AE1B4B015C012091A6053091A7054091EE
:1016F000A8055091A9056F85788989899A890E94E2
:10170000AE1B9B01AC01C501B4010E94E41C4B015E
:101710005C018091D205882391F0C092CE05D092D1
:10172000CF05E092D005F092D1058092D805909235
:10173000D905A092DA05B092DB051092D20540904F
:10174000AE055090AF056090B0057090B10577FA86
:10175000709477F870942091CE053091CF05409128
:10176000D0055091D105C701B6010E94E31C9B0131
:10177000AC01C301B2010E94AE1B6D837E838F83D7
:101780009887C092CE05D092CF05E092D005F09216
:10179000D105E090BE05F090BF050091C005109105
:1017A000C105E88EF98E0A8F1B8F2091AA05309112
:1017B000AB054091AC055091AD05C801B7010E9441
:1017C000AE1B6B017C014090B6055090B705609050
:1017D000B8057090B90520E030E0A901C301B2015D
:1017E0000E94481B8823E1F0A3019201B601C701C2
:1017F0000E94F81D18160CF489C09301820130581C
:1018000009831A832B833C83A9019801B601C70180
:101810000E94481B87FF04C0C980DA80EB80FC80EF
:10182000A5019401B601C7010E94E41C2D813E81EF
:101830004F8158850E94E41C6B017C011091C60504
:1018400019830091C7050D831091C8051987009170
:10185000C9050A871091C2051B870091C3050C8733
:101860001091C4051D870091C5050E872B853C8509
:10187000412F502F69817D8189859A850E94481B5F
:101880008090D4059090D505A090D605B090D7054E
:101890008823A9F029813D8149855A85B601C70170
:1018A0000E94F81D18160CF060C02B853C85412F56
:1018B000502FB601C7010E94481B87FF56C020E089
:1018C00030E0A901C501B4010E94481B811121C06B
:1018D000288D398D4A8D5B8D6F85788989899A89A4
:1018E0000E94E41C8B01888F9F8720E030E0A901D3
:1018F000C301B2010E94481B811144C0C801A88DD8
:10190000BF8537C082016D827982D3CE62017301B7
:1019100087CF0091D8051091D9052091DA05309133
:10192000DB050C8F1D8F2E8F3F8FA50194016C8DD1
:101930007D8D8E8D9F8D0E94E31C9B01AC01B601B5
:10194000C7010E94F81D181684F42C8D3D8D4E8D14
:101950005F8DC501B4010E94E41C9B01AC01B6017E
:10196000C7010E94481B87FDB3CF8F859889A9893D
:10197000BA898093BE059093BF05A093C005B0932C
:10198000C10529C04090BA055090BB056090BC05C8
:101990007090BD059801488D5F85C301B2010E941A
:1019A000481B87FD10C077FA709477F870949801FF
:1019B000488D5F85C301B2010E94F81D18161CF006
:1019C0002801688C7F844092BE055092BF056092CA
:1019D000C0057092C10520E030E0A901C501B40145
:1019E0000E94481B882369F14090D8055090D90582
:1019F0006090DA057090DB05A3019201C501B40186
:101A00000E94E41C8B01888F9F879B01AC01B6016B
:101A1000C7010E94F81D18168CF0A5019401C3019E
:101A2000B2010E94E31C8B01888F9F879B01AC0150
:101A3000B601C7010E94481B87FF03C06801E88CFC
:101A4000FF842B853C854D855E8569817D818985F7
:101A50009A850E94481B8823C1F09601A7016B85D7
:101A60007C858D859E850E94481B87FD8FC09601D1
:101A7000A70169817D8189859A850E94F81D1816C4
:101A800024F4C980DD80E984FA848090DC0590909C
:101A9000DD05A090DE05B090DF0520E030E0A90173
:101AA000C501B4010E94481B882301F1A5019401DE
:101AB00060E070E080E89FE30E94E31C9601A701CC
:101AC0000E94AE1B6B017C012091D8053091D90595
:101AD0004091DA055091DB05C501B4010E94AE1BAF
:101AE000A70196010E94E41C6B017C01C601D7018D
:101AF0008093D8059093D905A093DA05B093DB05C0
:101B0000B601C7010E94C21D6101C60ED71EDA824E
:101B1000C98286010F3F110529F024F00FEF10E074
:101B20001A830983C980DA80D7FE02C01A8219821B
:101B30008101061B170B0F3F110519F014F00FEF71
:101B400010E017FF02C010E000E00E94DD032F89C3
:101B5000253709F5602F89816F960FB6F894DEBF9F
:101B60000FBECDBFDF91CF911F910F91FF90EF90EE
:101B7000DF90CF90BF90AF909F908F907F906F90AD
:101B80005F904F903F902F900C94E308CB84DC84BF
:101B9000ED84FE847ACF3F89343609F062C09B0120
:101BA000AC01CB88DC88ED88FE882C193D094E09F4
:101BB0005F09AEE1B0E00E948B1C24EF31E040E011
:101BC00050E00E946C1C8EE190E07C01E21AF30A66
:101BD0002FE1E216F1041CF09EE1E92EF12CF7FE54
:101BE00002C0F12CE12CB7010F2C000C880B990BD3
:101BF0000E944F1B2DEC3CEC4CE45EE30E94AE1BBC
:101C00004B015C01C980DA80B601DD0C880B990BB1
:101C10000E944F1B9B01AC01C501B4010E94E41C52
:101C20000E94C91DC8018E199F0997FD80E06F961B
:101C30000FB6F894DEBF0FBECDBFDF91CF911F91DD
:101C40000F91FF90EF90DF90CF90BF90AF909F905B
:101C50008F907F906F905F904F903F902F900C945B
:101C6000BA082F892C36E1F46981802F6F960FB660
:101C7000F894DEBF0FBECDBFDF91CF911F910F91C2
:101C8000FF90EF90DF90CF90BF90AF909F908F909C
:101C90007F906F905F904F903F902F900C948C08A6
:101CA0003F89323709F07AC00E94DD039B01AC0105
:101CB000CB88DC88ED88FE882C193D094E095F0928
:101CC000A2E3B0E00E948B1C24EF31E040E050E042
:101CD0000E946C1C82E390E07C01E21AF30A23E389
:101CE000E216F1041CF082E3E82EF12CF7FE02C0AC
:101CF000F12CE12CB7010F2C000C880B990B0E94E2
:101D00004F1B20E030E040E05FE30E94AE1B4B0140
:101D10005C01B801110F880B990B0E944F1B9B01AE
:101D2000AC01C501B4010E94E41C4B015C0120E040
:101D300030E0A9010E94481B60E087FD0FC020E051
:101D400030E04FE753E4C501B4010E94F81D6FEF86
:101D5000181624F0C501B4010E94C91D89819A8119
:101D60008E199F0997FD80E06F960FB6F894DEBF3D
:101D70000FBECDBFDF91CF911F910F91FF90EF90DC
:101D8000DF90CF90BF90AF909F908F907F906F909B
:101D90005F904F903F902F900C945E086F960FB617
:101DA000F894DEBF0FBECDBFDF91CF911F910F9191
:101DB000FF90EF90DF90CF90BF90AF909F908F906B
:101DC0007F906F905F904F903F902F9008951F925B
:101DD0000F920FB60F9211242F933F938F939F93DF
:101DE000AF93BF938091FB029091FC02A091FD0202
:101DF000B091FE023091FA0223E0230F2D3758F5FF
:101E00000196A11DB11D2093FA028093FB029093CD
:101E1000FC02A093FD02B093FE028091FF0290911C
:101E20000003A0910103B09102030196A11DB11D11
:101E30008093FF0290930003A0930103B0930203E9
:101E4000BF91AF919F918F913F912F910F900FBEB6
:101E50000F901F90189526E8230F0296A11DB11D23
:101E6000D2CF1F920F920FB60F9211240BB60F9282
:101E70002F933F934F935F936F937F938F939F9392
:101E8000AF93BF93EF93FF93E0910F02F091100295
:101E90001995FF91EF91BF91AF919F918F917F9194
:101EA0006F915F914F913F912F910F900BBE0F90CB
:101EB0000FBE0F901F9018951F920F920FB60F92A2
:101EC00011240BB60F922F933F934F935F936F9311
:101ED0007F938F939F93AF93BF93EF93FF93E09183
:101EE0000D02F0910E021995FF91EF91BF91AF9104
:101EF0009F918F917F916F915F914F913F912F9122
:101F00000F900BBE0F900FBE0F901F9018951F9251
:101F10000F920FB60F9211240BB60F922F933F938F
:101F20004F935F936F937F938F939F93AF93BF93E1
:101F3000EF93FF93E0910302F09104021995FF9152
:101F4000EF91BF91AF919F918F917F916F915F9131
:101F50004F913F912F910F900BBE0F900FBE0F909E
:101F60001F9018951F920F920FB60F9211240BB667
:101F70000F922F933F934F935F936F937F938F9322
:101F80009F93AF93BF93EF93FF93E0910102F09182
:101F900002021995FF91EF91BF91AF919F918F919F
:101FA0007F916F915F914F913F912F910F900BBE59
:101FB0000F900FBE0F901F9018951F920F920FB6A3
:101FC0000F9211240BB60F922F933F934F935F9371
:101FD0006F937F938F939F93AF93BF93EF93FF93F1
:101FE000E0910B02F0910C021995FF91EF91BF91D6
:101FF000AF919F918F917F916F915F914F913F91A1
:102000002F910F900BBE0F900FBE0F901F90189541
:102010001F920F920FB60F9211240BB60F922F93AF
:102020003F934F935F936F937F938F939F93AF9360
:10203000BF93EF93FF93E0910902F0910A02199583
:10204000FF91EF91BF91AF919F918F917F916F9190
:102050005F914F913F912F910F900BBE0F900FBE4C
:102060000F901F9018951F920F920FB60F92112488
:102070000BB60F922F933F934F935F936F937F9382
:102080008F939F93AF93BF93EF93FF93E0910702DA
:10209000F09108021995FF91EF91BF91AF919F9137
:1020A0008F917F916F915F914F913F912F910F9001
:1020B0000BBE0F900FBE0F901F9018951F920F929E
:1020C0000FB60F9211240BB60F922F933F934F939D
:1020D0005F936F937F938F939F93AF93BF93EF9390
:1020E000FF93E0910502F09106021995FF91EF919F
:1020F000BF91AF919F918F917F916F915F914F9120
:102100003F912F910F900BBE0F900FBE0F901F901D
:1021100018951F920F920FB60F9211240BB60F92C3
:102120002F933F934F935F936F937F938F939F93DF
:10213000AF93BF93EF93FF938AE193E00E94D104A2
:10214000FF91EF91BF91AF919F918F917F916F918F
:102150005F914F913F912F910F900BBE0F900FBE4B
:102160000F901F9018951F920F920FB60F92112487
:102170000BB60F922F933F934F935F936F937F9381
:102180008F939F93AF93BF93EF93FF938AE193E075
:102190000E942104FF91EF91BF91AF919F918F9188
:1021A0007F916F915F914F913F912F910F900BBE57
:1021B0000F900FBE0F901F9018951F920F920FB6A1
:1021C0000F9211240BB60F922F933F934F935F936F
:1021D0006F937F938F939F93AF93BF93EF93FF93EF
:1021E00087EB93E00E94D104FF91EF91BF91AF91F3
:1021F0009F918F917F916F915F914F913F912F911F
:102200000F900BBE0F900FBE0F901F9018951F924E
:102210000F920FB60F9211240BB60F922F933F938C
:102220004F935F936F937F938F939F93AF93BF93DE
:10223000EF93FF9387EB93E00E942104FF91EF91CE
:10224000BF91AF919F918F917F916F915F914F91CE
:102250003F912F910F900BBE0F900FBE0F901F90CC
:1022600018951F920F920FB60F9211240BB60F9272
:102270002F933F934F935F936F937F938F939F938E
:10228000AF93BF93EF93FF9384E594E00E94D10452
:10229000FF91EF91BF91AF919F918F917F916F913E
:1022A0005F914F913F912F910F900BBE0F900FBEFA
:1022B0000F901F9018951F920F920FB60F92112436
:1022C0000BB60F922F933F934F935F936F937F9330
:1022D0008F939F93AF93BF93EF93FF9384E594E025
:1022E0000E942104FF91EF91BF91AF919F918F9137
:1022F0007F916F915F914F913F912F910F900BBE06
:102300000F900FBE0F901F9018951F920F920FB64F
:102310000F9211240BB60F922F933F934F935F931D
:102320006F937F938F939F93AF93BF93EF93FF939D
:1023300081EF94E00E94D104FF91EF91BF91AF91A2
:102340009F918F917F916F915F914F913F912F91CD
:102350000F900BBE0F900FBE0F901F9018951F92FD
:102360000F920FB60F9211240BB60F922F933F933B
:102370004F935F936F937F938F939F93AF93BF938D
:10238000EF93FF9381EF94E00E942104FF91EF917E
:10239000BF91AF919F918F917F916F915F914F917D
:1023A0003F912F910F900BBE0F900FBE0F901F907B
:1023B00018951F920F920FB60F9211240BB60F9221
:1023C0002F933F934F935F936F937F938F939F933D
:1023D000AF93BF93EF93FF9348E251E064E271E063
:1023E00090E080E00E943406FF91EF91BF91AF91A1
:1023F0009F918F917F916F915F914F913F912F911D
:102400000F900BBE0F900FBE0F901F9018951F924C
:102410000F920FB60F9211240BB60F922F933F938A
:102420004F935F936F937F938F939F93AF93BF93DC
:10243000EF93FF9348EA50E064EA70E083E090E0B5
:102440000E943406FF91EF91BF91AF919F918F91C0
:102450007F916F915F914F913F912F910F900BBEA4
:102460000F900FBE0F901F9018951F920F920FB6EE
:102470000F9211240BB60F922F933F934F935F93BC
:102480006F937F938F939F93AF93BF93EF93FF933C
:1024900048E950E064E970E082E090E00E94340690
:1024A000FF91EF91BF91AF919F918F917F916F912C
:1024B0005F914F913F912F910F900BBE0F900FBEE8
:1024C0000F901F9018951F920F920FB60F92112424
:1024D0000BB60F922F933F934F935F936F937F931E
:1024E0008F939F93AF93BF93EF93FF9348E850E090
:1024F00064E870E081E090E00E943406FF91EF9183
:10250000BF91AF919F918F917F916F915F914F910B
:102510003F912F910F900BBE0F900FBE0F901F9009
:10252000189510921D0310921C0348EE53E060E0D2
:1025300070E040931E0350931F0360932003709339
:10254000210383E292E090931B0380931A0325E317
:1025500031E0309327032093260324E331E03093C6
:1025600029032093280320E331E030932B032093A9
:102570002A0321E331E030932D0320932C0322E33F
:1025800031E030932F0320932E0326E331E0309384
:1025900031032093300310923303109234031092CE
:1025A0003503109236031092BA031092B903409388
:1025B000BB035093BC036093BD037093BE03909321
:1025C000B8038093B70325ED30E03093C403209324
:1025D000C30324ED30E03093C6032093C50320ED00
:1025E00030E03093C8032093C70321ED30E03093EF
:1025F000CA032093C90322ED30E03093CC0320932B
:10260000CB0326ED30E03093CE032093CD03109220
:10261000D0031092D1031092D2031092D3031092E0
:1026200057041092560440935804509359046093F1
:102630005A0470935B0490935504809354042DECDA
:1026400030E030936104209360042CEC30E0309350
:1026500063042093620428EC30E0309365042093F7
:10266000640429EC30E030936704209366042AEC7C
:1026700030E030936904209368042EEC30E030930E
:102680006B0420936A0410926D0410926E041092F1
:102690006F04109270041092F4041092F3044093AB
:1026A000F5045093F6046093F7047093F804909344
:1026B000F2048093F10485EC90E09093FE04809303
:1026C000FD0484EC90E0909300058093FF0480EC7F
:1026D00090E0909302058093010581EC90E0909347
:1026E00004058093030582EC90E0909306058093A7
:1026F000050586EC90E090930805809307051092FD
:102700000A0510920B0510920C0510920D051092FF
:10271000B2051092B3051092B4051092B50510924F
:10272000B6051092B7051092B8051092B90510922F
:10273000BA051092BB051092BC051092BD0510920F
:10274000BE051092BF051092C0051092C1051092EF
:10275000C2051092C3051092C4051092C5051092CF
:10276000C6051092C7051092C8051092C9051092AF
:10277000CA051092CB051092CC051092CD0510928F
:10278000CE051092CF051092D0051092D10581E0B0
:102790008093D2051092D3051092D4051092D505DE
:1027A0001092D6051092D7051092D8051092D9052F
:1027B0001092DA051092DB051092DC051092DD050F
:1027C0001092DE051092DF051092E0051092E105EF
:1027D0001092E2051092E30583E393E3A3EDBFE3D8
:1027E0008093A6059093A705A093A805B093A9058B
:1027F0008DEC9CECACE4BEE38093AA059093AB0512
:10280000A093AC05B093AD058DEC9CECACECBDE3B6
:102810008093AE059093AF05A093B005B093B1053A
:1028200089E290E09093A1058093A00581E390E078
:102830009093A3058093A20586E090E09093A50570
:102840008093A4058DE290E090939B0580939A0578
:1028500085E390E090939D0580939C0584E090E053
:1028600090939F0580939E0585E290E09093950557
:10287000809394058DE190E0909397058093960561
:1028800088E090E0909399058093980587E290E026
:1028900090938F0580938E058FE190E09093910542
:1028A0008093900587E090E0909393058093920544
:1028B00080917406803308F049C091E0980F90939E
:1028C000740680937E0690E0FC01EE0FFF1FE80F78
:1028D000F91FEC51FA4F88EB9BE092838183809142
:1028E00074068033B8F591E0980F90937406809346
:1028F0007B0690E0FC01EE0FFF1FE80FF91FEC5183
:10290000FA4F88EB9BE09283818383E290E090937F
:102910007606809375068BE190E09093780680931D
:10292000770689E090E090937A068093790682E0BA
:1029300080938406109285061092860684E2809326
:102940008106109282061092830608958FEF80937D
:102950007E06C5CF8FEF80937B06D7CF789484B562
:10296000826084BD84B5816084BD85B5826085BD8B
:1029700085B5816085BD80916E00816080936E0019
:10298000109281008091810082608093810080910B
:1029900081008160809381008091800081608093BC
:1029A00080008091B10084608093B1008091B0007C
:1029B00081608093B000809191008260809391004B
:1029C000809191008160809391008091900081605E
:1029D000809390008091A10082608093A1008091FB
:1029E000A10081608093A1008091A000816080930C
:1029F000A0008091210182608093210180912101BA
:102A00008160809321018091200181608093200169
:102A100080917A00846080937A0080917A0082604D
:102A200080937A0080917A00816080937A0080910F
:102A30007A00806880937A001092C10081EF94E060
:102A40000E948E0184E594E00E948E0180E090E077
:102A5000A8ECB2E48093C2059093C305A093C4058B
:102A6000B093C50580E090E0A8ECB2EC8093C60579
:102A70009093C705A093C805B093C9058090B6058B
:102A80009090B705A090B805B090B90520E030E06F
:102A9000A901C501B4010E94481BC090AA05D090AD
:102AA000AB05E090AC05F090AD05882351F020E037
:102AB00030E048E453E4C501B4010E94F81D181643
:102AC000CCF420E030E0A901C701B6010E94481B08
:102AD000882381F0A701960160E070E088E493E428
:102AE0000E94501D6093BA057093BB058093BC058E
:102AF0009093BD0580E090E0A0E2B1E48093D4051E
:102B00009093D505A093D605B093D7054DEC5CEC1A
:102B10006CEC7DE34093DC055093DD056093DE05AE
:102B20007093DF0540E050E064EB72E44093E00511
:102B30005093E1056093E2057093E3058093B60539
:102B40009093B705A093B805B093B90520E030E0A5
:102B5000A901C701B6010E94481B882381F0A70183
:102B6000960160E070E080E291E40E94501D609365
:102B7000BA057093BB058093BC059093BD05109278
:102B8000B2051092B3051092B4051092B5054090AD
:102B9000A6055090A7056090A8057090A9058091A2
:102BA000D3058090AE059090AF05A090B005B09091
:102BB000B10520E030E0A901882309F43DC0C3013C
:102BC000B2010E94F81D181664F477FA709477F831
:102BD00070944092A6055092A7056092A805709245
:102BE000A90520E030E0A901C701B6010E94F81D47
:102BF000181664F4F7FAF094F7F8F094C092AA0566
:102C0000D092AB05E092AC05F092AD0520E030E04B
:102C1000A901C501B4010E94F81D1816ECF5B7FA18
:102C2000B094B7F8B0948092AE059092AF05A092A0
:102C3000B005B092B10530C0C301B2010E94481B7B
:102C400087FF0CC077FA709477F870944092A605CD
:102C50005092A7056092A8057092A90520E030E087
:102C6000A901C701B6010E94481B87FF0CC0F7FAF3
:102C7000F094F7F8F094C092AA05D092AB05E092D8
:102C8000AC05F092AD0520E030E0A901C501B4012A
:102C90000E94481B87FDC3CF8AE193E00E948E010A
:102CA00061E0809184060E94730261E08091810658
:102CB0000E94730284E896E00E94360881E896E05C
:102CC0000E94360884E995E00E94E2078AE995E0CF
:102CD0000E94E2078EE895E00E94E20780EA95E014
:102CE0000E94E20785E796E00E94E20780917E0657
:102CF000803308F043C061E08DE00E947302809150
:102D00007E06282F30E0F901EE0FFF1FE20FF31FC0
:102D1000EC51FA4F9081907C9D60908310927F06D9
:102D2000109280062CE0622F0E94CF1C90E0829FC0
:102D3000B001112430E020E0AB01420F531FFA0133
:102D4000EE0FFF1FE40FF51FEC51FA4F408146FDD7
:102D500007C02F5F3F4F2C30310571F70E94F205FD
:102D6000E0917E068E2F90E0FC01EE0FFF1FE80F32
:102D7000F91FEC51FA4F80818064808380917B063B
:102D8000803308F043C061E08CE20E9473028091BE
:102D90007B06282F30E0F901EE0FFF1FE20FF31F33
:102DA000EC51FA4F9081907C9C62908310927C064B
:102DB00010927D062CE0622F0E94CF1C90E0829F33
:102DC000B001112430E020E0AB01420F531FFA01A3
:102DD000EE0FFF1FE40FF51FEC51FA4F408146FD47
:102DE00007C02F5F3F4F2C30310571F70E94F2056D
:102DF000E0917B068E2F90E0FC01EE0FFF1FE80FA5
:102E0000F91FEC51FA4F80818064808362E370E0A7
:102E10008EE796E00E948A0568E270E08EE796E011
:102E20000E948A0560EA70E08BE796E00E948A05BE
:102E300060E08FE20E94730289EE93E090930802B3
:102E40008093070280916900837F88608093690086
:102E5000E99A87EB93E00E948E0162E08BE20E9488
:102E600073029AE5492E512C612C712C23E0222EFD
:102E7000312C0E94BB09809118028737C9F48FE278
:102E80000E941C02892B89F481E68093180264E178
:102E900070E080E090E00E94AB038FE20E941C0291
:102EA000892BD9F381E0809303030E946505E1CF6C
:102EB000813609F0E0C10E945E078AE692E00E9436
:102EC00050080E94DD036B017C010E94890911E01A
:102ED00003E78091E6029091E702009709F00EC1A6
:102EE0000E945E070E94DD036C197D098E099F090F
:102EF00068357B418105910508F0CEC08091F802CC
:102F00009091F9028037974108F0C6C085E492E0BD
:102F10000E94500823EF32E045E152E064E68CED78
:102F20000E943C0A84E6809316028091F8029091F8
:102F3000F9028D37954120F064E184E10E94E308B5
:102F40008091F4029091F502A091F602B091F702FF
:102F50002091E5024C015D0188249924AA2430E2E5
:102F6000B322822AAC01BD01442755276627787019
:102F7000482959296A297B294C015D018824992413
:102F8000AA2420E1B222842A952AA62AB72AAC01D3
:102F9000BD014427552766277470482959296A2995
:102FA0007B294C015D0188249924AA2432E0B322B4
:102FB000842A952AA62AB72AAC01BD0144275527A1
:102FC00060717727482959296A297B294C015D01BD
:102FD0008824992420E8A222BB24842A952AA62AA0
:102FE000B72AAC01BD0144275527607277274829CD
:102FF00059296A297B294C015D018824992430E4F0
:10300000A322BB24842A952AA62AB72AAC01BD0193
:103010004427552768707727482959296A297B2929
:103020004C015D0188249924AA2420E4B222842A38
:10303000952AA62AB72AAC01BD01442755276470FA
:103040007727482959296A297B2988279927AA2778
:10305000B078842B952BA62BB72B892B8A2B8B2B07
:1030600009F437CF60E080E00E94E30884E60E9424
:103070000C0984E892E00E9450080093160281E057
:1030800090E09093E7028093E6026AE570E08BE7B8
:1030900096E00E948A051DCF0E94DD036C197D0910
:1030A0008E099F09683C72438105910570F060E0CC
:1030B00080E00E94E30884E60E940C098BE792E01E
:1030C0000E945008009316023BCF85E492E00E94D4
:1030D000500823EF32E045E152E064E680EA0E94C6
:1030E0003C0A8091F8029091F9028136924210F0E8
:1030F0001093E50284E68093160222CF8130910579
:1031000009F063C080911202882351F00E94BB092C
:10311000865A9F4F9093E4028093E302109212022A
:10312000C091E302D091E4020E94BB09092E000C79
:10313000AA0BBB0BAE014A555109052E000C660BBC
:10314000770B4C015D01841A950AA60AB70AA501FE
:103150009401A4E1B0E00E948B1CA30192010E94A3
:103160006C1C205B3F4F4F4F5F4F8FEF90E0821BF7
:10317000930B80359105FCF08B3F910514F08AEF9D
:1031800090E00E9413080E94BB098C1B9D0B18162F
:1031900019069CF40E94BB098C1B9D0B05970CF033
:1031A00098CE1093120282E0A82EB12CB092E702C2
:1031B000A092E6028ECE80E5E4CF0E94BB09C81B38
:1031C000D90B25970CF085CEECCF029709F081CE74
:1031D00080911202882331F01092F9021092F802C5
:1031E000109212028091F8029091F9028C382AE034
:1031F000920748F422EE32E041E152E065E784EBC9
:103200000E943C0A66CE803F3AE0930738F466E4B9
:1032100086E40E94BA08109311025BCE883B9B4063
:1032200038F422EE32E041E152E065E780EAE8CF8F
:1032300060E080E00E94E3086FEF70E085E796E0D1
:103240000E94030860918206809181060E944502D7
:1032500081E0809383060E94EE063092E70220927E
:10326000E6028EE6809318026AE570E08BE796E04E
:103270000E948A051ACE8E3609F017CE0E945E078C
:103280008091F4029091F502A091F602B091F702BC
:10329000B0FF15C087E78093180260E080E00E94CD
:1032A000E30881E08093170283E78093160284E8A5
:1032B00096E00E94360881E896E00E9436088091E8
:1032C000F4029091F502A091F602B091F702B7FFD7
:1032D00034C01092F30268EC70E084E995E00E943B
:1032E000F30768EC70E08EE895E00E94F30768EC65
:1032F00070E08AE995E00E9403086CED70E080EAD6
:1033000095E00E94030881E08093170281E7809393
:1033100016028091F4029091F502A091F602B0910C
:10332000F702A6FF88C080911402882309F49DC08B
:103330000E9489091092140298C0A2FF0AC088EC6A
:103340000E9413081092F30281E08093170287E72E
:10335000DECFB5FF0FC023EF32E045E152E065E775
:103360008AEF0E943C0A1092F30281E080931702D8
:1033700085E7CDCFB3FF11C01092F30281E08093B7
:10338000170284E68093160223EF32E045E152E013
:1033900064E68AEF0E943C0ABCCFB4FF0EC01092D4
:1033A000F30281E0809317028CE68093160223EFEC
:1033B00032E045E152E06CE6ECCFB2FF0EC0109275
:1033C000F30281E08093170282E78093160223EFD5
:1033D00032E045E152E062E7DCCF809117028823BA
:1033E00069F081E08093F302809315021092170236
:1033F000809303038DE892E00E9450088091F302CD
:10340000882309F486CF80911602853719F40E942B
:103410000C097FCF8436D9F38C36C9F38237B9F3E0
:10342000813729F460E080E00E94E30872CF87379B
:1034300009F06FCFF7CFA4FF64C08091F202882318
:1034400009F455C060918206809181060E94450270
:1034500081E0809383060E94DD036093EE02709307
:10346000EF028093F0029093F10280918306811124
:103470000E94EE068BE20E941C02892B09F0ABC071
:1034800080911302813669F40E94DD036093E802A3
:103490007093E9028093EA029093EB0282E68093B4
:1034A000130280911302823609F0FFCC0E94DD03E3
:1034B0000091E8021091E9022091EA023091EB02BA
:1034C000601B710B820B930B6333710581059105B2
:1034D00008F4EBCC70E060E085E796E00E9403081A
:1034E00081E08093F20283E680931302DECC81E6D2
:1034F000809313026FEF70E085E796E00E94030867
:10350000B4CFB6FF24C080911402882309F4ADCF54
:103510008091ED02853459F481E090E00E944005ED
:103520001092ED028DE992E00E94500803CF8D3495
:1035300011F08111FFCE89E690E00E94400589EAF2
:1035400092E00E94500885E48093ED02F3CEA3FF41
:1035500020C080911402882309F487CF8091ED0266
:103560008D3449F481E090E00E9440051092ED0214
:1035700081EA92E0D9CF853411F08111DBCE87E763
:1035800090E00E94400586EB92E00E9450088DE496
:10359000DBCFA7FF1CC080911402882309F465CFFC
:1035A0008091EC0281110AC06CE870E08EE796E031
:1035B0000E948A0581E08093EC02BCCE68E270E054
:1035C0008EE796E00E948A051092EC02B3CE81E06D
:1035D000809314024ACF0E94DD030091EE02109105
:1035E000EF022091F0023091F102601B710B820B0F
:1035F000930B653873408105910508F452CF109202
:10360000F20281E896E00E9436086FEF70E085E7ED
:1036100096E00E94030845CF1F93FC019927882755
:10362000BC01E89411911032E9F3193010F01E300A
:10363000C8F31B3251F01D3249F4689406C00E9451
:10364000331B610F711D811D911D119110531A3093
:10365000B0F33EF490958095709561957F4F8F4FB4
:103660009F4F1F910895592F482F372F262F660FF0
:10367000771F881F991F660F771F881F991F620F7A
:10368000731F841F951F660F771F881F991F08954A
:103690000E948A1B08F481E00895E89409C097FB12
:1036A0003EF490958095709561957F4F8F4F9F4F19
:1036B0009923A9F0F92F96E9BB279395F69587955D
:1036C00077956795B795F111F8CFFAF4BB0F11F420
:1036D00060FF1BC06F5F7F4F8F4F9F4F16C08823C7
:1036E00011F096E911C0772321F09EE8872F762FFD
:1036F00005C0662371F096E8862F70E060E02AF03E
:103700009A95660F771F881FDAF7880F9695879529
:1037100097F90895990F0008550FAA0BE0E8FEEFFE
:1037200016161706E807F907C0F012161306E40785
:10373000F50798F0621B730B840B950B39F40A267E
:1037400061F0232B242B252B21F408950A2609F45C
:10375000A140A6958FEF811D811D08950E94C11B78
:103760000C94321C0E94241C38F00E942B1C20F068
:10377000952311F00C941B1C0C94211C11240C9407
:10378000661C0E94431C70F3959FC1F3950F50E097
:10379000551F629FF001729FBB27F00DB11D639F03
:1037A000AA27F00DB11DAA1F649F6627B00DA11DA9
:1037B000661F829F2227B00DA11D621F739FB00D4F
:1037C000A11D621F839FA00D611D221F749F3327BF
:1037D000A00D611D231F849F600D211D822F762F58
:1037E0006A2F11249F5750409AF0F1F088234AF035
:1037F000EE0FFF1FBB1F661F771F881F91505040A1
:10380000A9F79E3F510580F00C941B1C0C94661C7C
:103810005F3FE4F3983ED4F3869577956795B79527
:10382000F795E7959F5FC1F7FE2B880F911D969541
:10383000879597F9089597F99F6780E870E060E0B1
:1038400008959FEF80EC089500240A941616170639
:1038500018060906089500240A9412161306140681
:1038600005060895092E0394000C11F4882352F0E4
:10387000BB0F40F4BF2B11F460FF04C06F5F7F4F9C
:103880008F4F9F4F089557FD9058440F551F59F083
:103890005F3F71F04795880F97FB991F61F09F3F3D
:1038A00079F087950895121613061406551FF2CF66
:1038B0004695F1DF08C0161617061806991FF1CFB6
:1038C00086957105610508940895E894BB276627DD
:1038D0007727CB0197F90895052E97FB1EF40094E6
:1038E0000E94831C57FD07D00E949E1C07FC03D03A
:1038F0004EF40C94831C50954095309521953F4F84
:103900004F4F5F4F089590958095709561957F4FCB
:103910008F4F9F4F08950E94C01CA59F900DB49F8C
:10392000900DA49F800D911D11240895B7FF0C9454
:103930008B1C0E948B1C821B930B0895A1E21A2EF4
:10394000AA1BBB1BFD010DC0AA1FBB1FEE1FFF1F43
:10395000A217B307E407F50720F0A21BB30BE40B93
:10396000F50B661F771F881F991F1A9469F76095DA
:103970007095809590959B01AC01BD01CF01089594
:10398000A29FB001B39FC001A39F700D811D1124A0
:10399000911DB29F700D811D1124911D0895991BD9
:1039A00079E004C0991F961708F0961B881F7A9536
:1039B000C9F780950895EE0FFF1F881F8BBF0790F2
:1039C000F691E02D19945058BB27AA270E94FB1CA2
:1039D0000C94321C0E94241C38F00E942B1C20F0F6
:1039E00039F49F3F19F426F40C94211C0EF4E09551
:1039F000E7FB0C941B1CE92F0E94431C58F3BA17D9
:103A0000620773078407950720F079F4A6F50C94F4
:103A1000651C0EF4E0950B2EBA2FA02D0B01B901F9
:103A200090010C01CA01A0011124FF27591B99F034
:103A3000593F50F4503E68F11A16F040A22F232F40
:103A4000342F4427585FF3CF469537952795A79590
:103A5000F0405395C9F77EF41F16BA0B620B730B37
:103A6000840BBAF09150A1F0FF0FBB1F661F771FA8
:103A7000881FC2F70EC0BA0F621F731F841F48F45D
:103A8000879577956795B795F7959E3F08F0B0CFE6
:103A90009395880F08F09927EE0F979587950895CD
:103AA0000E94641D0C94321C0E942B1C58F00E9432
:103AB000241C40F029F45F3F29F00C941B1C511189
:103AC0000C94661C0C94211C0E94431C68F39923DF
:103AD000B1F3552391F3951B550BBB27AA2762170A
:103AE0007307840738F09F5F5F4F220F331F441F17
:103AF000AA1FA9F335D00E2E3AF0E0E832D091504B
:103B00005040E695001CCAF72BD0FE2F29D0660F37
:103B1000771F881FBB1F261737074807AB07B0E87A
:103B200009F0BB0B802DBF01FF2793585F4F3AF080
:103B30009E3F510578F00C941B1C0C94661C5F3F53
:103B4000E4F3983ED4F3869577956795B795F79506
:103B50009F5FC9F7880F911D9695879597F90895EE
:103B6000E1E0660F771F881FBB1F6217730784078A
:103B7000BA0720F0621B730B840BBA0BEE1F88F799
:103B8000E09508950E94C91D6894B1110C94661CBB
:103B900008950E944B1C88F09F5798F0B92F9927E1
:103BA000B751B0F0E1F0660F771F881F991F1AF028
:103BB000BA95C9F714C0B13091F00E94651CB1E00C
:103BC00008950C94651C672F782F8827B85F39F00B
:103BD000B93FCCF3869577956795B395D9F73EF4C1
:103BE00090958095709561957F4F8F4F9F4F089569
:103BF0000E948A1B08F48FEF08950F931F93CF93B1
:103C0000DF938230910510F482E090E0E091890624
:103C1000F0918A0630E020E0B0E0A0E0309799F41F
:103C20002115310509F44AC0281B390B2430310510
:103C3000D8F58A819B816115710589F1FB01938318
:103C40008283FE0111C04081518102811381481796
:103C50005907E0F04817590799F4109761F0129648
:103C60000C93129713961C933296CF01DF91CF914C
:103C70001F910F9108950093890610938A06F4CF3F
:103C80002115310551F04217530738F0A901DB0126
:103C90009A01BD01DF01F801C1CFEF01F9CF909387
:103CA0008A0680938906CDCFFE01E20FF31F819330
:103CB00091932250310939832883D7CF20918706E9
:103CC00030918806232B41F420911B0230911C0275
:103CD00030938806209387062091190230911A02AA
:103CE0002115310541F42DB73EB740911D02509189
:103CF0001E02241B350BE0918706F0918806E2171F
:103D0000F307A0F42E1B3F0B2817390778F0AC01FE
:103D10004E5F5F4F2417350748F04E0F5F1F5093DB
:103D2000880640938706819391939FCFF0E0E0E06F
:103D30009CCFCF93DF930097E9F0FC013297138279
:103D40001282A0918906B0918A06ED0130E020E050
:103D50001097A1F420813181820F931F2091870653
:103D6000309188062817390709F061C0F09388065A
:103D7000E0938706DF91CF910895EA01CE17DF0720
:103D8000E8F54A815B819E0141155105B1F7E901D2
:103D9000FB83EA8349915991C40FD51FEC17FD07A6
:103DA00061F4808191810296840F951FE9019983C6
:103DB0008883828193819B838A83F0E0E0E012967E
:103DC0008D919C9113970097B9F52D913C91119786
:103DD000CD010296820F931F2091870630918806AD
:103DE0002817390739F6309751F510928A06109244
:103DF0008906B0938806A0938706BCCFD383C2837D
:103E000040815181840F951FC817D90761F44E5F17
:103E10005F4F88819981480F591F518340838A8160
:103E20009B81938382832115310509F0B0CFF093F4
:103E30008A06E09389069ECFFD01DC01C0CF138284
:103E40001282D7CF4F925F926F927F928F929F9202
:103E5000AF92BF92CF92DF92EF92FF920F931F9398
:103E6000CF93DF938C01009799F4CB01DF91CF9131
:103E70001F910F91FF90EF90DF90CF90BF90AF9088
:103E80009F908F907F906F905F904F900C94FD1D4E
:103E9000FC01E60FF71F9C0122503109E217F307DE
:103EA00008F4AEC0D901CD91DC911197C617D707A0
:103EB00020F1C530D10578F0CE0104978617970719
:103EC00050F0C61BD70B2297C193D1936D937C936F
:103ED000CF010E94991EC801DF91CF911F910F91D0
:103EE000FF90EF90DF90CF90BF90AF909F908F901A
:103EF0007F906F905F904F9008955B01AC1ABD0A60
:103F00004C018C0E9D1EA0918906B0918A06512C01
:103F1000412CF12CE12C109731F58091870690917E
:103F200088068815990509F05CC04616570608F002
:103F300058C08091190290911A02009741F48DB7F0
:103F40009EB740911D0250911E02841B950BE817ED
:103F5000F90708F055C0F0938806E0938706F90149
:103F600071836083B8CF8D919C91119712966C905C
:103F7000129713967C901397A815B90559F56C0103
:103F800042E0C40ED11CCA14DB0420F1AC014A1972
:103F90005B09DA011296159780F062827382518371
:103FA0004083D9016D937C93E114F10471F0D70142
:103FB0001396FC93EE9312978ECF22968C0F9D1F33
:103FC000F90191838083F301EFCFF0938A06E093A8
:103FD000890681CF4816590608F42C017D01D301CA
:103FE0009ACFCB010E94FD1D7C01009749F0AE01E4
:103FF000B8010E940320C8010E94991E87016BCF5F
:1040000010E000E068CFFB01DC0102C001900D92DE
:1040100041505040D8F70895FB01DC0101900D920A
:0A4020000020E1F70895F894FFCFA7
:10402A0001F303F303F303F303F303F303F303F3D8
:10403A0003010161010173017700008B0680000012
:10404A00000000F304F4033A0445059D0449048F73
:10405A00040D0A00676F20726967687400676F2031
:10406A006C65667400676F20646F776E00676F20F7
:10407A007570006272616B6500676574206E6577A2
:10408A0020736574706F696E74007365747570203F
:10409A006175746F6D6174696F6E00656E6420740A
:1040AA00696D65006F7574206175746F006368656A
:1040BA00636B2073746F70206F6E63650073657431
:1040CA0020737065656420300073657420737065B1
:1040DA0065642036390073706565642037370000DF
:00000001FF
