:100000000C944A010C947B010C947B010C947B01B1
:100010000C947B010C947B010C947B010C947B0170
:100020000C947B010C947B010C947B010C947B0160
:100030000C947B010C947B010C947B010C947B0150
:100040000C947B010C947B010C947B010C947B0140
:100050000C947B010C947B010C947B010C942F0974
:100060000C947B010C944B0A0C94210A0C947B0198
:100070000C947B010C947B010C947B010C947B0110
:100080000C947B010C947B010C947B010C947B0100
:100090000C94F7090C94CD090C947B010C947B0112
:1000A0000C947B010C947B010C947B010C947B01E0
:1000B0000C947B010C947B010C947B010C947B01D0
:1000C0000C947B010C947B010C947B010C94A30990
:1000D0000C9479090C947B010C947B010C947B01AA
:1000E0000C947B010C9401040C9402030C942D02DB
:1000F0000C940C030C9445020C943F020C941602D1
:100100000C944A030C94A7020C94F3030C94EE0293
:100110000C9420030C949F030C949D020C944902B0
:100120000C94DF020C949A040C9431020C94860215
:100130000C94C1020C9493020C94CB020C943B02DD
:100140000C94750A0C9429020C941F020C94F30170
:100150000C94D5020C948E020C940A020C94F801B3
:100160000C94B9020C9412020C94B1020C94F80293
:100170000C944D040C9419020C9423020C94370235
:100180000C940E020C9416030C94900300000A0BBE
:1001900002090C0D0E080703040100000000000016
:1001A000000000000000000000000000000000004F
:1001B000000000000000000012111000000000000C
:1001C000000000000000000000000000000000002F
:1001D000000000002200250028002B002E00310026
:1001E000340002010000050108010B01000021009C
:1001F000240027002A002D003000330001010000F8
:10020000040107010A010505050507050808080896
:10021000020202020A0A080804040404010101019E
:100220000101010103030303030303030407070799
:100230000C0C0C0C0C0C0C0C02020202060606063E
:10024000060606060B0B0B0B0B0B0B0B010210200B
:1002500020080810204010204080020102010804FC
:100260000201010204081020408080402010080490
:1002700002018004020180402010080402010804E9
:10028000020101020408102040800102040810202D
:100290004080750A11241FBECFEFD1E2DEBFCDBF73
:1002A00000E00CBF24E0AAE1B2E001C01D92A83634
:1002B000B207E1F712E0A0E0B2E0E2E9F1E200E02B
:1002C0000BBF02C007900D92AA31B107D9F711E018
:1002D000CAE4D1E000E006C021970109802FFE01A9
:1002E0000E94010EC934D10780E00807A9F70E94D7
:1002F000610B0C94C7100C940000FC01A089B1891B
:1003000082E08C93A485B5851C92A685B78580E193
:100310008C93108EA489B58986E08C93A289B389C9
:100320008C9180618C93A289B3898C9188608C9325
:10033000A289B3898C9180688C930288F389E02D1F
:1003400080818F7D8083089590E0FC01E45BFD4F08
:1003500024918A5F9D4FFC018491882399F090E05D
:10036000880F991FFC01E451FE4FA591B491FC0147
:10037000EE52FE4F859194918FB7F894EC91E22B59
:10038000EC938FBF0895282F30E0F901E457FE4F1A
:100390009491F901E45BFD4F44912A5F3D4FF901CF
:1003A0002491222309F435C0992311F191509231FF
:1003B000F8F4E92FF0E08827EF51FE4F8F4F0C94AF
:1003C000010E12021602F3010A020E02F8011902CE
:1003D0001F02230229022D02310237023B02F801DB
:1003E0003F0245024902809180008F778093800010
:1003F000E22FF0E0EE0FFF1FEE52FE4FA591B491F9
:100400008FB7F894EC91611148C040954E234C93FE
:100410008FBF0895809180008F7DE8CF809180000C
:10042000877FE4CF84B58F7784BDE2CF84B58F7D9D
:10043000FBCF8091B0008F778093B000D9CF8091AF
:10044000B0008F7DF9CF809190008F7780939000DE
:10045000CFCF809190008F7DF9CF80919000877FE2
:10046000F5CF8091A0008F778093A000C1CF8091BD
:10047000A0008F7DF9CF8091A000877FF5CF80917C
:1004800020018F7780932001B3CF809120018F7D51
:10049000F9CF80912001877FF5CF4E2BB8CF1F93E6
:1004A000CF93DF93182FEB010E94A401209739F41A
:1004B00060E0812FDF91CF911F910C94C301CF3F5A
:1004C000D10511F461E0F5CFE12FF0E0E457FE4FE4
:1004D000E491E150E23108F0B3C0F0E08827EC5835
:1004E000FD4F8F4F0C94010E86028E0293029D02E7
:1004F000A7022003B102B902C102CB02D502DF027A
:10050000EE02F802200302030C03160384B5806890
:1005100084BDC7BDDF91CF911F91089584B58062DE
:1005200084BDC8BDF7CF8091800080688093800033
:10053000D0938900C0938800EDCF809180008062C5
:1005400080938000D0938B00C0938A00E3CF80918A
:100550008000886080938000D0938D00C0938C00D1
:10056000D9CF8091B00080688093B000C093B30071
:10057000D1CF8091B00080628093B000C093B4006E
:10058000C9CF80919000806880939000D0939900AB
:10059000C0939800BFCF80919000806280939000BC
:1005A000D0939B00C0939A00B5CF80919000886053
:1005B00080939000D0939D00C0939C00ABCF80911E
:1005C000A00080688093A0008091A0008F7B809322
:1005D000A000D093A900C093A8009CCF8091A00058
:1005E00080628093A000D093AB00C093AA0092CF0A
:1005F0008091A00088608093A000D093AD00C0934C
:10060000AC0088CF80912001806880932001D09336
:100610002901C09328017ECF8091200180628093C0
:100620002001D0932B01C0932A0174CF8091200127
:10063000886080932001D0932D01C0932C016ACF54
:10064000C038D1050CF03ECF33CF3FB7F89480913E
:10065000250290912602A0912702B091280226B58A
:10066000A89B05C02F3F19F00196A11DB11D3FBFEA
:10067000BA2FA92F982F8827BC01CD01620F711DB9
:10068000811D911D42E0660F771F881F991F4A95B3
:10069000D1F70895AF92BF92CF92DF92EF92FF927F
:1006A0000F931F93CF93DF936C017B018B01040F9A
:1006B000151FEB015E01AE18BF08C017D10759F036
:1006C0006991D601ED91FC910190F081E02DC60178
:1006D0001995892B79F7C501DF91CF911F910F9162
:1006E000FF90EF90DF90CF90BF90AF900895FC0106
:1006F000A089B1898C91A689B78982FD0FC09C9190
:10070000818D8F5F8F73228D821749F0A18DAE0F7F
:10071000BF2FB11D5D969C93818F08958C91089594
:10072000FC01538D448D252F30E0842F90E0821BF7
:10073000930B541710F0CF96089501970895FC017C
:10074000918D828D981761F0A28DAE0FBF2FB11DD4
:100750005D968C91928D9F5F9F73928F90E008952C
:100760008FEF9FEF08952FB7F89480913302909107
:100770003402A0913502B09136022FBF80933F0220
:1007800090934002A0934102B093420287E392E02B
:100790000E949F0397FF26C02FB7F89480913302E1
:1007A00090913402A0913502B09136022FBF409152
:1007B0003F02509140026091410270914202841BBD
:1007C000950BA60BB70B40913B0250913C026091F8
:1007D0003D0270913E0284179507A607B707B0F255
:1007E0008FEF9FEF0895FC01918D828D981731F066
:1007F000828DE80FF11D858D90E008958FEF9FEFBA
:100800000895FC01918D228D892F90E0805C9F4F8F
:10081000821B91098F739927089587E392E00E94C4
:10082000010421E0892B09F420E0822F089584ED52
:1008300092E00E94010421E0892B09F420E0822F3C
:10084000089581E793E00E94010421E0892B09F4D7
:1008500020E0822F0895FC01A48DA80FB92FB11DAF
:10086000A35ABF4F2C91848D90E001968F739927E6
:10087000848FA689B7892C93A089B1898C918370C4
:1008800080648C93938D848D981306C00288F389BD
:10089000E02D80818F7D80830895EF92FF920F93EA
:1008A0001F93CF93DF93EC0181E0888F9B8D8C8D1C
:1008B00098131AC0E889F989808185FF15C09FB710
:1008C000F894EE89FF896083E889F98980818370D3
:1008D000806480839FBF81E090E0DF91CF911F9182
:1008E0000F91FF90EF900895F62E0B8D10E00F5FA3
:1008F0001F4F0F731127E02E8C8D8E110CC00FB679
:1009000007FCFACFE889F989808185FFF5CFCE0110
:100910000E942B04F1CFEB8DEC0FFD2FF11DE35A5C
:10092000FF4FF0829FB7F8940B8FEA89FB89808193
:100930008062CFCFCF93DF93EC01888D8823B9F00D
:10094000AA89BB89E889F9898C9185FD03C08081DA
:1009500086FD0DC00FB607FCF7CF8C9185FFF2CF57
:10096000808185FFEDCFCE010E942B04E9CFDF917E
:10097000CF91089580E090E0892B29F00E94210416
:1009800081110E94000080E090E0892B29F00E94F4
:10099000170481110E94000080E090E0892B29F06B
:1009A0000E940D0481110E94000080E090E0892BDC
:1009B00049F080E090E0892B29F00E94000081112D
:1009C0000C9400000895CF93DF93EC0188810E947E
:1009D000A4018A810E94A4018C81DF91CF910C94A3
:1009E000A401CF93DF93EC018C810E944F0260E061
:1009F00088810E94C30161E08A81DF91CF910C94CC
:100A0000C301CF93DF93EC018C810E944F0261E020
:100A100088810E94C30160E08A81DF91CF910C94AC
:100A2000C3010F931F93CF93DF93EC0188819981CA
:100A3000009759F02A813B812617370730F081E073
:100A4000DF91CF911F910F9108958B016F5F7F4FC1
:100A50000E94D60F009759F0998388831B830A83DD
:100A60002C813D81232B59F7FC011082E8CF80E0D7
:100A7000E7CFEF92FF920F931F93CF93DF9300D0B6
:100A800000D01F921F92CDB7DEB787E392E00E949D
:100A90000104E0901A02F0901B02892B09F45CC05B
:100AA0001A8219821C821B821E821D8270E060E005
:100AB000CE0101960E94110529813A8181112EC033
:100AC0002115310519F0C9010E944D0F1A821982B2
:100AD0001E821D821C821B820E94B30397FD26C0CA
:100AE0008D37910519F18F8318860D811E810F5F57
:100AF0001F4FB801CE0101960E941105882361F3B2
:100B000029813A818D819E81BE01695F7F4F820F6D
:100B1000931F0E94C0101E830D83DECF1E821D8294
:100B200068E172E0C9010E94C010D6CF09811A8124
:100B300060E070E0CB010115110519F0C8010E94B9
:100B4000A10C7B0170931B0260931A020115110521
:100B500019F0C8010E944D0FC70128960FB6F894EE
:100B6000DEBF0FBECDBFDF91CF911F910F91FF90E0
:100B7000EF9008952F923F924F925F926F927F92E3
:100B80008F929F92AF92BF92CF92DF92EF92FF929D
:100B90000F931F93CF93DF93CDB7DEB769970FB64F
:100BA000F894DEBF0FBECDBF898B80912B028111DF
:100BB00009C00E94390590932A028093290281E09E
:100BC00080932B026091290270912A02072E000C5B
:100BD000880B990B0E94E40C8B018D8399830E94F2
:100BE0003905BC01990F880B990B0E94E40C6B012D
:100BF0007C01C801AD81B98180934A0490934B0474
:100C0000A0934C04B0934D048090600490906104D4
:100C1000A0906204B090630420E030E0A901C50117
:100C2000B4010E94DD0C882331F1A5019401C701B4
:100C3000B6010E940A0E2B013C019B01AC01B801D8
:100C40008D8199810E94AC0E18160CF43BC1A50150
:100C50009401C701B6010E94090E4B015C019B0182
:100C6000AC01B8018D8199810E94DD0C87FF03C022
:100C70008401AD82B982A7019601B8018D81998165
:100C80000E94090E6D877E878F87988B2091320492
:100C9000309133044091340450913504B8018D8172
:100CA00099810E94430D4B015C01209126043091F3
:100CB000270440912804509129046D857E858F85F5
:100CC00098890E94430D9B01AC01C501B4010E94AB
:100CD0000A0E4B015C0180915204882391F0C0926E
:100CE0004E04D0924F04E0925004F092510480924E
:100CF000580490925904A0925A04B0925B04109246
:100D0000520440902E0450902F0460903004709054
:100D1000310477FA709477F8709420914E043091F2
:100D20004F044091500450915104C701B6010E94F4
:100D3000090E9B01AC01C301B2010E94430D6D83FA
:100D40007E838F839887C0924E04D0924F04E092A6
:100D50005004F092510480913E0490913F04A09180
:100D60004004B09141048A8B9B8BAC8BBD8B20914E
:100D70002A0430912B0440912C0450912D04BC0185
:100D8000CD010E94430D6B017C01409036045090D0
:100D90003704609038047090390420E030E0A901F5
:100DA000C301B2010E94DD0C8823E1F0A30192018E
:100DB000B601C7010E94AC0E18160CF487C0D3010F
:100DC000C201B05889839A83AB83BC839C01AD0177
:100DD000B601C7010E94DD0C87FF04C0C980DA801C
:100DE000EB80FC80A5019401B601C7010E940A0EA8
:100DF0002D813E814F8158850E940A0E6B017C0136
:100E00003090460420904704909148049983A09123
:100E10004904AD83B0914204B987209143042A87E5
:100E2000309144043B87809145048C872B2F3A8571
:100E30004B85582F632D722D892F9A2F0E94DD0C20
:100E40008090540490905504A0905604B09057049C
:100E50008823A9F0232D322D49815D81B601C70178
:100E60000E94AC0E18160CF05EC029853A854B85A1
:100E70005C85B601C7010E94DD0C87FF54C020E0ED
:100E800030E0A901C501B4010E94DD0C811121C02F
:100E90002A893B894C895D896D857E858F859889F6
:100EA0000E940A0E8B018A8B9D8720E030E0A90109
:100EB000C301B2010E94DD0C811142C0C801AA89A0
:100EC000BD8535C082016D827982D5CE6201730104
:100ED00089CF8091580490915904A0915A04B091FF
:100EE0005B048E8B9F8BA88FB98FA5019401BC01E9
:100EF000CD010E94090E9B01AC01B601C7010E9401
:100F0000AC0E181684F42E893F89488D598DC50181
:100F1000B4010E940A0E9B01AC01B601C7010E94F8
:100F2000DD0C87FDB5CF8D859E85AF85B889809313
:100F30003E0490933F04A0934004B093410429C021
:100F400040903A0450903B0460903C0470903D0403
:100F500098014A895D85C301B2010E94DD0C87FDBD
:100F600010C077FA709477F8709498014A895D857B
:100F7000C301B2010E94AC0E18161CF028016A8849
:100F80007D8440923E0450923F04609240047092EF
:100F9000410420E030E0A901C501B4010E94DD0C4C
:100FA000882369F1409058045090590460905A0485
:100FB00070905B04A3019201C501B4010E940A0E66
:100FC0008B018A8B9D879B01AC01B601C7010E94F2
:100FD000AC0E18168CF0A5019401C301B2010E9459
:100FE000090E8B018A8B9D879B01AC01B601C7015D
:100FF0000E94DD0C87FF03C06801EA88FD84298513
:101000003A854B855C85632D722D89819D810E9477
:10101000DD0C8823C1F09601A70169857A858B854F
:101020009C850E94DD0C87FD9FC09601A701632D62
:10103000722D89819D810E94AC0E181624F4C32C58
:10104000D22CE980FD8080905C0490905D04A0909B
:101050005E04B0905F0420E030E0A901C501B40156
:101060000E94DD0C882301F1A501940160E070E08D
:1010700080E89FE30E94090E9601A7010E94430D9C
:101080006B017C01209158043091590440915A041D
:1010900050915B04C501B4010E94430DA701960164
:1010A0000E940A0E6B017C01C601D701809358048F
:1010B00090935904A0935A04B0935B04B601C701FE
:1010C0000E94760E8B01005B1F4F0F3F110519F038
:1010D00014F00FEF10E017FF02C010E000E0A0E5F1
:1010E000B0E0A61BB70BBA83A983AF3FB10529F0C7
:1010F00024F02FEF30E03A83298389819A8197FF8A
:1011000002C01A8219829989953799F5B80180E24F
:1011100094E00E940105B80184E194E00E94010579
:1011200069817A818AE194E00E94010569817A816E
:101130008EE094E069960FB6F894DEBF0FBECDBF87
:10114000DF91CF911F910F91FF90EF90DF90CF90A3
:10115000BF90AF909F908F907F906F905F904F90D7
:101160003F902F900C940105C984DA84EB84FC84B1
:101170006ACFA989A43671F5B80180E294E00E9493
:10118000F104B80184E194E00E94F10469817A815C
:101190008AE194E00E94F10469817A818EE094E012
:1011A00069960FB6F894DEBF0FBECDBFDF91CF9129
:1011B0001F910F91FF90EF90DF90CF90BF90AF9075
:1011C0009F908F907F906F905F904F903F902F9067
:1011D0000C94F104B989BC3699F4B80180E294E02A
:1011E0000E94F10469817A8184E194E00E94010502
:1011F00069817A818AE194E00E940105B801CECF2D
:101200002989223799F4B80180E294E00E9401050F
:1012100069817A8184E194E00E94F10469817A8194
:101220008AE194E00E94F104B80182CF69960FB67A
:10123000F894DEBF0FBECDBFDF91CF911F910F910C
:10124000FF90EF90DF90CF90BF90AF909F908F90E6
:101250007F906F905F904F903F902F9008951F92D6
:101260000F920FB60F9211242F933F938F939F935A
:10127000AF93BF938091330290913402A0913502D5
:10128000B09136023091240223E0230F2D3758F518
:101290000196A11DB11D20932402809333029093E7
:1012A0003402A0933502B0933602809125029091CA
:1012B0002602A0912702B09128020196A11DB11D1E
:1012C0008093250290932602A0932702B0932802D0
:1012D000BF91AF919F918F913F912F910F900FBE32
:1012E0000F901F90189526E8230F0296A11DB11D9F
:1012F000D2CF1F920F920FB60F9211240BB60F92FE
:101300002F933F934F935F936F937F938F939F930D
:10131000AF93BF93EF93FF9387E392E00E942B0478
:10132000FF91EF91BF91AF919F918F917F916F91BD
:101330005F914F913F912F910F900BBE0F900FBE79
:101340000F901F9018951F920F920FB60F921124B5
:101350000BB60F922F933F934F935F936F937F93AF
:101360008F939F93AF93BF93EF93FF9387E392E0A5
:101370000E947703FF91EF91BF91AF919F918F9161
:101380007F916F915F914F913F912F910F900BBE85
:101390000F900FBE0F901F9018951F920F920FB6CF
:1013A0000F9211240BB60F922F933F934F935F939D
:1013B0006F937F938F939F93AF93BF93EF93FF931D
:1013C00084ED92E00E942B04FF91EF91BF91AF91C9
:1013D0009F918F917F916F915F914F913F912F914D
:1013E0000F900BBE0F900FBE0F901F9018951F927D
:1013F0000F920FB60F9211240BB60F922F933F93BB
:101400004F935F936F937F938F939F93AF93BF930C
:10141000EF93FF9384ED92E00E947703FF91EF91A9
:10142000BF91AF919F918F917F916F915F914F91FC
:101430003F912F910F900BBE0F900FBE0F901F90FA
:1014400018951F920F920FB60F9211240BB60F92A0
:101450002F933F934F935F936F937F938F939F93BC
:10146000AF93BF93EF93FF9381E793E00E942B0428
:10147000FF91EF91BF91AF919F918F917F916F916C
:101480005F914F913F912F910F900BBE0F900FBE28
:101490000F901F9018951F920F920FB60F92112464
:1014A0000BB60F922F933F934F935F936F937F935E
:1014B0008F939F93AF93BF93EF93FF9381E793E055
:1014C0000E947703FF91EF91BF91AF919F918F9110
:1014D0007F916F915F914F913F912F910F900BBE34
:1014E0000F900FBE0F901F901895E7E3F2E0138264
:1014F000128248EE53E060E070E0448355836683D7
:1015000077838AE092E09183808325ED30E0358710
:10151000248724ED30E03787268720ED30E0318BBB
:10152000208B21ED30E0338B228B22ED30E0358BA8
:10153000248B26ED30E0378B268B118E128E138E86
:10154000148EE4EDF2E013821282448355836683A5
:101550007783918380832DEC30E0358724872CECD2
:1015600030E03787268728EC30E0318B208B29EC60
:1015700030E0338B228B2AEC30E0358B248B2EEC41
:1015800030E0378B268B118E128E138E148EE1E78E
:10159000F3E01382128244835583668377839183B9
:1015A000808385EC90E09587848784EC90E0978732
:1015B000868780EC90E0918B808B81EC90E0938B20
:1015C000828B82EC90E0958B848B86EC90E0978BFD
:1015D000868B118E128E138E148EE6E2F4E0108646
:1015E0001186128613861486158616861786108A2B
:1015F000118A128A138A148A158A168A178A108EFB
:10160000118E128E138E148E158E168E178E10A2BA
:1016100011A212A213A214A215A216A217A210A61A
:1016200011A612A613A681E084A715A616A617A6D2
:1016300010AA11AA12AA13AA14AA15AA16AA17AABE
:1016400010AE11AE12AE13AE14AE15AE8DEC9CEC16
:10165000ACECBDE380839183A283B3838AE097EDF2
:10166000A3E2BCE384839583A683B783E0E2F4E03E
:1016700081E090E09183808342E050E05383428395
:1016800024E030E035832483EAE1F4E09183808331
:101690005383428335832483E4E1F4E091838083A0
:1016A0005383428335832483EEE0F4E09183808387
:1016B00083E090E09383828385E090E09583848348
:1016C0000895789484B5826084BD84B5816084BDBA
:1016D00085B5826085BD85B5816085BD80916E00D0
:1016E000816080936E001092810080918100826001
:1016F000809381008091810081608093810080913E
:1017000080008160809380008091B100846080932C
:10171000B1008091B00081608093B0008091910011
:10172000826080939100809191008160809391000C
:10173000809190008160809390008091A1008260F0
:101740008093A1008091A10081608093A10080918D
:10175000A00081608093A00080912101826080932D
:1017600021018091210181608093210180912001DC
:1017700081608093200180917A00846080937A0058
:1017800080917A00826080937A0080917A008160F3
:1017900080937A0080917A00806880937A0010921A
:1017A000C10081E793E00E947D0184ED92E00E94F8
:1017B0007D0187E392E00E947D0180E294E00E9437
:1017C000E3048AE194E00E94E30484E194E00E944F
:1017D000E3048EE094E00E94E30460E784ED92E08D
:1017E0000E944D040E9425036B017C0132E0832E90
:1017F000912CA12CB12C0E9425036C197D098E0916
:101800009F09683E734081059105A8F328EEC20E3A
:1018100023E0D21EE11CF11C8A9489288A288B2897
:1018200029F0812C912C54018394E5CF84ED92E032
:101830000E940104892B59F184ED92E00E949F03DC
:101840008D3729F584ED92E00E949F03E82E84ED08
:1018500092E00E949F03C82F84ED92E00E949F03B4
:10186000F82E84ED92E00E949F034C2F50E070E030
:1018700060E0BA01552744277E29482B5F29409311
:101880001C0250931D0260931E0270931F028091F0
:101890001C0290911D02A0911E02B0911F02809324
:1018A000200290932102A0932202B0932302B7FF5B
:1018B0001BC06EE170E080E294E00E94F1046EE1F2
:1018C00070E084E194E00E94F1046EE170E08AE14E
:1018D00094E00E9401056EE170E08EE094E00E94C9
:1018E00001050E94BA0479CFA2FF19C06EE170E031
:1018F00080E294E00E9401056EE170E084E194E0F2
:101900000E9401056EE170E08AE194E00E94F1041A
:101910006EE170E08EE094E00E94F104E2CFB5FF4A
:1019200004C085E70E94BA05DCCFB3FF02C084E69D
:10193000F9CFB4FF02C08CE6F5CFB2FFD2CF82E779
:10194000F1CF1F93FC0199278827BC01E8941191DE
:101950001032E9F3193010F01E30C8F31B3251F089
:101960001D3249F4689406C00E94C80C610F711DB5
:10197000811D911D119110531A30B0F33EF49095D2
:101980008095709561957F4F8F4F9F4F1F91089560
:10199000592F482F372F262F660F771F881F991F23
:1019A000660F771F881F991F620F731F841F951F73
:1019B000660F771F881F991F08950E941F0D08F456
:1019C00081E00895E89409C097FB3EF490958095D6
:1019D000709561957F4F8F4F9F4F9923A9F0F92FF5
:1019E00096E9BB279395F695879577956795B79573
:1019F000F111F8CFFAF4BB0F11F460FF1BC06F5F59
:101A00007F4F8F4F9F4F16C0882311F096E911C06A
:101A1000772321F09EE8872F762F05C0662371F08B
:101A200096E8862F70E060E02AF09A95660F771F9F
:101A3000881FDAF7880F9695879597F90895990F7B
:101A40000008550FAA0BE0E8FEEF16161706E80788
:101A5000F907C0F012161306E407F50798F0621BA9
:101A6000730B840B950B39F40A2661F0232B242B7E
:101A7000252B21F408950A2609F4A140A6958FEF9D
:101A8000811D811D08950E94560D0C94C70D0E9462
:101A9000B90D38F00E94C00D20F0952311F00C9480
:101AA000B00D0C94B60D11240C94FB0D0E94D80DB2
:101AB00070F3959FC1F3950F50E0551F629FF001A1
:101AC000729FBB27F00DB11D639FAA27F00DB11DBA
:101AD000AA1F649F6627B00DA11D661F829F222743
:101AE000B00DA11D621F739FB00DA11D621F839FCA
:101AF000A00D611D221F749F3327A00D611D231FA0
:101B0000849F600D211D822F762F6A2F11249F57ED
:101B100050409AF0F1F088234AF0EE0FFF1FBB1FF0
:101B2000661F771F881F91505040A9F79E3F5105AF
:101B300080F00C94B00D0C94FB0D5F3FE4F3983EE5
:101B4000D4F3869577956795B795F795E7959F5F59
:101B5000C1F7FE2B880F911D9695879597F90895EB
:101B600097F99F6780E870E060E008959FEF80EC50
:101B7000089500240A9416161706180609060895F3
:101B800000240A9412161306140605060895092E59
:101B90000394000C11F4882352F0BB0F40F4BF2BC8
:101BA00011F460FF04C06F5F7F4F8F4F9F4F089508
:101BB00057FD9058440F551F59F05F3F71F04795FE
:101BC000880F97FB991F61F09F3F79F087950895E3
:101BD000121613061406551FF2CF4695F1DF08C002
:101BE000161617061806991FF1CF8695710561051F
:101BF00008940895E894BB2766277727CB0197F9C7
:101C00000895EE0FFF1F881F8BBF0790F691E02D00
:101C100019945058BB27AA270E94210E0C94C70D77
:101C20000E94B90D38F00E94C00D20F039F49F3F9A
:101C300019F426F40C94B60D0EF4E095E7FB0C9421
:101C4000B00DE92F0E94D80D58F3BA176207730739
:101C50008407950720F079F4A6F50C94FA0D0EF49C
:101C6000E0950B2EBA2FA02D0B01B90190010C01AC
:101C7000CA01A0011124FF27591B99F0593F50F4C4
:101C8000503E68F11A16F040A22F232F342F44271C
:101C9000585FF3CF469537952795A795F040539514
:101CA000C9F77EF41F16BA0B620B730B840BBAF0E4
:101CB0009150A1F0FF0FBB1F661F771F881FC2F74F
:101CC0000EC0BA0F621F731F841F48F48795779563
:101CD0006795B795F7959E3F08F0B0CF9395880F1D
:101CE00008F09927EE0F9795879508950E947D0E2D
:101CF0006894B1110C94FB0D08950E94E00D88F0DA
:101D00009F5798F0B92F9927B751B0F0E1F0660FBF
:101D1000771F881F991F1AF0BA95C9F714C0B13000
:101D200091F00E94FA0DB1E008950C94FA0D672F1E
:101D3000782F8827B85F39F0B93FCCF3869577952F
:101D40006795B395D9F73EF4909580957095619518
:101D50007F4F8F4F9F4F08950E941F0D08F48FEF04
:101D600008950F931F93CF93DF938230910510F462
:101D700082E090E0E0916604F091670430E020E0BA
:101D8000B0E0A0E0309799F42115310509F44AC07C
:101D9000281B390B24303105D8F58A819B816115C8
:101DA000710589F1FB0193838283FE0111C040819B
:101DB00051810281138148175907E0F048175907EC
:101DC00099F4109761F012960C93129713961C9346
:101DD0003296CF01DF91CF911F910F91089500931B
:101DE000660410936704F4CF2115310551F04217B2
:101DF000530738F0A901DB019A01BD01DF01F801A9
:101E0000C1CFEF01F9CF9093670480936604CDCFE3
:101E1000FE01E20FF31F8193919322503109398320
:101E20002883D7CF2091640430916504232B41F49B
:101E300020910202309103023093650420936404E0
:101E400020910002309101022115310541F42DB796
:101E50003EB74091040250910502241B350BE091DE
:101E60006404F0916504E217F307A0F42E1B3F0B06
:101E70002817390778F0AC014E5F5F4F24173507FC
:101E800048F04E0F5F1F50936504409364048193A4
:101E900091939FCFF0E0E0E09CCFCF93DF9300974A
:101EA000E9F0FC01329713821282A0916604B0918E
:101EB0006704ED0130E020E01097A1F4208131812A
:101EC000820F931F2091640430916504281739070D
:101ED00009F061C0F0936504E0936404DF91CF9151
:101EE0000895EA01CE17DF07E8F54A815B819E017C
:101EF00041155105B1F7E901FB83EA8349915991F5
:101F0000C40FD51FEC17FD0761F480819181029603
:101F1000840F951FE90199838883828193819B8334
:101F20008A83F0E0E0E012968D919C9113970097E0
:101F3000B9F52D913C911197CD010296820F931F17
:101F400020916404309165042817390739F63097D9
:101F500051F51092670410926604B0936504A09343
:101F60006404BCCFD383C28340815181840F951F09
:101F7000C817D90761F44E5F5F4F88819981480F78
:101F8000591F518340838A819B81938382832115CA
:101F9000310509F0B0CFF0936704E09366049ECF5B
:101FA000FD01DC01C0CF13821282D7CF4F925F9226
:101FB0006F927F928F929F92AF92BF92CF92DF9259
:101FC000EF92FF920F931F93CF93DF938C010097B3
:101FD00099F4CB01DF91CF911F910F91FF90EF907A
:101FE000DF90CF90BF90AF909F908F907F906F9039
:101FF0005F904F900C94B10EFC01E60FF71F9C010F
:1020000022503109E217F30708F4AEC0D901CD918F
:10201000DC911197C617D70720F1C530D10578F0AC
:10202000CE0104978617970750F0C61BD70B22974F
:10203000C193D1936D937C93CF010E944D0FC80142
:10204000DF91CF911F910F91FF90EF90DF90CF9094
:10205000BF90AF909F908F907F906F905F904F90C8
:1020600008955B01AC1ABD0A4C018C0E9D1EA09117
:102070006604B0916704512C412CF12CE12C10978F
:1020800031F580916404909165048815990509F0F3
:102090005CC04616570608F058C080910002909127
:1020A0000102009741F48DB79EB740910402509110
:1020B0000502841B950BE817F90708F055C0F0934B
:1020C0006504E0936404F90171836083B8CF8D9156
:1020D0009C91119712966C90129713967C9013977F
:1020E000A815B90559F56C0142E0C40ED11CCA14FB
:1020F000DB0420F1AC014A195B09DA01129615974D
:1021000080F06282738251834083D9016D937C9306
:10211000E114F10471F0D7011396FC93EE9312973A
:102120008ECF22968C0F9D1FF90191838083F3013E
:10213000EFCFF0936704E093660481CF4816590609
:1021400008F42C017D01D3019ACFCB010E94B10E7E
:102150007C01009749F0AE01B8010E94B710C80198
:102160000E944D0F87016BCF10E000E068CFFB01AC
:10217000DC0102C001900D9241505040D8F7089503
:10218000FB01DC0101900D920020E1F70895F89425
:02219000FFCF7F
:10219200000068048000000000004D044A03900320
:0A21A2009A0401049F03F3030000F8
:00000001FF
