:020000040800F2
:1000000000000120A91C0008111C0008191C000890
:10001000211C0008291C0008311C000800000000F9
:10002000000000000000000000000000391C000873
:10003000471C000800000000551C0008631C000855
:10004000F91C0008F91C0008F91C0008F91C00083C
:10005000F91C0008F91C0008F91C0008F91C00082C
:10006000F91C0008F91C0008F91C0008F91C00081C
:10007000F91C0008F91C0008F91C0008F91C00080C
:10008000F91C0008F91C0008F91C00080000000019
:10009000000000000000000000000000F91C000843
:1000A000F91C0008F91C0008F91C0008F91C0008DC
:1000B000F91C0008F91C0008F91C0008F91C0008CC
:1000C000F91C0008F91C0008F91C0008F91C0008BC
:1000D000F91C0008F91C0008711C00080000000051
:1000E000F91C0008F91C0008F91C000800000000B9
:1000F000000000000000000000000000F91C0008E3
:1001000000000000F91C0008F91C0008F91C000898
:1001100000000000000000000000000000000000DF
:10012000F91C0008F91C0008F91C0008F91C00085B
:10013000F91C0008000000000000000000000000A2
:10014000000000000000000000000000F91C000892
:10015000F91C0008F91C0008F91C0008F91C00082B
:10016000F91C0008F91C0008000000000000000055
:10017000000000000000000000000000000000007F
:1001800000000000F91C0008000000000000000052
:04019000F91C00084E
:1001980010B5054C237833B9044B13B10448AFF3B9
:1001A80000800123237010BD100000200000000013
:1001B8001C4D000808B5034B1BB103490348AFF3B6
:1001C800008008BD00000000140000201C4D00083D
:1001D80081F0004102E000BF83F0004330B54FEAF0
:1001E80041044FEA430594EA050F08BF90EA020F5D
:1001F8001FBF54EA000C55EA020C7FEA645C7FEAF0
:10020800655C00F0E2804FEA5454D4EB5555B8BF12
:100218006D420CDD2C4480EA020281EA030382EA83
:10022800000083EA010180EA020281EA0303362D15
:1002380088BF30BD11F0004F4FEA01314FF4801CE8
:100248004CEA113102D0404261EB410113F0004FFA
:100258004FEA03334CEA133302D0524263EB4303B1
:1002680094EA050F00F0A780A4F10104D5F1200E4F
:100278000DDB02FA0EFC22FA05F2801841F10001AA
:1002880003FA0EF2801843FA05F359410EE0A5F17E
:1002980020050EF1200E012A03FA0EFC28BF4CF0AF
:1002A800020C43FA05F3C01851EBE37101F0004565
:1002B80007D54FF0000EDCF1000C7EEB00006EEB72
:1002C8000101B1F5801F1BD3B1F5001F0CD34908FC
:1002D8005FEA30004FEA3C0C04F101044FEA445253
:1002E80012F5800F80F09A80BCF1004F08BF5FEADA
:1002F800500C50F1000041EB045141EA050130BDBA
:100308005FEA4C0C404141EB0101013C28BFB1F5CB
:10031800801FE9D291F0000F04BF01460020B1FA16
:1003280081F308BF2033A3F10B03B3F120020CDAE9
:100338000C3208DD02F1140CC2F10C0201FA0CF0C7
:1003480021FA02F10CE002F11402D8BFC2F1200C2C
:1003580001FA02F120FA0CFCDCBF41EA0C019040E2
:10036800E41AA2BF01EB0451294330BD6FEA04042B
:100378001F3C1CDA0C340EDC04F11404C4F1200216
:1003880020FA04F001FA02F340EA030021FA04F328
:1003980045EA030130BDC4F10C04C4F1200220FA7F
:1003A80002F001FA04F340EA0300294630BD21FABD
:1003B80004F0294630BD94F0000F83F4801306BF83
:1003C80081F480110134013D4EE77FEA645C18BF77
:1003D8007FEA655C29D094EA050F08BF90EA020F0E
:1003E80005D054EA000C04BF1946104630BD91EA06
:1003F800030F1EBF0021002030BD5FEA545C05D109
:100408004000494128BF41F0004130BD14F5800447
:100418003CBF01F5801130BD01F0004545F0FE41BB
:1004280041F470014FF0000030BD7FEA645C1ABFF0
:10043800194610467FEA655C1CBF0B46024650EA27
:10044800013406BF52EA033591EA030F41F4002153
:1004580030BD00BF90F0000F04BF0021704730B5D9
:100468004FF4806404F132044FF000054FF00001AE
:1004780050E700BF90F0000F04BF0021704730B56F
:100488004FF4806404F1320410F0004548BF404244
:100498004FF000013EE700BF42004FEAE2014FEA99
:1004A80031014FEA02701FBF12F07F4393F07F4F74
:1004B80081F06051704732F07F4208BF704793F077
:1004C8007F4F04BF41F40021704730B54FF460748A
:1004D80001F0004521F000411CE700BF50EA01028D
:1004E80008BF704730B54FF000050AE050EA010236
:1004F80008BF704730B511F0004502D5404261EBA6
:1005080041014FF4806404F132045FEA915C3FF4E6
:10051800D8AE4FF003025FEADC0C18BF03325FEA83
:10052800DC0C18BF033202EBDC02C2F1200300FA34
:1005380003FC20FA02F001FA03FE40EA0E0021FA59
:1005480002F11444BDE600BF70B54FF0FF0C4CF447
:10055800E06C1CEA11541DBF1CEA135594EA0C0FF9
:1005680095EA0C0F00F0DEF82C4481EA030621EA34
:100578004C5123EA4C5350EA013518BF52EA03356F
:1005880041F4801143F4801338D0A0FB02CE4FF021
:100598000005E1FB02E506F00042E0FB03E54FF051
:1005A8000006E1FB03569CF0000F18BF4EF0010E49
:1005B800A4F1FF04B6F5007F64F5407404D25FEA45
:1005C8004E0E6D4146EB060642EAC62141EA5551F8
:1005D8004FEAC52040EA5E504FEACE2EB4F1FD0C3A
:1005E80088BFBCF5E06F1ED8BEF1004F08BF5FEAB8
:1005F800500E50F1000041EB045170BD06F000466A
:1006080046EA010140EA020081EA0301B4EB5C0416
:10061800C2BFD4EB0C0541EA045170BD41F480110E
:100628004FF0000E013C00F3AB8014F1360FDEBF33
:10063800002001F0004170BDC4F10004203C35DA0F
:100648000C341BDC04F11404C4F1200500FA05F392
:1006580020FA04F001FA05F240EA020001F0004233
:1006680021F0004110EBD37021FA04F642EB0601A9
:100678005EEA430E08BF20EAD37070BDC4F10C04D3
:10068800C4F1200500FA04F320FA05F001FA04F297
:1006980040EA020001F0004110EBD37041F1000183
:1006A8005EEA430E08BF20EAD37070BDC4F120058E
:1006B80000FA05F24EEA020E20FA04F301FA05F2F6
:1006C80043EA020321FA04F001F0004121FA04F29E
:1006D80020EA020000EBD3705EEA430E08BF20EA6E
:1006E800D37070BD94F0000F0FD101F000464000A8
:1006F80041EB010111F4801F08BF013CF7D041EA2A
:10070800060195F0000F18BF704703F0004652002D
:1007180043EB030313F4801F08BF013DF7D043EAFE
:100728000603704794EA0C0F0CEA135518BF95EAB4
:100738000C0F0CD050EA410618BF52EA4306D1D13B
:1007480081EA030101F000414FF0000070BD50EA5A
:10075800410606BF1046194652EA430619D094EAE4
:100768000C0F02D150EA013613D195EA0C0F05D1CE
:1007780052EA03361CBF104619460AD181EA030122
:1007880001F0004141F0FE4141F470014FF00000DA
:1007980070BD41F0FE4141F4780170BD70B54FF075
:1007A800FF0C4CF4E06C1CEA11541DBF1CEA1355F5
:1007B80094EA0C0F95EA0C0F00F0A7F8A4EB0504D7
:1007C80081EA030E52EA03354FEA013100F08880CE
:1007D8004FEA03334FF0805545EA131343EA126397
:1007E8004FEA022245EA111545EA10654FEA00264C
:1007F8000EF000419D4208BF964244F1FD0404F505
:10080800407402D25B084FEA3202B61A65EB030560
:100818005B084FEA32024FF480104FF4002CB6EB1D
:10082800020E75EB030E22BFB61A754640EA0C009D
:100838005B084FEA3202B6EB020E75EB030E22BFDD
:10084800B61A754640EA5C005B084FEA3202B6EB1E
:10085800020E75EB030E22BFB61A754640EA9C00DD
:100868005B084FEA3202B6EB020E75EB030E22BFAD
:10087800B61A754640EADC0055EA060E18D04FEA6B
:10088800051545EA16754FEA06164FEAC30343EA0B
:1008980052734FEAC2025FEA1C1CC0D111F4801FD8
:1008A8000BD141EA00014FF000004FF0004CB6E7D1
:1008B80011F4801F04BF01430020B4F1FD0C88BF70
:1008C800BCF5E06F3FF6AFAEB5EB030C04BFB6EB7B
:1008D800020C5FEA500C50F1000041EB045170BD6E
:1008E8000EF0004E4EEA113114EB5C04C2BFD4EB9B
:1008F8000C0541EA045170BD41F480114FF0000E1F
:10090800013C90E645EA060E8DE60CEA135594EA9A
:100918000C0F08BF95EA0C0F3FF43BAF94EA0C0F9D
:100928000AD150EA01347FF434AF95EA0C0F7FF412
:1009380025AF104619462CE795EA0C0F06D152EA66
:1009480003353FF4FDAE1046194622E750EA41064A
:1009580018BF52EA43067FF4C5AE50EA41047FF45B
:100968000DAF52EA43057FF4EBAE12E74FEA4102BE
:1009780012F5001215D211D56FF47873B3EB6252E9
:1009880012D94FEAC12343F0004343EA505311F010
:10099800004F23FA02F018BF404270474FF00000A2
:1009A800704750EA013005D111F0004008BF6FF0E0
:1009B800004070474FF00000704700BF4FEA410207
:1009C800B2F1E04324BFB3F5001CDCF1FE5C0DD9A5
:1009D80001F0004C4FEAC0024CEA5070B2F1004FEF
:1009E80040EB830008BF20F00100704711F0804FF2
:1009F80021D113F13872BCBF01F00040704741F4B7
:100A080080114FEA5252C2F11802C2F1200C10FABA
:100A18000CF320FA02F018BF40F001004FEAC1239E
:100A28004FEAD32303FA0CFC40EA0C0023FA02F342
:100A38004FEA4303CCE77FEA625307D150EA013318
:100A48001EBF4FF0FE4040F44000704701F00040E8
:100A580040F0FE4040F40000704700BF53B94AB967
:100A6800002908BF00281CBF4FF0FF314FF0FF30AE
:100A780000F06AB9ADF1080C6DE904CE00F006F893
:100A8800DDF804E0DDE9022304B070472DE9F04702
:100A9800089D0C46002B4ED194468C458646B2FAEA
:100AA80082F262D94AB1C2F12003914020FA03F3DD
:100AB8000CFA02FC194300FA02FE4FEA1C471FFA1F
:100AC8008CF6B1FBF7F44FEA1E4307FB141143EA17
:100AD800014304FB06F199420AD91CEB030304F114
:100AE800FF3080F01281994240F20F81023C63444A
:100AF800591A1FFA8EF3B1FBF7F007FB101143EAFE
:100B0800014300FB06F69E420AD91CEB030300F1E1
:100B1800FF3180F0FC809E4240F2F9806344023845
:100B28009B1B40EA044000211DB1D3400022C5E9C7
:100B38000032BDE8F0878B4205D90DB1C5E9000147
:100B480000210846F5E7B3FA83F1002946D1A3420C
:100B580002D39042C0F0F080861A64EB03030120B0
:100B6800002DE6D0C5E90063E3E7002A40F0908055
:100B7800A1EB0C044FEA1C481FFA8CF70121B4FBC7
:100B8800F8F64FEA1E4308FB164443EA044307FB02
:100B980006F0984208D91CEB030306F1FF3402D291
:100BA800984200F2CD8026461C1A1FFA8EF3B4FB39
:100BB800F8F008FB104443EA044300FB07F79F42A0
:100BC80008D91CEB030300F1FF3402D29F4200F264
:100BD800B0802046DB1B40EA0640A5E7C1F12006AD
:100BE8008B4022FA06F71F4320FA06FC04FA01F3A9
:100BF80043EA0C03F44000FA01F8380C4FEA1349B1
:100C0800B4FBF0FE1FFA87FC00FB1E4449EA0444CB
:100C18000EFB0CF9A14502FA01F20AD93C190EF1B2
:100C2800FF3A80F08480A14540F28180AEF1020E47
:100C38003C44A4EB09041FFA83F9B4FBF0F300FB6E
:100C4800134449EA044403FB0CFCA44507D93C19A6
:100C580003F1FF3067D2A44565D9023B3C4443EA1F
:100C68000E40A0FB0293A4EB0C049C42CE469C468B
:100C780051D34ED055B1B8EB0E0364EB0C0404FA13
:100C880006F6CB401E43CC40C5E90064002150E77E
:100C9800C2F1200320FA03F10CFA02FC24FA03F350
:100CA80094400C434FEA1C4800FA02FE1FFA8CF7E6
:100CB800B3FBF8F008FB1031230C43EA014300FBB7
:100CC80007F1994208D91CEB030300F1FF362CD237
:100CD80099422AD9023863445B1AA4B2B3FBF8F1EB
:100CE80008FB113344EA034401FB07F3A34208D984
:100CF8001CEB040401F1FF3613D2A34211D90239C7
:100D08006444E41A41EA004139E70446F0E608463B
:100D180006E7C845AED2B9EB020E63EB070C013803
:100D2800A8E73146EDE7034699E73046D4E7D646CB
:100D38007FE7634402384DE70646234608460FE737
:100D4800023E634430E700BF704700BF80B500AF84
:100D580000F0D0FF00F08EF800F0A6F900F0F4F8EB
:100D680000F04EF900F076F900F01CF900BF3748A2
:100D780000F012FA0346682BF9D1354B1B68002B9B
:100D88000CD03449314800F047FB0122324933483E
:100D980003F070F82E4B00221A60EEE72D492B481D
:100DA80000F066FA2B49294800F0CEFA294B03F5E2
:100DB8004A53203353E902014FF00002284BFFF752
:100DC800C3FB02460B4610461946FFF7CFFD07EE58
:100DD800900AF8EEE77A234BC3ED007A1D4B03F532
:100DE8004A531033D3E900014FF000021C4BFFF7C0
:100DF800ABFB02460B4610461946FFF7B7FD07EE58
:100E0800900AF8EEE77A184BC3ED007A114BD3E954
:100E18000E2310461946FFF7D1FD0346134A136007
:100E28000C4B03F54B5353E902014FF000020C4BF6
:100E3800FFF78AFB02460B4610461946FFF796FD58
:100E480003461AB20A4B1A8097E700BF80000020B9
:100E580000000020680100202A3400201C01002026
:100E6800000024403834002030340020343400207E
:100E78002C34002080B594B000AF07F12003302255
:100E88000021184603F01AFF07F10C0300221A602C
:100E98005A609A60DA601A610023BB60284B1B6CA9
:100EA800274A43F080531364254B1B6C03F080538F
:100EB800BB60BB6800237B60224B1B6823F4404364
:100EC800204A43F4004313601E4B1B6803F440435D
:100ED8007B607B6802233B620123FB6210233B6338
:100EE8000223BB630023FB6308233B6454237B6416
:100EF8000223BB640423FB6407F12003184602F0B5
:100F0800DBFA0346002B01D000F040F90F23FB6009
:100F180002233B6100237B614FF48053BB610023B4
:100F2800FB6107F10C030221184602F03DFD034660
:100F3800002B01D000F02AF900BF5037BD4680BD14
:100F4800003802400070004080B500AF124B134AD1
:100F58001A60114B124A5A600F4B00229A600E4BCE
:100F68000022DA600C4B4FF480421A610A4B0022CF
:100F78005A61094B00229A61074B0022DA61064B3D
:100F880000221A62044801F073FA0346002B01D0CC
:100F980000F0FCF800BF80BD2C0000200054004089
:100FA800801A060080B500AF124B134A1A60114B25
:100FB800124A5A600F4B00229A600E4B0022DA60E8
:100FC8000C4B4FF480421A610A4B00225A61094BBC
:100FD80000229A61074B0022DA61064B00221A624E
:100FE800044801F045FA0346002B01D000F0CEF882
:100FF80000BF80BD8000002000580040A08601008E
:1010080080B500AF114B124A1A60104B4FF4E13211
:101018005A600E4B00229A600C4B0022DA600B4B90
:1010280000221A61094B0C225A61084B00229A616E
:10103800064B0022DA61054802F096FE0346002BB3
:1010480001D000F0A3F800BF80BD00BFD40000208D
:101058000010014080B500AF114B124A1A60104BC6
:101068004FF4E1325A600E4B00229A600C4B00227A
:10107800DA600B4B00221A61094B0C225A61084BAB
:1010880000229A61064B0022DA61054802F06CFEE4
:101098000346002B01D000F079F800BF80BD00BFE7
:1010A8001C0100200044004080B483B000AF00233E
:1010B8007B60104B1B6B0F4A43F0010313630D4B0E
:1010C8001B6B03F001037B607B6800233B60094BCB
:1010D8001B6B084A43F002031363064B1B6B03F0B8
:1010E80002033B603B6800BF0C37BD465DF8047BDC
:1010F800704700BF0038024080B582B000AF78600A
:101108007B681A681B4B1B689A422FD11A4B1B78B5
:101118007A2B12D1194BB3F900301B121BB2DAB279
:10112800174B1A70154BB3F90030DAB2144B5A70DA
:10113800022213490F4802F067FE0F4B1B78612B00
:101148000FD10E4B00221A800E4B03F54B53194654
:101158004FF000024FF0000341E902230A4B01223D
:101168001A6001220449034802F084FE00BF0837D0
:10117800BD4680BD1C0100202A3400202C340020EC
:1011880028340020680100200000002080B400AF4F
:1011980072B600BF00BFFDE780B588B004AF7860C5
:1011A800642302930123019307F10F0300930123A2
:1011B8007522D021786801F099FBFB7B682B4FD111
:1011C8008023BB73642302930123019307F10E0369
:1011D800009301236B22D021786801F08DFA6420F6
:1011E80000F0FAFD0023BB736423029301230193EB
:1011F80007F10E03009301236B22D021786801F0D8
:101208007BFA0723BB73642302930123019307F13D
:101218000E03009301231922D021786801F06CFA9B
:101228000023BB73642302930123019307F10E0388
:10123800009301231C22D021786801F05DFA18235D
:10124800BB73642302930123019307F10E030093F8
:1012580001231B22D021786801F04EFA682300E0B0
:10126800FB7B18461037BD4680BD0000000000001B
:1012780080B588B004AF7860396064230293062390
:10128800019307F10803009301233B22D0217868DA
:1012980001F02CFB3B7A1B021AB27B7A1BB2134378
:1012A8001AB23B681A80BB7A1B021AB2FB7A1BB2CD
:1012B80013431AB23B685A803B7B1B021AB27B7BF2
:1012C8001BB213431AB23B689A803B68B3F90030EB
:1012D8001846FFF7CFF84FF00002194BFFF75EFAF8
:1012E80002460B463968C1E902233B68B3F902306C
:1012F8001846FFF7BFF84FF00002114BFFF74EFA00
:1013080002460B463968C1E904233B68B3F9043047
:101318001846FFF7AFF808A3D3E90023FFF73EFA12
:1013280002460B463968C1E9062300BF1037BD469F
:1013380080BD00BFAFF30080000000000029CC4052
:101348000000D0400000000080B588B004AF78608D
:101358003960642302930623019307F1080300937D
:1013680001234322D021786801F0C0FA3B7A1B029E
:101378001AB27B7A1BB213431AB23B681A84BB7A3F
:101388001B021AB2FB7A1BB213431AB23B685A8487
:101398003B7B1B021AB27B7B1BB213431AB23B681E
:1013A8009A843B68B3F920301846FFF763F818A30E
:1013B800D3E90023FFF7F2F902460B463968C1E981
:1013C8000A233B68B3F922301846FFF753F810A3F5
:1013D800D3E90023FFF7E2F902460B463968C1E971
:1013E8000C233B68B3F924301846FFF743F808A3E9
:1013F800D3E90023FFF7D2F902460B463968C1E961
:101408000E2300BF1037BD4680BD00BFAFF300807C
:10141800000000000060604080B58CB004AF7860C8
:1014280039600023FB610023FB613BE164230293E5
:101438000E23019307F10C03009301233B22D021D3
:10144800786801F053FA3B7B1B021AB27B7B1BB214
:1014580013431AB23B681A80BB7B1B021AB2FB7B90
:101468001BB213431AB23B685A803B7C1B021AB268
:101478007B7C1BB213431AB23B689A80BB7C1B026D
:101488001AB2FB7C1BB213437B833B7D1B021AB24F
:101498007B7D1BB213431AB23B681A84BB7D1B02C7
:1014A8001AB2FB7D1BB213431AB23B685A843B7EC7
:1014B8001B021AB27B7E1BB213431AB23B689A8492
:1014C8003B68B3F900301846FEF7D4FF4FF000022E
:1014D800A34BFFF763F902460B463968C1E90223BB
:1014E8003B68B3F902301846FEF7C4FF4FF000021C
:1014F8009B4BFFF753F902460B463968C1E90423B1
:101508003B68B3F904301846FEF7B4FF90A3D3E95B
:101518000023FFF743F902460B463968C1E9062361
:10152800B7F91A3007EE903AB8EEE77ADFED8D6A30
:10153800C7EE267A9FED8C7A77EE877A3B6803F5BB
:101548004053C3EDA87A3B68B3F920301846FEF73C
:1015580091FF81A3D3E90023FFF720F902460B4648
:101568003968C1E90A233B68B3F922301846FEF707
:1015780081FF79A3D3E90023FFF710F902460B4650
:101588003968C1E90C233B68B3F924301846FEF7E3
:1015980071FF71A3D3E90023FFF700F902460B4658
:1015A8003968C1E90E233B68D3E910013B68D3E9E8
:1015B8000A23FEF713FE02460B463968C1E91023D9
:1015C8003B68D3E912013B68D3E90C23FEF706FE1A
:1015D80002460B463968C1E912233B68D3E9140176
:1015E8003B68D3E90E23FEF7F9FD02460B4639683E
:1015F800C1E914233B68D3E916013B68D3E9022308
:10160800FEF7ECFD02460B463968C1E916233B6834
:10161800D3E918013B68D3E90423FEF7DFFD02464E
:101628000B463968C1E918233B68D3E91A013B68BE
:10163800D3E90623FEF7D2FD02460B463968C1E915
:101648001A233B68D3E906233868F9690E31C900C3
:101658000144C1E900233B68D3E904233868F969E8
:1016680001F22E31C9000144C1E900233B68D3E9E6
:1016780002233868F96901F5CF71C9000144C1E94D
:1016880000233B68D3E90E233868F96901F2BE41AB
:10169800C9000144C1E900230A2000F09DFBFB6951
:1016A8000133FB61FB69B3F5C87FFFF6BFAE3B684A
:1016B800D3E910014FF000022C4BFFF76FF80246F8
:1016C8000B463968C1E910233B68D3E912014FF092
:1016D8000002264BFFF762F802460B463968C1E95B
:1016E80012233B68D3E914014FF000021F4BFFF7A8
:1016F80055F802460B463968C1E914233B68D3E91B
:1017080016014FF00002194BFFF748F802460B4646
:101718003968C1E916233B68D3E918014FF0000284
:10172800124BFFF73BF802460B463968C1E918230C
:101738003B68D3E91A014FF000020C4BFFF72EF873
:1017480002460B463968C1E91A230023FB616CE0A5
:10175800000000000029CC40666666666666304078
:101768000000D0400000AA43B81E12420000794091
:101778003A68FB690E33DB001344D3E900013B6888
:10178800D3E91A23FEF728FD02460B463868F969A3
:101798000E31C9000144C1E900233A68FB6903F22C
:1017A8002E33DB001344D3E900013B68D3E9182347
:1017B800FEF712FD02460B463868F96901F22E3130
:1017C800C9000144C1E900233A68FB6903F5CF73F6
:1017D800DB001344D3E900013B68D3E91623FEF785
:1017E800FBFC02460B463868F96901F5CF71C90060
:1017F8000144C1E900233A68FB6903F2BE43DB00F8
:101808001344D3E900013B68D3E91423FEF7E4FC51
:1018180002460B463868F96901F2BE41C900014425
:10182800C1E90023FB690133FB61FB69B3F5C87F9C
:101838009EDB0123FB615DE03B68D3E91C013A684C
:10184800FB690E33DB001344D3E90023FEF7C6FC23
:1018580002460B463968C1E91C233B6803F5CB53A4
:101868001033D3E900013A68FB6903F22E33DB0039
:101878001344D3E90023FEF7B1FC02460B46104699
:1018880019463B6803F5CB531033C3E900013B68A5
:1018980003F54F63D3E900013A68FB6903F5CF7399
:1018A800DB001344D3E90023FEF798FC02460B46FD
:1018B800396801F54F61C1E900233B6803F5175307
:1018C8003033D3E900013A68FB6903F2BE43DB0019
:1018D8001344D3E90023FEF781FC02460B46104669
:1018E80019463B6803F517533033C3E90001FB6918
:1018F8000133FB61FB69B3F5C87F9DDB3B68D3E926
:101908001C014FF00002234BFEF748FF02460B462E
:101918003968C1E91C233B6803F5CB531033D3E97D
:1019280000014FF000021B4BFEF738FF02460B4642
:10193800104619463B6803F5CB531033C3E9000141
:101948003B6803F54F63D3E900014FF00002114BE8
:10195800FEF724FF02460B46396801F54F61C1E9DD
:1019680000233B6803F517533033D3E900014FF0E8
:101978000002084BFEF712FF02460B4610461946B6
:101988003B6803F517533033C3E9000100BF203724
:10199800BD4680BD0000794080B483B000AF00230D
:1019A8007B60104B5B6C0F4A43F4804353640D4BD0
:1019B8005B6C03F480437B607B6800233B60094BCE
:1019C8001B6C084A43F080531364064B1B6C03F0EE
:1019D80080533B603B6800BF0C37BD465DF8047B15
:1019E800704700BF0038024080B58CB000AF786007
:1019F80007F11C0300221A605A609A60DA601A61C3
:101A08007B681B683A4A93422CD10023BB61394B4F
:101A18001B6B384A43F002031363364B1B6B03F00E
:101A28000203BB61BB69C023FB6112233B62002335
:101A38007B620323BB620423FB6207F11C03194684
:101A48002D4800F091FB00237B612A4B1B6C294A2F
:101A580043F400131364274B1B6C03F400137B61DE
:101A68007B6941E07B681B68244A93423CD1002390
:101A78003B61204B1B6B1F4A43F0020313631D4B52
:101A88001B6B03F002033B613B694FF48063FB610E
:101A980012233B6200237B620323BB620423FB62A5
:101AA80007F11C031946144800F05EFB0823FB618C
:101AB80012233B6200237B620323BB620923FB6280
:101AC80007F11C0319460C4800F04EFB0023FB608D
:101AD800084B1B6C074A43F480031364054B1B6CCB
:101AE80003F48003FB60FB6800BF3037BD4680BD50
:101AF80000540040003802400004024000580040F2
:101B080080B58CB000AF786007F11C0300221A6022
:101B18005A609A60DA601A617B681B68364A934299
:101B28002DD10023BB61354B5B6C344A43F0100365
:101B38005364324B5B6C03F01003BB61BB69002339
:101B48007B612E4B1B6B2D4A43F0010313632B4B18
:101B58001B6B03F001037B617B694FF4C063FB617E
:101B680002233B6200237B620323BB620723FB62E1
:101B780007F11C031946224800F0F6FA38E07B68A2
:101B88001B68204A934233D100233B611B4B1B6CDB
:101B98001A4A43F400331364184B1B6C03F40033E4
:101BA8003B613B690023FB60144B1B6B134A43F0FA
:101BB80001031363114B1B6B03F00103FB60FB680C
:101BC8000C23FB6102233B6200237B620323BB627D
:101BD8000723FB6207F11C031946094800F0C4FA01
:101BE80000220021262000F0F6F9262000F00FFA46
:101BF80000BF3037BD4680BD0010014000380240AC
:101C0800000002400044004080B400AF00BFFDE780
:101C180080B400AF00BFFDE780B400AF00BFFDE7B0
:101C280080B400AF00BFFDE780B400AF00BFFDE7A0
:101C380080B400AF00BFBD465DF8047B704780B438
:101C480000AF00BFBD465DF8047B704780B400AFAD
:101C580000BFBD465DF8047B704780B500AF00F05B
:101C68009BF800BF80BD000080B500AF024802F0BD
:101C780027F900BF80BD00BF1C01002080B400AF61
:101C8800064BD3F88830054A43F47003C2F888300D
:101C980000BFBD465DF8047B704700BF00ED00E063
:101CA800DFF834D0FFF7EAFF0C480D490D4A00234E
:101CB80002E0D458C4500433C4188C42F9D30A4AF9
:101CC8000A4C002301E013600432A242FBD302F065
:101CD800FDFFFFF73BF870470000012000000020DF
:101CE800100000205C4D0008100000204034002047
:101CF800FEE7000080B500AF0E4B1B680D4A43F4A9
:101D0800007313600B4B1B680A4A43F4806313602B
:101D1800084B1B68074A43F480731360032000F0E4
:101D28004FF9002000F008F8FFF736FE00231846A8
:101D380080BD00BF003C024080B582B000AF786033
:101D4800124B1A68124B1B7819464FF47A73B3FB7F
:101D5800F1F3B2FBF3F3184600F067F90346002BE2
:101D680001D001230EE07B680F2B0AD80022796886
:101D78004FF0FF3000F02FF9064A7B68136000230C
:101D880000E0012318460837BD4680BD0400002046
:101D98000C0000200800002080B400AF064B1B7820
:101DA8001A46064B1B681344044A136000BFBD461D
:101DB8005DF8047B704700BF0C0000203C34002015
:101DC80080B400AF034B1B681846BD465DF8047B22
:101DD800704700BF3C34002080B584B000AF786005
:101DE800FFF7EEFFB8607B68FB60FB68B3F1FF3F6D
:101DF80005D00A4B1B781A46FB681344FB6000BFEA
:101E0800FFF7DEFF0246BB68D31AFA689A42F7D892
:101E180000BF00BF1037BD4680BD00BF0C000020CA
:101E280080B485B000AF78607B6803F00703FB607F
:101E38000C4BDB68BB60BA684FF6FF031340BB600E
:101E4800FB681A02BB68134343F0BF6343F40033D3
:101E5800BB60044ABB68D36000BF1437BD465DF859
:101E6800047B704700ED00E080B400AF044BDB68F2
:101E78001B0A03F007031846BD465DF8047B70474C
:101E880000ED00E080B483B000AF0346FB7197F922
:101E98000730002B0BDBFB7903F01F02074997F98A
:101EA80007305B09012000FA02F241F8232000BF45
:101EB8000C37BD465DF8047B704700BF00E100E0C9
:101EC80080B483B000AF03463960FB7197F90730DF
:101ED800002B0ADB3B68DAB20C4997F9073012018C
:101EE800D2B20B4483F800230AE03B68DAB208490F
:101EF800FB7903F00F03043B1201D2B20B441A76AC
:101F080000BF0C37BD465DF8047B704700E100E078
:101F180000ED00E080B489B000AFF860B9607A6085
:101F2800FB6803F00703FB61FB69C3F10703042B9C
:101F380028BF0423BB61FB690433062B02D9FB6964
:101F4800033B00E000237B614FF0FF32BB6902FADC
:101F580003F3DA43BB681A407B699A404FF0FF31BC
:101F68007B6901FA03F3D9437B680B401343184696
:101F78002437BD465DF8047B7047000080B582B009
:101F880000AF78607B68013BB3F1807F01D3012308
:101F98000FE00A4A7B68013B53600F214FF0FF3086
:101FA800FFF78EFF054B00229A60044B07221A6048
:101FB800002318460837BD4680BD00BF10E000E08A
:101FC80080B582B000AF78607868FFF729FF00BF5E
:101FD8000837BD4680BD80B586B000AF0346B960FE
:101FE8007A60FB7300237B61FFF73EFF78617A68B4
:101FF800B9687869FFF78EFF024697F90F301146E6
:102008001846FFF75DFF00BF1837BD4680BD80B595
:1020180082B000AF0346FB7197F907301846FFF707
:1020280031FF00BF0837BD4680BD80B582B000AF24
:1020380078607868FFF7A2FF034618460837BD4660
:1020480080BD80B584B000AF78607B689B6DFB6015
:10205800FFF7B6FEB8607B6893F83530DBB2022B29
:1020680008D07B6880225A657B68002283F8342078
:10207800012352E07B681B681A687B681B6822F0A2
:1020880016021A607B681B685A697B681B6822F015
:1020980080025A617B681B6C002B03D17B689B6CA8
:1020A800002B07D07B681B681A687B681B6822F0C6
:1020B80008021A607B681B681A687B681B6822F034
:1020C80001021A6013E0FFF77BFE0246BB68D31AD1
:1020D800052B0CD97B6820225A657B68032283F87C
:1020E80035207B68002283F83420032315E07B68C1
:1020F8001B681B6803F00103002BE4D17B68DB6DD0
:102108003F229A40FB689A607B68012283F8352059
:102118007B68002283F83420002318461037BD4618
:1021280080BD80B483B000AF78607B6893F83530A9
:10213800DBB2022B04D07B6880225A6501230CE0B5
:102148007B68052283F835207B681B681A687B68E2
:102158001B6822F001021A60002318460C37BD469E
:102168005DF8047B7047000080B489B000AF7860E8
:10217800396000237B6100233B610023BB6100239E
:10218800FB6159E10122FB6902FA03F37B613B68B9
:102198001B687A6913403B613A697B699A4240F04F
:1021A80048813B685B6803F00303012B05D03B685B
:1021B8005B6803F00303022B30D17B689B68BB612B
:1021C800FB695B00032202FA03F3DB43BA6913409D
:1021D800BB613B68DA68FB695B0002FA03F3BA6922
:1021E8001343BB617B68BA699A607B685B68BB61B3
:1021F8000122FB6902FA03F3DB43BA691340BB61AE
:102208003B685B681B0903F00102FB6902FA03F3F0
:10221800BA691343BB617B68BA695A603B685B68FB
:1022280003F00303032B17D07B68DB68BB61FB69F2
:102238005B00032202FA03F3DB43BA691340BB6174
:102248003B689A68FB695B0002FA03F3BA691343B7
:10225800BB617B68BA69DA603B685B6803F00303BB
:10226800022B23D1FB69DA087B68083253F8223045
:10227800BB61FB6903F007039B000F2202FA03F31B
:10228800DB43BA691340BB613B681A69FB6903F019
:1022980007039B0002FA03F3BA691343BB61FB69A6
:1022A800DA087B680832B96943F822107B681B6832
:1022B800BB61FB695B00032202FA03F3DB43BA69E3
:1022C8001340BB613B685B6803F00302FB695B007A
:1022D80002FA03F3BA691343BB617B68BA691A60EF
:1022E8003B685B6803F44033002B00F0A2800023B6
:1022F800FB60574B5B6C564A43F480435364544B22
:102308005B6C03F48043FB60FB68524AFB699B08E3
:10231800023352F82330BB61FB6903F003039B00CF
:102328000F2202FA03F3DB43BA691340BB617B68EF
:10233800494A934219D07B68484A934213D07B6834
:10234800474A93420DD07B68464A934207D07B6840
:10235800454A934201D1042308E0072306E00323FA
:1023680004E0022302E0012300E00023FA6902F0FE
:10237800030292009340BA691343BB613549FB6974
:102388009B080233BA6941F82320384B9B68BB612C
:102398003B69DB43BA691340BB613B685B6803F484
:1023A8008013002B03D0BA693B691343BB612F4AE2
:1023B800BB6993602D4BDB68BB613B69DB43BA6942
:1023C8001340BB613B685B6803F40013002B03D028
:1023D800BA693B691343BB61244ABB69D360234B89
:1023E8005B68BB613B69DB43BA691340BB613B680F
:1023F8005B6803F40033002B03D0BA693B691343CD
:10240800BB611A4ABB695360184B1B68BB613B69C7
:10241800DB43BA691340BB613B685B6803F48033F4
:10242800002B03D0BA693B691343BB610F4ABB69F0
:102438001360FB690133FB61FB690F2B7FF6A2AECA
:1024480000BF00BF2437BD465DF8047B704700BF5E
:1024580000380240003801400000024000040240F9
:1024680000080240000C024000100240003C0140FD
:1024780080B584B000AF78607B68002B01D1012360
:102488002BE17B6893F83D30DBB2002B06D17B68EB
:10249800002283F83C207868FFF7A6FA7B6824229C
:1024A80083F83D207B681B681A687B681B6822F0EC
:1024B80001021A607B681B681A687B681B6842F413
:1024C80000421A607B681B681A687B681B6822F4E4
:1024D80000421A6001F020FCF8607B685B68814A62
:1024E800934207D8FB68804A934294BF0123002394
:1024F800DBB206E0FB687D4A934294BF01230023C8
:10250800DBB2002B01D00123E7E0FB68784AA2FB8D
:1025180003239B0CBB607B681B685B6823F03F014F
:102528007B681B68BA680A435A607B681B681B6A29
:1025380023F03F017B685B686A4A934202D8BB6814
:10254800013309E0BB684FF4967202FB03F3694A52
:10255800A2FB03239B0901337A6812680B431362B9
:102568007B681B68DB6923F44F4222F0FF027B681B
:102578005B685C498B4219D8FB68591E7B685B68AD
:102588005B00B1FBF3F3591C40F6FC730B40002BC6
:102598000AD0FB68591E7B685B685B00B1FBF3F3EC
:1025A8000133C3F30B0351E004234FE07B689B68BE
:1025B800002B11D1FB68581E7B6859680B465B00DD
:1025C8000B44B0FBF3F30133C3F30B03002B0CBF35
:1025D80001230023DBB212E0FB68581E7B685968B0
:1025E8000B469B000B4499000B44B0FBF3F30133FB
:1025F800C3F30B03002B0CBF01230023DBB2002B1A
:1026080001D0012322E07B689B68002B0ED1FB6878
:10261800581E7B6859680B465B000B44B0FBF3F30C
:102628000133C3F30B0343F400430FE0FB68581E68
:102638007B6859680B469B000B4499000B44B0FB20
:10264800F3F30133C3F30B0343F440437968096898
:102658001343CB617B681B681B6823F0C0017B6850
:10266800DA697B681B6A1A437B681B680A431A602D
:102678007B681B689B6823F4034323F0FF037A6895
:1026880011697A68D26811437A6812680B439360BB
:102698007B681B68DB6823F0FF017B685A697B68ED
:1026A8009B691A437B681B680A43DA607B681B686E
:1026B8001A687B681B6842F001021A607B68002276
:1026C8001A647B68202283F83D207B6800221A6305
:1026D8007B68002283F83E20002318461037BD4649
:1026E80080BD00BFA08601007F841E00FF083D005A
:1026F80083DE1B43D34D621080B588B002AFF8600B
:10270800084611461A4603467B810B463B81134611
:10271800FB80FFF755FB7861FB6893F83D30DBB22F
:10272800202B40F0D9807B690093192301226D4941
:10273800F86800F08BFC0346002B01D00223CCE0A4
:10274800FB6893F83C30012B01D10223C5E0FB68FC
:10275800012283F83C20FB681B681B6803F0010317
:10276800012B07D0FB681B681A68FB681B6842F0DE
:1027780001021A60FB681B681A68FB681B6822F470
:1027880000621A60FB68212283F83D20FB68402222
:1027980083F83E20FB6800221A64FB683A6A5A6292
:1027A800FB68BA8C5A85FB685B8D9AB2FB681A8500
:1027B800FB684D4ADA62F8883A8979897B6901931E
:1027C800BB6A00930346F86800F0C2FA0346002B80
:1027D80052D0012381E07A69B96AF86800F050FDA7
:1027E8000346002B0DD0FB681B6C042B07D1FB683C
:1027F8001B681A68FB681B6842F400721A600123A0
:102808006BE0FB685B6A1A78FB681B681A61FB68F7
:102818005B6A5A1CFB685A62FB681B8D013B9AB2C3
:10282800FB681A85FB685B8D9BB2013B9AB2FB681B
:102838005A85FB681B685B6903F00403042B1BD1F2
:10284800FB681B8D002B17D0FB685B6A1A78FB6846
:102858001B681A61FB685B6A5A1CFB685A62FB6852
:102868001B8D013B9AB2FB681A85FB685B8D9BB296
:10287800013B9AB2FB685A85FB681B8D002BAAD1D5
:102888007A69B96AF86800F043FD0346002B0DD059
:10289800FB681B6C042B07D1FB681B681A68FB6874
:1028A8001B6842F400721A60012316E0FB681B687B
:1028B8001A68FB681B6842F400721A60FB682022E1
:1028C80083F83D20FB68002283F83E20FB68002245
:1028D80083F83C20002300E0022318461837BD4641
:1028E80080BD00BF020010000000FFFF80B58CB063
:1028F80002AFF860084611461A4603467B810B462C
:102908003B811346FB80FFF75BFA7862FB6893F81C
:102918003D30DBB2202B40F014827B6A00931923F0
:1029280001227B49F86800F091FB0346002B01D097
:10293800022307E2FB6893F83C30012B01D1022304
:1029480000E2FB68012283F83C20FB681B681B68D7
:1029580003F00103012B07D0FB681B681A68FB68AA
:102968001B6842F001021A60FB681B681A68FB6862
:102978001B6822F400621A60FB68222283F83D205B
:10298800FB68402283F83E20FB6800221A64FB683B
:102998003A6B5A62FB68BA8E5A85FB685B8D9AB2AD
:1029A800FB681A85FB685B4ADA62F8883A89798994
:1029B8007B6A0193BB6B00930346F86800F05EFAEC
:1029C8000346002B01D00123BCE1FB681B8D002BC3
:1029D80013D100233B62FB681B685B693B62FB68A1
:1029E8001B689B693B623B6AFB681B681A68FB684B
:1029F8001B6842F400721A6090E1FB681B8D012B82
:102A08001BD1FB681B681A68FB681B6822F480628C
:102A18001A600023FB61FB681B685B69FB61FB684C
:102A28001B689B69FB61FB69FB681B681A68FB688C
:102A38001B6842F400721A6070E1FB681B8D022B60
:102A48001BD1FB681B681A68FB681B6822F480624C
:102A58001A60FB681B681A68FB681B6842F400620E
:102A68001A600023BB61FB681B685B69BB61FB687C
:102A78001B689B69BB61BB6950E100237B61FB68F4
:102A88001B685B697B61FB681B689B697B617B6971
:102A980044E1FB681B8D032B00F2F180FB681B8D62
:102AA800012B23D17A6AB96BF86800F079FC0346E8
:102AB800002B01D0012345E1FB681B681A69FB68FC
:102AC8005B6AD2B21A70FB685B6A5A1CFB685A626E
:102AD800FB681B8D013B9AB2FB681A85FB685B8D0E
:102AE8009BB2013B9AB2FB685A8517E1FB681B8DC4
:102AF800022B4ED17B6A0093BB6B00220649F86813
:102B080000F0A4FA0346002B08D001231AE100BF05
:102B1800020010000000FFFF04000100FB681B68B2
:102B28001A68FB681B6842F400721A60FB681B682D
:102B38001A69FB685B6AD2B21A70FB685B6A5A1C36
:102B4800FB685A62FB681B8D013B9AB2FB681A85C9
:102B5800FB685B8D9BB2013B9AB2FB685A85FB68A8
:102B68001B681A69FB685B6AD2B21A70FB685B6AF9
:102B78005A1CFB685A62FB681B8D013B9AB2FB68C2
:102B88001A85FB685B8D9BB2013B9AB2FB685A853C
:102B9800C4E07B6A0093BB6B00226C49F86800F0C4
:102BA80055FA0346002B01D00123CBE0FB681B68D4
:102BB8001A68FB681B6822F480621A60FB681B684D
:102BC8001A69FB685B6AD2B21A70FB685B6A5A1CA6
:102BD800FB685A62FB681B8D013B9AB2FB681A8539
:102BE800FB685B8D9BB2013B9AB2FB685A857B6A96
:102BF8000093BB6B00225549F86800F027FA03469A
:102C0800002B01D001239DE0FB681B681A68FB6854
:102C18001B6842F400721A60FB681B681A69FB683B
:102C28005B6AD2B21A70FB685B6A5A1CFB685A620C
:102C3800FB681B8D013B9AB2FB681A85FB685B8DAC
:102C48009BB2013B9AB2FB685A85FB681B681A69FC
:102C5800FB685B6AD2B21A70FB685B6A5A1CFB6835
:102C68005A62FB681B8D013B9AB2FB681A85FB68A8
:102C78005B8D9BB2013B9AB2FB685A854EE07A6A3B
:102C8800B96BF86800F08CFB0346002B01D00123D8
:102C980058E0FB681B681A69FB685B6AD2B21A7055
:102CA800FB685B6A5A1CFB685A62FB681B8D013B18
:102CB8009AB2FB681A85FB685B8D9BB2013B9AB29E
:102CC800FB685A85FB681B685B6903F00403042BE7
:102CD80024D1FB681B8D032B07D1FB681B681A687E
:102CE800FB681B6822F480621A60FB681B681A691B
:102CF800FB685B6AD2B21A70FB685B6A5A1CFB6895
:102D08005A62FB681B8D013B9AB2FB681A85FB6807
:102D18005B8D9BB2013B9AB2FB685A85FB681B8DA1
:102D2800002B7FF4B6AEFB68202283F83D20FB68B9
:102D3800002283F83E20FB68002283F83C20002311
:102D480000E0022318462837BD4680BD0400010074
:102D580080B588B002AFF860084611461A460346A7
:102D68007B810B463B811346FB80FB681B681A6816
:102D7800FB681B6842F480721A607B6A00933B6AA6
:102D880000224FF00111F86800F060F90346002BAB
:102D98000DD0FB681B681B6803F48073B3F5807F54
:102DA80003D1FB684FF400721A6403235FE07B8948
:102DB800DBB21A46FB681B6802F0FE021A617B6AE6
:102DC8003A6A2D49F86800F0BBF90346002B01D098
:102DD80001234CE000237B61FB681B685B697B6116
:102DE800FB681B689B697B617B697A6A396AF8684A
:102DF80000F046FA0346002B0DD0FB681B6C042B31
:102E080007D1FB681B681A68FB681B6842F40072EC
:102E18001A6001232BE0FB88012B05D13B89DAB22C
:102E2800FB681B681A6121E03B891B0A9BB2DAB276
:102E3800FB681B681A617A6A396AF86800F020FA38
:102E48000346002B0DD0FB681B6C042B07D1FB68D5
:102E58001B681A68FB681B6842F400721A60012339
:102E680005E03B89DAB2FB681B681A610023184643
:102E78001837BD4680BD00BF0200010080B588B08C
:102E880002AFF860084611461A4603467B810B4696
:102E98003B811346FB80FB681B681A68FB681B684C
:102EA80042F480621A60FB681B681A68FB681B683A
:102EB80042F480721A607B6A00933B6A00224FF0EA
:102EC8000111F86800F0C2F80346002B0DD0FB682A
:102ED8001B681B6803F48073B3F5807F03D1FB681C
:102EE8004FF400721A640323AAE07B89DBB21A4606
:102EF800FB681B6802F0FE021A617B6A3A6A524953
:102F0800F86800F01DF90346002B01D0012397E073
:102F180000237B61FB681B685B697B61FB681B683E
:102F28009B697B617B697A6A396AF86800F0A8F95D
:102F38000346002B0DD0FB681B6C042B07D1FB68E4
:102F48001B681A68FB681B6842F400721A60012348
:102F580076E0FB88012B05D13B89DAB2FB681B6858
:102F68001A6121E03B891B0A9BB2DAB2FB681B6835
:102F78001A617A6A396AF86800F082F90346002B08
:102F88000DD0FB681B6C042B07D1FB681B681A6803
:102F9800FB681B6842F400721A60012350E03B8909
:102FA800DAB2FB681B681A617A6A396AF86800F055
:102FB80067F90346002B0DD0FB681B6C042B07D167
:102FC800FB681B681A68FB681B6842F400721A6089
:102FD800012335E0FB681B681A68FB681B6842F42C
:102FE80080721A607B6A00933B6A00224FF00111DD
:102FF800F86800F02BF80346002B0DD0FB681B681F
:103008001B6803F48073B3F5807F03D1FB684FF42A
:1030180000721A64032313E07B89DBB243F00103D7
:10302800DAB2FB681B681A617B6A3A6A0649F86873
:1030380000F086F80346002B01D0012300E00023AE
:1030480018461837BD4680BD0200010080B584B01F
:1030580000AFF860B9603B601346FB7148E03B681D
:10306800B3F1FF3F44D0FEF7ABFE0246BB69D31A6B
:103078003A689A4202D33B68002B39D1BB681B0CD3
:10308800DBB2012B0DD1FB681B685B69DA43BB68B7
:1030980013409BB2002B0CBF01230023DBB21A465E
:1030A8000CE0FB681B689B69DA43BB6813409BB262
:1030B800002B0CBF01230023DBB21A46FB799A428E
:1030C80016D1FB6800221A63FB68202283F83D2092
:1030D800FB68002283F83E20FB681B6C43F020024B
:1030E800FB681A64FB68002283F83C20012323E074
:1030F800BB681B0CDBB2012B0DD1FB681B685B693D
:10310800DA43BB6813409BB2002B0CBF012300239A
:10311800DBB21A460CE0FB681B689B69DA43BB68A4
:1031280013409BB2002B0CBF01230023DBB21A46CD
:10313800FB799A4293D0002318461037BD4680BDCC
:1031480080B584B000AFF860B9607A603B6071E028
:10315800FB681B685B6903F48063B3F5806F23D158
:10316800FB681B681A68FB681B6842F400721A60E7
:10317800FB681B686FF480625A61FB6800221A635F
:10318800FB68202283F83D20FB68002283F83E205C
:10319800FB681B6C43F00402FB681A64FB6800229E
:1031A80083F83C20012367E07B68B3F1FF3F41D0FF
:1031B800FEF706FE02463B68D31A7A689A4202D3A3
:1031C8007B68002B36D1BB681B0CDBB2012B0CD102
:1031D800FB681B685B69DA43BB6813409BB2002B32
:1031E80014BF01230023DBB20BE0FB681B689B695B
:1031F800DA43BB6813409BB2002B14BF01230023A2
:10320800DBB2002B16D0FB6800221A63FB68202271
:1032180083F83D20FB68002283F83E20FB681B6C86
:1032280043F02002FB681A64FB68002283F83C2004
:10323800012321E0BB681B0CDBB2012B0CD1FB681E
:103248001B685B69DA43BB6813409BB2002B14BF51
:1032580001230023DBB20BE0FB681B689B69DA43A0
:10326800BB6813409BB2002B14BF01230023DBB2C1
:10327800002B7FF46DAF002318461037BD4680BD84
:1032880080B584B000AFF860B9607A6034E0F8685F
:1032980000F0E3F80346002B01D0012334E0BB68BB
:1032A800B3F1FF3F28D0FEF78BFD02467B68D31AA7
:1032B800BA689A4202D3BB68002B1DD1FB681B6811
:1032C8005B6903F08003802B16D0FB6800221A6329
:1032D800FB68202283F83D20FB68002283F83E200B
:1032E800FB681B6C43F02002FB681A64FB68002231
:1032F80083F83C20012307E0FB681B685B6903F047
:103308008003802BC3D1002318461037BD4680BDEB
:1033180080B584B000AFF860B9607A6034E0F868CE
:1033280000F09BF80346002B01D0012334E0BB6872
:10333800B3F1FF3F28D0FEF743FD02467B68D31A5E
:10334800BA689A4202D3BB68002B1DD1FB681B6880
:103358005B6903F00403042B16D0FB6800221A6390
:10336800FB68202283F83D20FB68002283F83E207A
:10337800FB681B6C43F02002FB681A64FB680022A0
:1033880083F83C20012307E0FB681B685B6903F0B6
:103398000403042BC3D1002318461037BD4680BD53
:1033A80080B584B000AFF860B9607A6049E0FB6826
:1033B8001B685B6903F01003102B19D1FB681B68AD
:1033C8006FF010025A61FB6800221A63FB68202222
:1033D80083F83D20FB68002283F83E20FB681A6CC6
:1033E800FB681A64FB68002283F83C20012330E064
:1033F800FEF7E6FC02467B68D31ABA689A4202D303
:10340800BB68002B1DD1FB681B685B6903F0400398
:10341800402B16D0FB6800221A63FB68202283F831
:103428003D20FB68002283F83E20FB681B6C43F0BC
:103438002002FB681A64FB68002283F83C20012301
:1034480007E0FB681B685B6903F04003402BAED1C3
:10345800002318461037BD4680BD80B483B000AF46
:1034680078607B681B685B6903F48063B3F5806FE1
:103478001BD17B681B686FF480625A617B680022ED
:103488001A637B68202283F83D207B68002283F83A
:103498003E207B681B6C43F004027B681A647B68DF
:1034A800002283F83C20012300E0002318460C3753
:1034B800BD465DF8047B704780B586B000AF786084
:1034C8007B68002B01D1012367E27B681B6803F04E
:1034D8000103002B75D0884B9B6803F00C03042B69
:1034E8000CD0854B9B6803F00C03082B12D1824B40
:1034F8005B6803F48003B3F5800F0BD17E4B1B6828
:1035080003F40033002B5BD07B685B68002B57D13A
:10351800012342E27B685B68B3F5803F06D1764BB6
:103528001B68754A43F4803313601DE07B685B6851
:10353800B3F5A02F0CD1704B1B686F4A43F480235E
:1035480013606D4B1B686C4A43F4803313600BE0C7
:10355800694B1B68684A23F480331360664B1B6809
:10356800654A23F4802313607B685B68002B13D0C3
:10357800FEF726FC386108E0FEF722FC02463B69AC
:10358800D31A642B01D9032307E25B4B1B6803F4AE
:103598000033002BF0D014E0FEF712FC386108E08D
:1035A800FEF70EFC02463B69D31A642B01D90323AC
:1035B800F3E1514B1B6803F40033002BF0D100E01A
:1035C80000BF7B681B6803F00203002B63D04A4BE3
:1035D8009B6803F00C03002B0BD0474B9B6803F050
:1035E8000C03082B1CD1444B5B6803F48003002BAD
:1035F80016D1414B1B6803F00203002B05D07B68F2
:10360800DB68012B01D00123C7E13B4B1B6823F08A
:10361800F8027B681B69DB00374913430B603AE00B
:103628007B68DB68002B20D0344B01221A60FEF740
:10363800C7FB386108E0FEF7C3FB02463B69D31AB3
:10364800022B01D90323A8E12B4B1B6803F00203CB
:10365800002BF0D0284B1B6823F0F8027B681B690D
:10366800DB00254913430B6015E0244B00221A6048
:10367800FEF7A6FB386108E0FEF7A2FB02463B69AD
:10368800D31A022B01D9032387E11B4B1B6803F0D4
:103698000203002BF0D17B681B6803F00803002BA2
:1036A80036D07B685B69002B16D0154B01221A6057
:1036B800FEF786FB386108E0FEF782FB02463B69AD
:1036C800D31A022B01D9032367E10B4B5B6F03F07D
:1036D8000203002BF0D01BE0094B00221A60FEF712
:1036E8006FFB38610EE0FEF76BFB02463B69D31AAD
:1036F800022B07D9032350E100380240000047425B
:10370800800E4742884B5B6F03F00203002BEAD11F
:103718007B681B6803F00403002B00F097800023EC
:10372800FB75814B1B6C03F08053002B0FD10023DA
:10373800BB607D4B1B6C7C4A43F0805313647A4B0F
:103748001B6C03F08053BB60BB680123FB75774B90
:103758001B6803F48073002B18D1744B1B68734AE1
:1037680043F480731360FEF72BFB386108E0FEF723
:1037780027FB02463B69D31A022B01D903230CE12C
:103788006A4B1B6803F48073002BF0D07B689B683E
:10379800012B06D1644B1B6F634A43F00103136787
:1037A8001CE07B689B68052B0CD15F4B1B6F5E4A46
:1037B80043F0040313675C4B1B6F5B4A43F0010340
:1037C80013670BE0584B1B6F574A23F0010313672D
:1037D800554B1B6F544A23F0040313677B689B689F
:1037E800002B15D0FEF7ECFA38610AE0FEF7E8FA8C
:1037F80002463B69D31A41F28832934201D9032326
:10380800CBE0494B1B6F03F00203002BEED014E012
:10381800FEF7D6FA38610AE0FEF7D2FA02463B69AB
:10382800D31A41F28832934201D90323B5E03E4BC3
:103838001B6F03F00203002BEED1FB7D012B05D19A
:10384800394B1B6C384A23F0805313647B689B699F
:10385800002B00F0A180344B9B6803F00C03082B6D
:103868005CD07B689B69022B41D1314B00221A60E6
:10387800FEF7A6FA386108E0FEF7A2FA02463B69AD
:10388800D31A022B01D9032387E0274B1B6803F0C7
:103898000073002BF0D17B68DA697B681B6A1A43D6
:1038A8007B685B6A9B011A437B689B6A5B08013BE8
:1038B8001B041A437B68DB6A1B061B4913434B60D6
:1038C8001B4B01221A60FEF77BFA386108E0FEF70D
:1038D80077FA02463B69D31A022B01D903235CE02D
:1038E800114B1B6803F00073002BF0D054E0104B11
:1038F80000221A60FEF764FA386108E0FEF760FA01
:1039080002463B69D31A022B01D9032345E0064B33
:103918001B6803F00073002BF0D13DE07B689B69C6
:10392800012B07D1012338E0003802400070004025
:10393800600047421B4B5B68FB607B689B69012BFF
:1039480028D0FB6803F480027B68DB699A4221D1A6
:10395800FB6803F03F027B681B6A9A421AD1FA6837
:1039680047F6C07313407A68526A9201934211D1A4
:10397800FB6803F440327B689B6A5B08013B1B04CD
:103988009A4207D1FB6803F070627B68DB6A1B060A
:103998009A4201D0012300E0002318461837BD469B
:1039A80080BD00BF0038024080B584B000AF7860A9
:1039B80039607B68002B01D10123CCE0684B1B6880
:1039C80003F007033A689A420CD9654B3A68D2B2B9
:1039D8001A70634B1B6803F007033A689A4201D0D8
:1039E8000123B8E07B681B6803F00203002B20D09A
:1039F8007B681B6803F00403002B05D0594B9B68B8
:103A0800584A43F4E05393607B681B6803F008034B
:103A1800002B05D0534B9B68524A43F46043936094
:103A2800504B9B6823F0F0027B689B684D49134319
:103A38008B607B681B6803F00103002B44D07B6814
:103A48005B68012B07D1474B1B6803F40033002B3D
:103A580019D101237FE07B685B68022B03D07B6868
:103A68005B68032B07D13F4B1B6803F00073002BE7
:103A780009D101236FE03B4B1B6803F00203002BC5
:103A880001D1012367E0374B9B6823F003027B6871
:103A98005B68344913438B60FEF792F9F8600AE0DB
:103AA800FEF78EF90246FB68D31A41F28832934238
:103AB80001D903234FE02B4B9B6803F00C027B6872
:103AC8005B689B009A42EBD1254B1B6803F0070308
:103AD8003A689A420CD2224B3A68D2B21A70204BFA
:103AE8001B6803F007033A689A4201D0012332E0C9
:103AF8007B681B6803F00403002B08D0194B9B68F4
:103B080023F4E0527B68DB68164913438B607B68BB
:103B18001B6803F00803002B09D0124B9B6823F4A1
:103B280060427B681B69DB000E4913438B6000F021
:103B380021F802460B4B9B681B0903F00F030A4947
:103B4800CB5C22FA03F3094A1360094B1B68184639
:103B5800FEF7F2F8002318461037BD4680BD00BFB7
:103B6800003C024000380240344D000804000020A8
:103B7800080000202DE9B04F90B000AF00237B6310
:103B88000023FB6300233B630023BB63594B9B6803
:103B980003F00C03082B0DD0082B00F2A180002B9A
:103BA80002D0042B03D09BE0534BBB639BE0534BE9
:103BB800BB6398E04F4B5B6803F03F037B634D4B5F
:103BC8005B6803F48003002B28D04A4B5B689B0991
:103BD80000223B627A623B6AC3F308000021474B2C
:103BE80003FB01F2002300FB03F31344434AA0FB49
:103BF8000212FA620A46BA62FA6A1344FB627B6BE3
:103C08000022BB61FA61D7E90623D7E90A01FCF76C
:103C180025FF02460B461346FB6353E0354B5B68B2
:103C28009B0900223B617A613B69C3F3080A4FF0A4
:103C3800000B52465B464FF000004FF0000159015F
:103C480041EAD261500102460B46B2EB0A0863EB27
:103C58000B094FF000024FF000034FEA891343EAC3
:103C680098634FEA8812B2EB080463EB09054FF03A
:103C780000024FF00003EB0043EA5473E2001446DD
:103C88001D4614EB0A033B6045EB0B037B604FF0CA
:103C980000024FF00003D7E9004529468B02214670
:103CA80043EA915321468A02104619467B6B00224B
:103CB800BB60FA60D7E90223FCF7D0FE02460B4648
:103CC8001346FB630B4B5B681B0C03F003030133C8
:103CD8005B003B63FA6B3B6BB2FBF3F3BB6302E045
:103CE800054BBB6300BFBB6B18464037BD46BDE8FC
:103CF800B08F00BF003802400024F40040787D01F6
:103D080080B400AF034B1B681846BD465DF8047BC2
:103D1800704700BF0400002080B500AFFFF7F0FF38
:103D28000246054B9B689B0A03F007030349CB5CDB
:103D380022FA03F3184680BD00380240444D0008BB
:103D480080B500AFFFF7DCFF0246054B9B685B0BB5
:103D580003F007030349CB5C22FA03F3184680BD3E
:103D680000380240444D000880B582B000AF78604A
:103D78007B68002B01D1012342E07B6893F8413036
:103D8800DBB2002B06D17B68002283F840207868DC
:103D9800FDF7B6FE7B68242283F841207B681B6808
:103DA800DA687B681B6822F40052DA60786800F0F1
:103DB80011FD7B681B681A697B681B6822F49042B6
:103DC8001A617B681B685A697B681B6822F02A02A3
:103DD8005A617B681B68DA687B681B6842F400528A
:103DE800DA607B6800225A647B68202283F84120CD
:103DF8007B68202283F842207B6800225A630023D4
:103E080018460837BD4680BD80B485B000AFF8605D
:103E1800B9601346FB80FB6893F84130DBB2202B76
:103E280021D1BB68002B02D0FB88002B01D10123D4
:103E38001AE0FB68BA681A62FB68FA889A84FB6819
:103E4800FA88DA84FB6800225A64FB68212283F826
:103E58004120FB681B68DA68FB681B6842F0800237
:103E6800DA60002300E0022318461437BD465DF8E7
:103E7800047B704780B584B000AFF860B960134622
:103E8800FB80FB6893F84230DBB2202B12D1BB6871
:103E9800002B02D0FB88002B01D101230BE0FB682B
:103EA80000221A63FB881A46B968F86800F0BAFA63
:103EB800034600E0022318461037BD4680BD0000C7
:103EC80080B5BAB000AF78607B681B681B68C7F81C
:103ED800E4307B681B68DB68C7F8E0307B681B68E8
:103EE8005B69C7F8DC300023C7F8D8300023C7F86F
:103EF800D430D7F8E43003F00F03C7F8D830D7F838
:103F0800D830002B0FD1D7F8E43003F02003002B72
:103F180009D0D7F8E03003F02003002B03D07868ED
:103F280000F099FB5BE2D7F8D830002B00F0DE8078
:103F3800D7F8DC3003F00103002B06D1D7F8E030C6
:103F480003F49073002B00F0D180D7F8E43003F02D
:103F58000103002B0BD0D7F8E03003F48073002B5B
:103F680005D07B685B6C43F001027B685A64D7F824
:103F7800E43003F00403002B0BD0D7F8DC3003F057
:103F88000103002B05D07B685B6C43F002027B6861
:103F98005A64D7F8E43003F00203002B0BD0D7F8AB
:103FA800DC3003F00103002B05D07B685B6C43F029
:103FB80004027B685A64D7F8E43003F00803002B46
:103FC80011D0D7F8E03003F02003002B05D1D7F843
:103FD800DC3003F00103002B05D07B685B6C43F0F9
:103FE80008027B685A647B685B6C002B00F0F281E6
:103FF800D7F8E43003F02003002B08D0D7F8E030DE
:1040080003F02003002B02D0786800F024FB7B68C3
:104018001B685B6903F04003402B0CBF012300239E
:10402800DBB2C7F8D4307B685B6C03F00803002B65
:1040380003D1D7F8D430002B4FD0786800F02CFA91
:104048007B681B685B6903F04003402B41D17B68A8
:104058001B681433C7F89C30D7F89C3053E8003FEE
:10406800C7F89830D7F8983023F04003C7F8D03015
:104078007B681B681433D7F8D020C7F8A820C7F886
:10408800A430D7F8A410D7F8A82041E80023C7F82F
:10409800A030D7F8A030002BD9D17B68DB6B002B80
:1040A80013D07B68DB6B7E4A1A657B68DB6B18462E
:1040B800FEF737F80346002B16D07B68DB6B1B6DC9
:1040C8007A68D26B104698470EE0786800F094F949
:1040D8000AE0786800F090F906E0786800F08CF95A
:1040E8007B6800225A6475E100BF73E17B681B6B33
:1040F800012B40F04F81D7F8E43003F01003002B78
:1041080000F04881D7F8E03003F01003002B00F0EE
:1041180041810023BB607B681B681B68BB607B68B0
:104128001B685B68BB60BB687B681B685B6903F0E6
:104138004003402B40F0B6807B68DB6B1B685B68F4
:10414800A7F8BE30B7F8BE30002B00F045817B6879
:104158009B8DB7F8BE209A4280F03E817B68B7F805
:10416800BE20DA857B68DB6BDB69B3F5807F00F006
:1041780088807B681B680C33C7F88830D7F888308C
:1041880053E8003FC7F88430D7F8843023F48073AD
:10419800C7F8B8307B681B680C33D7F8B820C7F865
:1041A8009420C7F89030D7F89010D7F8942041E8B9
:1041B8000023C7F88C30D7F88C30002BD9D17B6816
:1041C8001B6814337B677B6F53E8003F3B673B6F8B
:1041D80023F00103C7F8B4307B681B681433D7F8A1
:1041E800B420C7F88020FB67F96FD7F8802041E832
:1041F8000023BB67BB6F002BE1D17B681B681433BE
:104208003B663B6E53E8003FFB65FB6D23F04003C4
:10421800C7F8B0307B681B681433D7F8B020FA664B
:10422800BB66B96EFA6E41E800237B667B6E002B95
:10423800E3D17B68202283F842207B6800221A633E
:104248007B681B680C33FB64FB6C53E8003FBB6462
:10425800BB6C23F01003C7F8AC307B681B680C33C9
:10426800D7F8AC20BA657B65796DBA6D41E8002353
:104278003B653B6D002BE3D17B68DB6B1846FDF794
:10428800E0FE7B6802225A637B689A8D7B68DB8D2F
:104298009BB2D31A9BB21946786800F0B7F89BE036
:1042A800674500087B689A8D7B68DB8D9BB2D31AC3
:1042B800A7F8CE307B68DB8D9BB2002B00F08E8098
:1042C800B7F8CE30002B00F089807B681B680C3370
:1042D800BB63BB6B53E8003F7B637B6B23F490733A
:1042E800C7F8C8307B681B680C33D7F8C8207A64D5
:1042F8003B64396C7A6C41E80023FB63FB6B002B51
:10430800E3D17B681B6814337B627B6A53E8003F08
:104318003B623B6A23F00103C7F8C4307B681B6823
:104328001433D7F8C4203A63FB62F96A3A6B41E860
:104338000023BB62BB6A002BE3D17B68202283F891
:1043480042207B6800221A637B681B680C333B6140
:104358003B6953E8003FFB60FB6823F01003C7F894
:10436800C0307B681B680C33D7F8C020FA61BB618A
:10437800B969FA6941E800237B617B69002BE3D1C5
:104388007B6802225A63B7F8CE301946786800F085
:104398003DF823E0D7F8E43003F08003002B09D080
:1043A800D7F8E03003F08003002B03D0786800F0E2
:1043B800EAF814E0D7F8E43003F04003002B0ED0FD
:1043C800D7F8E03003F04003002B08D0786800F0FD
:1043D8002AF904E000BF02E000BF00E000BFE837B0
:1043E800BD4680BD80B483B000AF786000BF0C3795
:1043F800BD465DF8047B704780B483B000AF786039
:1044080000BF0C37BD465DF8047B704780B483B0AD
:1044180000AF78600B467B8000BF0C37BD465DF867
:10442800047B704780B485B000AFF860B96013466C
:10443800FB80FB68BA689A62FB68FA889A85FB6811
:10444800FA88DA85FB6800225A64FB68222283F81E
:104458004220FB681B69002B07D0FB681B68DA68E1
:10446800FB681B6842F48072DA60FB681B685A6953
:10447800FB681B6842F001025A61FB681B68DA6836
:10448800FB681B6842F02002DA60002318461437E4
:10449800BD465DF8047B704780B495B000AF786086
:1044A8007B681B680C337B637B6B53E8003F3B6383
:1044B8003B6B23F49073FB647B681B680C33FA6CCA
:1044C8003A64FB63F96B3A6C41E80023BB63BB6B4E
:1044D800002BE5D17B681B6814333B623B6A53E8C9
:1044E800003FFB61FB6923F00103BB647B681B6829
:1044F8001433BA6CFA62BB62B96AFA6A41E80023FB
:104508007B627B6A002BE5D17B681B6B012B19D181
:104518007B681B680C33FB60FB6853E8003FBB609B
:10452800BB6823F010037B647B681B680C337A6CD0
:10453800BA617B617969BA6941E800233B613B69EB
:10454800002BE5D17B68202283F842207B6800227B
:104558001A6300BF5437BD465DF8047B704780B5C9
:1045680084B000AF78607B689B6BFB60FB680022BF
:10457800DA85FB680022DA84F868FFF73DFF00BFA0
:104588001037BD4680BD80B485B000AF78607B68C9
:1045980093F84130DBB2212B3ED17B689B68B3F5A1
:1045A800805F14D17B681B69002B10D17B681B6A64
:1045B800FB60FB681B881A467B681B68C2F308020D
:1045C8005A607B681B6A9A1C7B681A6208E07B68E1
:1045D8001B6A591C7A6811621A787B681B685A60D2
:1045E8007B68DB8C9BB2013B9BB27A681946D1840D
:1045F800002B0FD17B681B68DA687B681B6822F088
:104608008002DA607B681B68DA687B681B6842F0A6
:104618004002DA60002300E0022318461437BD4642
:104628005DF8047B704780B582B000AF78607B6826
:104638001B68DA687B681B6822F04002DA607B68D6
:10464800202283F841207868FFF7CCFE0023184623
:104658000837BD4680BD80B58CB000AF78607B68F8
:1046680093F84230DBB2222B40F0AE807B689B6827
:10467800B3F5805F17D17B681B69002B13D100232A
:10468800FB627B689B6ABB627B681B685B689BB24A
:10469800C3F308039AB2BB6A1A807B689B6A9A1CA8
:1046A8007B689A6226E07B689B6AFB620023BB6298
:1046B8007B689B68B3F5805F07D07B689B68002B9D
:1046C8000AD17B681B69002B06D17B681B685B6875
:1046D800DAB2FB6A1A7008E07B681B685B68DBB2B9
:1046E80003F07F03DAB2FB6A1A707B689B6A5A1C74
:1046F8007B689A627B68DB8D9BB2013B9BB27A68D0
:104708001946D185002B5DD17B681B68DA687B6808
:104718001B6822F02002DA607B681B68DA687B6815
:104728001B6822F48072DA607B681B685A697B68B0
:104738001B6822F001025A617B68202283F842201C
:104748007B6800225A637B681B6B012B35D17B6821
:1047580000221A637B681B680C337B617B6953E812
:10476800003F3B613B6923F010037B627B681B6859
:104778000C337A6A3A62FB61F9693A6A41E80023C4
:10478800BB61BB69002BE5D17B681B681B6803F024
:104798001003102B0AD10023FB607B681B681B6881
:1047A800FB607B681B685B68FB60FB687B689B8DB4
:1047B80019467868FFF72AFE02E07868FCF79CFC47
:1047C800002302E0002300E0022318463037BD46EC
:1047D80080BD00002DE9B04FC0B000AFC7F8F400AD
:1047E800D7F8F4301B681B6923F44050D7F8F4302D
:1047F800D968D7F8F4301A6840EA01031361D7F88A
:10480800F4309A68D7F8F4301B691A43D7F8F430B3
:104818005B691A43D7F8F430DB691343C7F8F830FB
:10482800D7F8F4301B68DB6823F4164121F00C013B
:10483800D7F8F4301A68D7F8F8300B43D360D7F8B4
:10484800F4301B685B6923F44070D7F8F430996939
:10485800D7F8F4301A6840EA01035361D7F8F43006
:104868001A688F4B9A4205D0D7F8F4301A688D4BE6
:104878009A4204D1FFF764FAC7F8FC0003E0FFF797
:104888004BFAC7F8FC00D7F8F430DB69B3F5004FF2
:1048980040F00C81D7F8FC300022C7F8E830C7F8A0
:1048A800EC20D7E93A4522462B469118B9655B4179
:1048B800FB65D7E91623214612EB0108294643EB8D
:1048C80001094FF000024FF000034FEAC90343EA21
:1048D80058734FEAC80290469946234618EB0303DB
:1048E800C7F8E0302B4649EB0303C7F8E430D7F8A4
:1048F800F4305B680022C7F8D830C7F8DC20D7E965
:1049080036120B46DB183B65134642EB03037B6507
:10491800D7E91423D7E93801FCF7A0F802460B467B
:10492800614BA3FB02235B091C01D7F8FC30002272
:10493800C7F8D030C7F8D420D7E9348942464B4667
:104948009118B9645B41FB64D7E91223414612EB25
:10495800010A494643EB010B4FF000024FF00003F8
:104968004FEACB0343EA5A734FEACA0292469B4680
:1049780043461AEB0303C7F8C8304B464BEB030317
:10498800C7F8CC30D7F8F4305B680022C7F8C030DD
:10499800C7F8C420D7E930120B46DB183B6413462E
:1049A80042EB03037B64D7E91023D7E93201FCF714
:1049B80055F802460B4611463B4BA3FB01235B0906
:1049C800642202FB03F3CB1ADB0003F13202364BFD
:1049D800A3FB02235B095B0003F4F8731C44D7F8BC
:1049E800FC300022C7F8B830C7F8BC20D7E92E89B8
:1049F80042464B469118B9635B41FB63D7E90E23E6
:104A080041465118396349464B417B634FF00002D8
:104A18004FF00003D7E90CAB5946CB00514643EAA7
:104A280051735146CA0010461946034642469B1820
:104A3800C7F8B0304B460A4642EB0303C7F8B43018
:104A4800D7F8F4305B680022C7F8A830C7F8AC2064
:104A5800D7E92A120B46DB18BB62134642EB030365
:104A6800FB62D7E90A23D7E92C01FBF7F7FF0246D7
:104A78000B460D4BA3FB02135B09642101FB03F3F7
:104A8800D31ADB003233084AA2FB03235B0903F085
:104A98000702D7F8F4301B6822449A6006E100BF89
:104AA80000100140001401401F85EB51D7F8FC307D
:104AB8000022C7F8A030C7F8A420D7E928894246C1
:104AC8004B46911839625B417B62D7E9082341461E
:104AD8005418494643EB01054FF000024FF000031C
:104AE800EB0043EA5473E20014461D464346E318BC
:104AF800C7F898304B4645EB0303C7F89C30D7F806
:104B0800F4305B680022C7F89030C7F894204FF063
:104B180000024FF00003D7E9244529468B002146BF
:104B280043EA917321468A00D7E92601FBF796FFED
:104B380002460B46604BA3FB02235B091C01D7F816
:104B4800FC300022C7F88830C7F88C20D7E92289C2
:104B580042464B469118B9615B41FB61D7E9062390
:104B680041465118396149464B417B614FF000027B
:104B78004FF00003D7E904AB5946CB00514643EA4E
:104B880051735146CA0010461946034642469B18BF
:104B9800C7F880304B460A4642EB0303C7F8843017
:104BA800D7F8F4305B680022BB67FA674FF0000261
:104BB8004FF00003D7E91E8949468B00414643EA76
:104BC800917341468A00D7E92001FBF747FF024667
:104BD8000B461146384BA3FB01235B09642202FBF9
:104BE80003F3CB1A1B013233334AA2FB03235B09BD
:104BF80003F0F0031C44D7F8FC3000223B677A67C7
:104C0800D7E91C8942464B469118B9605B41FB6065
:104C1800D7E9022341465118396049464B417B6028
:104C28004FF000024FF00003D7E900AB5946CB0024
:104C3800514643EA51735146CA0010461946034685
:104C480042469B18BB664B460A4642EB0303FB668B
:104C5800D7F8F4305B6800223B667A664FF00002B2
:104C68004FF00003D7E9188949468B00414643EACB
:104C7800917341468A00D7E91A01FBF7EFFE024615
:104C88000B460D4BA3FB02135B09642101FB03F3E5
:104C9800D31A1B013233084AA2FB03235B0903F032
:104CA8000F02D7F8F4301B6822449A6000BF07F55A
:104CB8008077BD46BDE8B08F1F85EB51024403469F
:104CC800934200D1704703F8011BF9E770B50D4D09
:104CD8000D4C641BA4100026A64209D10B4D0C4CA8
:104CE80000F018F8641BA4100026A64205D170BD78
:104CF80055F8043B98470136EEE755F8043B9847CA
:104D08000136F2E7544D0008544D0008544D000890
:104D1800584D0008F8B500BFF8BC08BC9E4670475F
:0C4D2800F8B500BFF8BC08BC9E46704700
:104D34000000000000000000010203040607080947
:084D440000000000010203045D
:084D4C0048BDFF7F01000000DB
:044D5400BD01000895
:044D580099010008B5
:104D5C00010000000024F40010000000010000001D
:0400000508001CA92A
:00000001FF
